:100000000C94F5150C941D160C941D160C941D16CD
:100010000C941D160C941D160C941D160C941D1694
:100020000C941D160C941D160C9423240C949524EA
:100030000C941D160C941D160C941D160C941D1674
:100040000C941D160C941D160C941D160C941D1664
:100050000C941D160C941D160C941D160C94022065
:100060000C941D160C941D160C941D160C941D1644
:100070000C941D160C941D160C941D160C941D1634
:100080000C941D160C941D160C941D160C941D1624
:100090000C941D160C941D160C941D160C941D1614
:1000A0000C941D160C941D160C941D16C92DFC2DB8
:1000B000692A6D2A702A732B732B1F2D702A372EF5
:1000C000372E372E372E372E372E372E053131313A
:1000D000C731FC31582E712EB32EEC2EB32F1130B8
:1000E0007A307F21BD85B185FD0077C51555DD418D
:1000F0007F7F415F405E5256505545575477407F51
:100100007F417D05DD51555555D5555575057F7F89
:10011000405F515D405F515D4555515F407FFF013C
:10012000FD05DD555504F711515515457F7F407686
:10013000445D417F04774451555C417FFF415575D3
:1001400005D57D04DF01F515DD417F7F445F555006
:100150005B407F415C47505F407F7F41DD455D51A3
:100160001754D595B5A5AD81FF7F405F415B497BB5
:10017000425A5278525E407FFF81FD05EDA9ABA047
:10018000BF81ED05FD01FF7F405A525A527E027633
:10019000525A425B487FFF01EF89B9A1A181A1A119
:1001A000B989EF01FF7F405E425A4A7803784A5A84
:1001B000425E407FFF01D755DD01FF81BD25ED8106
:1001C0003DA1FF7F405F427A426E086B42486F401C
:1001D0004A7F7F455551DD45751175057515FD0142
:1001E0007F7F415D505B416D016D415F407B417F91
:1001F0007F01FD416D496F21ADA58FA5BD81FF7FB9
:10020000415D515D447515555456525A407FFF0962
:10021000ED21ADA5B7A0BFA52DA5AD81FF7F405FA6
:10022000505B407E026A4B58535E407FFF01DD51B8
:1002300055155754D515F585ED21FF7F405654547B
:100240005054145654565256407F7F55057D415D9B
:1002500015545751DD05FD017F7F415D5750555DB8
:10026000017F405F505E427FFF81ED05F595D5052A
:10027000DD85B1A5ED017F7F405E525A4A6A026E6C
:10028000425E5455457F4120534C494D4500412025
:10029000524154004120445241474F4E00412057A3
:1002A0005241495448004120535041524B4154005F
:1002B0004120534B454C45544F4E00414E204F4337
:1002C00043554C4152000D0FE9B3EB6CB67295AB40
:1002D0005C25674EA7BED5A554ED4AA9CEA5D3E9A6
:1002E000743A5D0D0F4995CB965295ABFACA56B24A
:1002F00094CB2BD674253B5795AA4A75755757A5AD
:10030000AA529DAB643A5D0D0F99969DAB52553242
:1003100055555595EB2A75DEF958D3E974253BD729
:10032000B9CE75AE739DEB5CEDD2050D0F4995CB43
:1003300055A95EC9AA5755299757ECE974253BD7AB
:10034000B9CE75AE73954CA7D3E9020D0FC9964E81
:100350007DEA73CE29B9DD3AA7A473F3A5D395AC92
:10036000643A9D4EA7D3E974BA0020204452414715
:100370004F4E5320202020204C4149522020202045
:10038000253A0005041E0425030023170032170335
:100390002537031E34011633011A380308380104C7
:1003A00033030A29010A2003122501182303251FFC
:1003B00001212403291301341C01311C01332501BF
:1003C0003332033A3603423300412601431A0334E1
:1003D000070343090305080316090107050116046D
:1003E0001E01182E01013601271F011C2801012BB7
:1003F00001362B01492401250A020106020B0B02DA
:100400001011021B17023815022E0602470302457F
:1004100012020D1F022927021F2E02103102152180
:1004200002271802230C03270C031F01032B0105CD
:100430002310042625052B150401150865250164E4
:100440000F3464072D64251E64161E64071E643471
:100450001E64431E000407000408030202030B018C
:100460000D09020A0D050C09202043525950542051
:100470004F46202020414E47554953482020162BF7
:100480000003031E02132706152301161F020D2A5F
:1004900002212906262806082805112305262601FB
:1004A000041F021819011515011610010710020387
:1004B00015020A17022417052B1506251B06240B07
:1004C00002250905270606250202120A0617070655
:1004D000120505180303070101090B0107051B019C
:1004E0000223011521012121011127020B21022BD9
:1004F0001B021812020B1202031A021A1A0221120C
:1005000002290302120B020507051717040515053A
:100510002901041001032315032912030B0B030106
:1005200005032929030327030D1B021F1501010DD4
:100530000565070064070F64160F64250F6416280D
:100540000B05040803080A010948414C4C5741595E
:1005500053204F462054484520444541442020071D
:100560003A00010410050A34050133050538050871
:1005700029050324060D21060826010517060B1080
:10058000050B17050412060304060A09050C0405E9
:1005900003080107021302012F020D2A0203290298
:1005A0000524020124020B21020B19030B15030D74
:1005B00015020510030918020102020B0304030BC4
:1005C000050C08030808010701020901020B0B01D1
:1005D00065070003020803D5F08D14A1C881CFD9A7
:1005E000F1AF2000594F552043414E20484541521C
:1005F0000A412044495354414E540A59455420431A
:100600004C4F5345520A445241474F4E20524F419E
:10061000520A415320594F5520535445500A5448CB
:10062000524F554748205448450A444F4F522E2EAA
:100630002E003B371019795C9DCD56AEB295AD4E6C
:1006400075652B5B5D555DD555D555ABAAAE5A7713
:10065000D5555557E5AABA2A5795ED5484B1C71A0E
:1006600075288F2F5BB9CA56AE3A5597EA4A5D7521
:1006700055B9CA55361B5DD8CB6EB7EBF8F3D9CA5E
:10068000662B79D555E52A57A94E75AAB2B186A62B
:100690007014752E57555D555DD5555D555D555793
:1006A0002E2C85BEA4723A1CA59554D239A9F056B9
:1006B00095ABAA2B75555D555D95AB1A9531465591
:1006C000D5559DCA55755575555715A2945A49A9C2
:1006D000A4924A2E9554D975085C4796764E2A1DE9
:1006E000FF555D555DD555D9EAAA8A35172A2B5B8A
:1006F000954BD55575AAAEAA53C598CEA6D35BBB6C
:10070000DFDAD9F1B95D2AA99C1B4D5575AAAEAAAD
:10071000535D559DAA684353CC31662B5775555D83
:100720005557D5558D3F25ED5E49BBDF6E9DA2B671
:100730005B5E3B02ABEAAABAAAAEAAABEAAA8A35CA
:100740001512E34DAEB295ABEAAABAAAAEAAAB5C5B
:100750005557E52A57D96C5CD96C369B8D349BADC7
:100760005CD5557555575557652BA264272F5BB936
:10077000AA5C5557E5AA7295EF542E5BB9AAB096BC
:1007800004444546454E43450041545441434B00C3
:1007900043484F4F534520424F4E5553004C45560A
:1007A000454C200016277494F9A8F27165974E49BC
:1007B000E7E4BAB35166A3CE2AB94DE7A4924A2A18
:1007C000A9A4D2B96E75CE492595545249256DBA62
:1007D000925BBFB77B25EDA5D3FF72A99C934EAA70
:1007E000FF745C2B4A3EC6F43ABD4E565249E5B8FA
:1007F0009D9395CE6EB3DBF096CE6EB7DBED76BBF8
:10080000DD6EB7EB74580257454C4C20444F4E45B3
:10081000210A544845205249434845530A554E44FD
:100820004552205448450A4D4F554E5441494E0AB1
:1008300041524520594F5552530A4E4F57210051AE
:100840003760E8BA5255D705B767950DC3E974BB51
:10085000521F51DD95AC6EAA7BE7B7E96D7ABB0EEE
:1008600016CF2AA79C72CA29E554AD9C72CAD5B787
:1008700052E57D5545C474D5552B55D7E5AABA54D4
:100880005D4A55ADAC3AE5CA56D2553ED82D9FCCFF
:100890005E4ED94AEE435456D9506723AB9C74A997
:1008A0005C2AF5F5BD5A55A752A9BEEF6455EAAFCB
:1008B000AABB5A555F95AAAB4E7575AB7AB9BC56B3
:1008C00075C595EDAABAAA727555CA662BD5297554
:1008D0002AF828AB6C2A5BD9AA4E555775A5B2D514
:1008E000555DD910955536C2EAAA9DCE2A9B55AEC4
:1008F00094AB5C29579553F2AAAB56EA54D5A95349
:1009000055A75AD595EAAAAEAAABEAAABAAA56B58D
:10091000AACA55AED4555D5597EAE4329FCD5657D5
:1009200075555DD55575559553EA56EA568DBEEC0D
:100930005239A7A492DB5823ABCEA6EA2A575557C3
:100940005557E5AABAB2A9A4BAEAEBAA2A55F72ADA
:10095000D5A5CAA552B9CA76AA3A5597BAAAEAAA9B
:100960002E559772555D95AB5C2A97CA552ED55575
:10097000B9545775555D55ABCA77AAABEA529DAAD3
:10098000ABBA9453CAD655759593D77D55572AD788
:10099000ABD455EFD2A9EE4E27E9B259E5D4655351
:1009A00095CDA572F96C2E555D954BAD2A975A558C
:1009B000AE6A55577555AB5AD57279A9552A95AB7C
:1009C0005465AB935DDD5597EAEE4A2EBB77A9548B
:1009D000EA529DEB5C65ABEBBBAEEFBB2AF75D9DCE
:1009E000BA54A5AED4AA725557D555E5AA7295AB9F
:1009F0004E55AE6A55B9AA5575A52E5BA94B652B08
:100A000057B9CA55AE7215D7D2A9AA2BD575ABE482
:100A1000052437E8B3D9CAD5AAD4E52A79B9AAD426
:100A2000AA2B9BAD6CB6AABAAAAEAAB395CD567244
:100A3000D555A9CB55F272AA94AB6565F37157579A
:100A4000D55575555D55ABCA56369FCD87B80A85C5
:100A5000D97C365BABEAAABAAAAEAAAB2A5755959F
:100A6000ABAAABEAAABA4AAD98F6C9E57AB9CEAE56
:100A7000B3B9AA5C7555E52A5795CD67D7CBF5F282
:100A800092B3B57255AEAAAEAAABEA2AC6ABCAAA51
:100A9000F8AA5A2ABBAC4E5DA53AB5AC6CAEEAAA30
:100AA000CAD55555AEAEAA5C5536D555D59FCB2E79
:100AB0002BBB745531A5A5AB2A1F6FBE7295BC5CCC
:100AC00055EAAAAB52577555755C57D5C9DBC96D48
:100AD00095B595FC96C9ABCA77B6AABAAAABD45558
:100AE00057A52E57D9CA85BCD966DB9652D6256F35
:100AF000E9565A59E5F26AA92A2BE54A69B754E939
:100B0000E8B6F958C7575AC9E8944E2A32A5930A4D
:100B1000494A276753644A563A32A593B356A425E7
:100B20000F74D9D3EDCA75BBD25DD7D5AD4EA7AA88
:100B3000D2EDEAAEEEEAAEEEEAAEEEEAAEEEEAAE46
:100B4000EE6A575A13E9D2ADAEBB72D75DABD3DABA
:100B500057B692FB74369D4EA7D3E9743A9D4EA7C3
:100B6000D3E9743A9D4EA7938A4CE9743A59E974D3
:100B70003AA9C800250F753AF89137BD75CE39E707
:100B80009C73CE39E79C73CE39E79C73CE39E79CD2
:100B900073CE39E79C73CE39E79C73CE39E79C73EB
:100BA000CE39E79C730E302F90A5A4925B2597CE8B
:100BB000B918B3AA555C69267B3A9D2EA5AA525551
:100BC0009F4EA72DA4A49C734AEE647495DC56EE48
:100BD00053AB5B39592D7752DACAB964AB76B52B72
:100BE000A54A55A5AA92D5AEEA6B573AE7DC4A9ECC
:100BF0005A49AB94BC9592D239FC6D95547629151F
:100C000069652B57AB54ED9CABAC943279259DAB09
:100C10005D2A95AB6CB6E2DD2BB5527FB2DDC9AB78
:100C2000BD52AB6AA5F6AE6C7299EADE4D9545DC15
:100C300076BBDD6E9554D2AE53A953A752E9ECCEE4
:100C400049554E9553A5EA72B5ACDD252F75E5AA39
:100C5000AEAA4EE5439C67744377E9AD92CA3A6702
:100C60009DAD5595ABAA56D5A9CAC594CFEFF797B8
:100C700075522A1DFC67B7F6AB56FD55AB7ED5EA1B
:100C80005EF5AA57BD6A759F7ABB1D302F90A5A44B
:100C9000924A2AA99C732E74A5D3E9743A9D4EA753
:100CA000D3E9743A0D1929E79C736ED86DBBDD6EDC
:100CB00095545249259DC3DF56492595940A1ECD6A
:100CC000226EBBDD6EB74A2A69D7E9743A9DDD39D9
:100CD000A9EC3A1D14E586EED25B2595944A87E788
:100CE000B49252E9E03FBBDD6EB7DBED76BBDD6E63
:100CF000B7DBED763B4445414C203120444D470A5B
:100D00000020444D470A0054414B4520002B2FD072
:100D10009DDD2E955472BB5452C9CB5DEE7297BBCC
:100D20009C92CA6E67D2A5D3E974C9D2E9745AE31A
:100D3000D46D93BB653657A94BF5A7E5ADB6A7DED5
:100D4000559D73572B2555ABEDB91491ADBEBECA59
:100D5000DDAEEA2BA54AD6AE747662A9D2E9743A22
:100D60009DBBDCE52EADAD522BB5F56E375B57A7BD
:100D70007AA54AD575F777AA53FD2D95956E22A7CA
:100D8000574A312D5B12F23B9D4EA7D3E9743A5D71
:100D9000E752D2F7EEEF6E998B6E555D5557D555EC
:100DA0007555755557E52A1B557657AB52B5522EDA
:100DB0009B5C29AEA40AC92B1997524A2DE3AAAE0F
:100DC000CA555D5557D5557595CB46E59454CA29F6
:100DD000554AD5AE964A2AA7A492DB102EB3BBEB98
:100DE0009592E95C5D555DD555D5555D555DD555FB
:100DF000B98AF7A59250122B2FD09DDD2E95545213
:100E000049E59C73CE39E79C73CE39E79C5412D5E3
:100E1000B874DB60B8B4545249A5ED76BBDD6EB74B
:100E2000C386BC524925955452492595545249A52B
:100E300083DE922A24AF6490D05249E59C73CE3968
:100E4000A7A492DB102ED3E9743A9D4EA7D3E97480
:100E50003A9D4EA7B34B25A1242044414D4147451F
:100E6000210A00594F55204445414C0A00302F7546
:100E70004C4AF6AA3A55C9AE54BF2EE7D2E9743AA5
:100E80009D4EA7D30EBE4B6F9574D2A9729FD3BA55
:100E90005DED3A57C9DA75AE92B5EB5C956CBB5215
:100EA000F2569F52523A67B7DBED763B3C96DEAA8C
:100EB000B89297AAEEEEAAEA4A5D5DD555D5555D82
:100EC00095CBAFAEAA555557ADAAB2CAA5F2E95512
:100ED000EEB2CE5925153CB55552D9EDD6395BCB7E
:100EE0005B55FD555755575D555D555DD555B94A0F
:100EF0005D555775557555B9547CDAE7A5D2C16F64
:100F0000E9F476EB9CDFDA29ABAE2A577555E52A72
:100F10009FAD7C3EBFEF6429279D5476F82D1D7D43
:100F200074D145175D3A9D4E47978E16302F75F850
:100F30004AA7B74A2AA9A4924A2AA9A4924A2AA946
:100F4000243C97DE2AE99C54761D9E9554524925EF
:100F50009574CE6EB7DBED76782CBD55C159E9B4EA
:100F6000925249054F6D9554524925A5D2C153520D
:100F7000E9E0B7747ABB750E1E4A2BE99C5476F8EB
:100F80002D9D4EA7D3E9743A9D4EA7D3E9743A9D9F
:100F90004EA7A3050704080C0E0F0E0C08080FB887
:100FA000549D726F4F7D9DCA2904A5D3D103080FAC
:100FB0005C2E99CBAA4B3A6573C95C280A4D080F81
:100FC000BC54B9AFAF52AA7E771255A109080F746D
:100FD000AE56D22957EAAAAE5C25B7E9D007232737
:100FE00070E69C73DBAD5A56B25AB5BA64E52AA5D1
:100FF0004AA99295ADD5BD6A59C9724A6EB7CE3924
:10100000243276AE4FAD5CCAA55CAABE5556C96DFA
:101010007A9B4E6FD35B65D3F7A5EA944BA9953CB9
:10102000752E9D978ADE29A674AE5CCAA99CCAA9B2
:101030003A5547E45CBA929DEB5C25D3B5AB64EDC1
:10104000D2EEE4A99CCAA99CCAA5CAD58C6A9D9770
:10105000CA7EEAAAD5C9CAB5F3EAAAABAE4A49DD47
:10106000AEBEEABADCA5AA5EB5ABDCE5AE5D9D6BB3
:10107000ABAA5257FD957F77E53A59FDA9ED124588
:10108000E9ED76BBDD86F6F476BBDD6E43132327F0
:1010900070E69C73CE39E7D2E974684BA7D369E751
:1010A0009C73CE39E79008E54945EF14A4A7D6799B
:1010B000A9EC763B1AD3E9D0964E87C5ED7689A286
:1010C000F476BBDD6E437B7ABBDD6EB7A1092044AD
:1010D000414D4147452100594F552054414B450A48
:1010E000002527A0A17476BBDD6EA7CB6E97CA3909
:1010F000E59453CE29E5B6D95C7689C1EC5239E73F
:101100009453CE29A79C5372E5AEAE4BA9DAD5AE67
:1011100076B5BA579D4B2B2A395976F9A9FED47664
:1011200049B754CE29A7DC72A994534E39E794539A
:10113000CE29A73491D5E94A56B292954CA7D36DE2
:101140004BEF9473CBE5CE2919AD5452DD5239A73C
:101150009C53729B0E656E9B4C2E97CB9D534E39C4
:10116000A79C5372BB0DFA4AA7D3E9A0252527A057
:10117000A17476BBDD6EA7CB6E97CA3925B7E9D8C7
:10118000B34B0C6697CA39E794DC063F65B7DB259D
:10119000DD5239A7E448CB6E974AA7D3E9D09CDD4E
:1011A0003925A3954A2AA9A492CA3925B7E950E658
:1011B000B66129BB545239A7E4761BF4954EA7D3E8
:1011C000414B0A41545441434B5321000C11FF0140
:1011D000010161C1E171391901FFFF000686C1E01B
:1011E000E1C1800000FF01010101010101010101D4
:1011F000010120202020204152540A202020435960
:1012000052494C0A475549434841524400434F44D0
:10121000450A53494D4F4E0A484F4C4D4553002502
:101220003F2B59C94A56B29295AC64252B59C94AED
:1012300056B27297AAEAAE4AD5ABCE75AE94B397C2
:10124000BB5C252BD929E5AADC95AC64252B59C9B3
:101250004A56B29295AC70984DADAA53D5A95C3A56
:10126000DD29E5E35352EB9667C352361FBEF3CA3E
:10127000ABB295CF2A55A92E9B4EE73A95EE5CAFBF
:10128000DAD5ABD4CA65B339B572A131BDAD64E767
:1012900052A954EF2E9DCE66775CD952FEB25B65A3
:1012A00053A9CE75AE939D224CA7D3B94BF52AD541
:1012B000B94A6EA3742ADBEA56A52E3799EBFEFFD6
:1012C000AD3D9D54F64F7D4A524925D5FFBF748EE2
:1012D000CB39E794546CCEA952AB5EF52ECFE575B1
:1012E0005AAA2D916EBBD5443A9D6EBBB6443ADDE9
:1012F00076ABD3443A2D559A48A76F259554447C34
:101300009E898DC97AEFF9F8F8086D9E892D4D48B0
:10131000E7BDF7DE13B989B8AA5495AA4A7DB97317
:101320005DDDB92B59B2EAABACDDFEBFB6DB739D18
:10133000B6A73E9DB5DBB7CB9255B2DCD575EACBEF
:101340009DFAAAAA5255B20A03051F0E04713798D6
:10135000EDB673E98A301B6384A9543ABDFD2A7542
:101360002B55CED97564CA39E75CBC4A2AA9A49228
:101370004A2AA9A4B2DB5DED3AD7B9ED5649E79404
:101380008C31A99CB3736E9D732E5E259554524982
:10139000259554524965B7BB4E6DD3E952AA942A9C
:1013A000A54AA9747A9B4AF59FFA7F95FA94B2EB05
:1013B000ADDA6ED3E97425D3A954253BB5AE5432CA
:1013C0002A3BAE78436E9CCBA5724A6ED3B94E775A
:1013D000EE757CFC3A9DDD2AC79C558A72B973DB99
:1013E00028974AC79456D249B98E8F9F2BAD6AE28F
:1013F000A48C975FEDE4D44BA76CA44B34C51C714F
:10140000544BE594730A4F4A5DDB5BF52A9DDEFE83
:101410004AC9DB6D6BB7ADDDB6762FF3CBBC52BAE4
:1014200092D5AE64A5542D2BBB6BD7AB542A9DEA45
:1014300055AF7A554A9552A59454524925D5A9538A
:101440009FFA5CB7BADCE52E77B94BA7EEED36957F
:101450006A7557E9AC74EE569F7AA9A4924AAA52CB
:101460002AF5B94E7DAF4A29A952A9542A954AA511
:10147000A4924AAA52AA57A954AF4AA9524A2AA9E1
:10148000A44AA552A9542A954AA552A9D4A73E77A1
:10149000B94B6ED7975BC7C79F5652C9CB5DEE72EB
:1014A000955DE6B3D94A6E2BB9ADE4B6B2F96CD608
:1014B00029994E3B974A292727CAB6AC5C2DCB66A3
:1014C0002B9BAD6CCBCAD5B26CB6B22D9D2AE5E490
:1014D00025F7D9F85EA7535FD7CE65B7EB529F5576
:1014E000A72EA74AB95297AD6CB6CAD5B272F557B6
:1014F000ADFA2B9BAD6CCBCAD5B25AF557A953AEFA
:1015000056E554D96C65B395CD56365BD96C3E9B88
:10151000DD66B74B2595E354928E30954AA7939597
:10152000EB74ACD1C7EB9C5476BD5552492595DC84
:10153000C66BD769E9EC76BB644A27A999AD92CE10
:1015400039E9A45BC7C7C72B974A2AA796CAB9D956
:10155000795BDDEA56DBF97899964EE9CE2A2727A2
:10156000940A4721287CA5D25BB5B6DBE425B79564
:10157000AB4A39D7ABCE49259554F2724A4AE59C1D
:1015800054576DB74BE59CBA753A9D4E2BE99C5468
:1015900052D9ED76BBDD6EB7DBA592CA6EB7DBED37
:1015A00076BB54CE4965B7DBED76BBDD6EB7DBA508
:1015B000924A2AE79494CA6EB7DBED76BBDD6ED310
:1015C000E9743A9D4EA7D3E9746CD995545249E514
:1015D0009C2A2595549773CEB9CB29AB5C259D7376
:1015E0004EC94A2AB2747ABBDD6ED3E1DD6EEF9C40
:1015F0009393D9AD4E67974A39A54A2AAB54AA9519
:1016000095CEA9E510D14EAAEF558C767B5ABA5BE0
:10161000C764B777752E26BB3D95924E71D92D5371
:101620003A6DB7A7F35B79293B0C044E4F20494E26
:10163000560A534C4F5453210053504143450A4FCF
:1016400043435550494544210008081E1E1E3F7F54
:10165000DF15140808787878FCFEFBA828060754E4
:1016600076A99C93CAAE733C376A9BDCC62C553A6C
:101670009D4EA7D3E9743A9D4EA7D3924AAA743AD5
:101680009D4EA7D3E9743A9D4EA7259554E9743A27
:101690009D4EA7D3E9743A9D4E4BBC7AFE5CAA934B
:1016A000DB65A77261C87BCF9F4B7572BBEC542E74
:1016B0000C79EFF973A94E6E979DCA85218F57A5B6
:1016C000D3E974BADC95AC64BADC952C77BADC95B6
:1016D0005239AF52AA2A55F5E972A7CB9D2E77252C
:1016E000CB5DC972A74B5749ADCB5D95AAEB74B9D9
:1016F000D3E974B9AB52954C975255A5AAD19CCD5C
:1017000056F2D2E9E8D2E9E8A28B2EA96425D39556
:10171000AC6425D3954C57325DC97425D38A4CC926
:101720004A56325DC94A56325DC94A56325DC94A87
:101730005672DCAD4A2D9D72A55CE522CE2A1B3285
:101740003D8AF29DDC2E3B158EBCF728CA7772BB12
:10175000EC5438F288932AF7B52BA56A953BC99AC1
:101760005536545A9D4EA76B97AE64BA929DAB64A2
:10177000252B992E5D5AEB4A56B2929DAB64252BD0
:1017800099AE5D252B99AE64E9C2D525F3EB7D3684
:1017900068CAE99CD339C7E564A5E37232EBB89C0B
:1017A000CCCEE674CE71392EC775C94A2A5C014782
:1017B000415445204C4F434B530A424548494E44FF
:1017C00020594F55210020412053574F524400418A
:1017D00020534849454C440041205343524F4C4C00
:1017E00000485020504F54494F4E00534F4D452014
:1017F0004B455953001C1FA0A1EC32DBA94E75AA22
:10180000BBAA2FA5B2CAE16DBBCD479754AE539D7D
:10181000EA54F7F797AB55AD9C72CA29B90D7BD93D
:1018200074D6A97295CA669D5255EF3A9555D286DF
:10183000F6F576A9E4B0171C1FD0955D6E9797BB9F
:10184000D4E56E75B9CBDDEA9297BBE476BD0E8721
:101850006E26F7EEDD5995F22A2E4F94F53A4FA4F5
:10186000DFBD7B6FAD7378DA3AEB7EA5DE7DC9F222
:10187000B2F2447A4BA47355DA55A9AFDFAD94DBCD
:10188000B9B19A4E6FD7DBED76BB5D6EB7E9D00884
:101890001C1FA894BBD4ADAA52A554AF7A55A54A33
:1018A000A73BD7D55D9DEBCE7575E772DDB9552A9F
:1018B000955AAF1D7E957AC97795AC54552A95AA4D
:1018C00088FA5295AAFC2ABE5E9646A2DAAD64AAB0
:1018D000BEAAEBBBB2ABAAEC3A59A94F7DAE53BD41
:1018E000CEEE9CFAF47A3DBED6EBEDB272B5AC5CAE
:1018F0002D2B57CBCAD5B272B5AC5C2D2B57CBCAAA
:10190000D552C9E56C161FD094722A579DAB645707
:1019100057B2AB2BD9D595EC642EE57CB8722A5B17
:1019200036E5DCB7527539A7A492EA565249A75456
:10193000A95BBA4FB9722AEFF8A46F59B692954DC8
:10194000A7F3E95CA7D3D9743A5BC9B2655BA22E51
:101950009DCEA7D3E974369D0E6D191FD0944EC746
:10196000BAAC5CADE4AA5C6543B5F5DB65E75E75D2
:10197000B94B2A1B04E494D56B27B7E97456B9B365
:10198000EA7295DC56F256B5DBA69D2BE542623A2B
:101990009D0E1A02281FB0994E2A1F9AB2D9CA3931
:1019A000E59CAA95B4CA39E93A19517053BEB2D927
:1019B000CA5575555D75555DB94AE55291F5576D36
:1019C000A36B759DDA5E6E59D5DBA5D2D126D7E122
:1019D000A873D9757659B9BA5455D77DD5D57D55E3
:1019E0003B77B9DA39259D734E2A57AB5BC94FADAA
:1019F0007AD5EA56A59C734E2A574BA5EE571D443F
:101A00000B191FD018EBAE76BBF4AAE34BE7F3E952
:101A1000FC684BF575527557752957CA7EAEAAD426
:101A2000A5EA2AA5BACEF6BAD2D9F0B5DC56A49763
:101A30006A95FB4FE62EB74ABF53B952F155723D36
:101A4000DE9659E796526DA38B289D8C2EBD956E20
:101A5000AD647E14013D37505EBB522ABD5EAFD7E8
:101A6000D12795CB86BE7C5EE9E8B3CBE5729B2E91
:101A7000A56ADA753A342695734AC94B5DF5FD5D62
:101A80009D4A7575B5BAF5AE957556F96CFD95AB71
:101A9000CAD5AA56A5DC5EB95A3A75CAF99453EA72
:101AA00092CA5576B72CA74AB9CA557FD9CAE694C7
:101AB000723BF797EE9395EC5C2AD5F59DABAAAEF9
:101AC0005AA9765272A99CFB645557D55575E5BE47
:101AD0005257AEAA5359B5AA53952D75E918ABEADA
:101AE000B225D7BF924E9D5AA52EB922AA72BE4AE0
:101AF0005979A94B2D9593FF6D2B5BB6AAF2DBB9F3
:101B000072555795AB725655575557D5559DADAA39
:101B1000ABEAAA64485364F96CBEE64AD56E5BB979
:101B20005A564E31E52B9B4B55B5FAADBAD4A54A62
:101B30005DD5557555FBAABAAAEAAA5C39754ADD86
:101B4000CBD5A9CA65B3B96CE5AAAB6A55D95A55C4
:101B50005755442329EC67BBAA5CD55575555D558F
:101B6000AEEAAAEAAA65E5AB2A57E5A473F7AB5F2C
:101B7000FDA94A3A75C94FB5BAD4DF4BA77CD555F4
:101B8000C564B3CAA93A55CB6CE5AAEAAAAAABEADE
:101B9000AAEAAA5CC8CF56E5AABAAABAEAAA552EFA
:101BA000EFDCE752D239E966CB5736978A6A972D30
:101BB000A7B2E554B6948B2895CD562E6C45ABE470
:101BC000361D3416FAD3E9A0392A37A0A1743A9DFC
:101BD0008E329D4E2F95545249259D73CE49E7A4D0
:101BE00053F2B2CB6D884E2AA59472DB947297BBE8
:101BF0009554B7BA4AA9D64A2BAD7458DBB9DDCE95
:101C00008DF3AD72B7B2AB5EAD5AA956AAD5256BAE
:101C10007529E554ADBAB74BE5DC7A3B251F8695AF
:101C20009AAD2A55A5AAFAAACA5266ABA2CC2A77BF
:101C30003B65BBA2AE8AAF6C57A9AA5455AAAAA805
:101C4000F60A9F7BE9A36BF9365B745575553156DF
:101C500055F457156B5D45557A573A4DD7B2B1BC1F
:101C6000566E99DD9157D555C55A571563555D5533
:101C70008C5595AB50244BB961A1F4D6EEDCD6B9A6
:101C8000BC727625F3CAD995CC2FA55232AF9C549D
:101C90005B25950CCD322F60ACE0A4909C55368C22
:101CA0003A57BBCBD5CED9B5B2CECEBA734AED5CDE
:101CB000ED2E572BA9D2E978D3DB9017CEA5BB64C4
:101CC000259554B27297927C5BA7DA3AD5D6A9B61D
:101CD0004E116EB77129E7D4F776BD5656D96DD837
:101CE000CD2A1B86D24A76AE942AA5BA6C72B7AEBC
:101CF0006C55AE7295CDA67295AB5C25575D95BAC5
:101D00005C25B751B9B0975D87FCEC72B95CAE3A0F
:101D1000B55C2E97DB70955D2E97CB6D7AEBACC3DF
:101D200060D038323760266595ADA5724E55E59C7A
:101D300054AE56CA2918291D2CB595AEDCD5AB5624
:101D40004BD5EA5EB99DCB6EC7E16597CA29A79CC2
:101D500072CA29B90D5BC965A74AA96CB9CB9D2E7A
:101D60007739952EE53AA7944BBAE9AA5255AB6A52
:101D70007575E92B555D555F15D3D659679D5D5631
:101D8000AEBAAAAB72CA29B274E874FEDD654BFB29
:101D900034914E7B9D3CF98E2ABB92D97ED5C9DD0C
:101DA0002D979D7AB5561FFC964EA7D3116E97724C
:101DB00095750A9D5B59CA4A052F66E5AD9DB3DB53
:101DC000D8B7CAB999DCD062B6B2D9CA66439B7398
:101DD0005BE7F641523737D09CCD87C6EC76A75CDF
:101DE000A953B9CAC694CD070FE6F359E5946BBB66
:101DF0005535822AA91C9172D2F1E5F359E59C6A06
:101E0000BB558E5539E7AE9D2A752A57D9109B2DA3
:101E1000756A55D950573B3793BA9C2A9B52972ADB
:101E20005557AE7255B9CA56572D2B57CAD5555569
:101E3000AEAAEB5BC9B33955AEB24E3AA5D24959F9
:101E4000212A9BCDE7E3DF56D24965974A2E9D5460
:101E5000D2C9AA238AA85475AAABBAAA3A555D5525
:101E6000DD55ADAA52A552B54C7F4AC94E55A9526F
:101E7000AAEAAAAAEAAAAEEA5457AAABAA4E7FC512
:101E8000249554CA29A994726EBBCE86FEAD5644E1
:101E90004AE9B452CA274BA54A76AAEA56A9565926
:101EA00025D5A9D4A9AA5BA53A592A5572AD94D2D1
:101EB00069A59E2C05B96D9574AE942AE574A91494
:101EC000912BA2534CAE986E2A77BEAED67D975218
:101ED000A594734A0E3B46379B228B6EB6E8A21B35
:101EE000B602281F70E79CDB6EB7DBAD545239A7F2
:101EF000E4361DDAD2E9AD9252E9D09C6E9D4E07D0
:101F00007BA595545249259554D2B990356C36E24B
:101F1000743A9D4EA7A34FA7D3E9743ABDDD6EB7BF
:101F2000DBED76BBDD6EB7DBED76B6ED76BBDD6E59
:101F3000A305191FD0944E2AA9A4726E3B16D3E9AB
:101F4000AD924A3AA7B34B159494DE2A27B752496B
:101F500025B7C3425B2595E4B4E9743A9D4EA7D3F7
:101F600049259554524925954EA7D3E9743ABD2584
:101F7000043D37D095DD6E974AA232BD5552C96DEA
:101F8000E84E6F9554721B3A9554D239E79C93CA28
:101F90006E57721B083DBBDD4A65B7DBED3AC8776B
:101FA000E99C73CE3985BBEC522948388B48A9741B
:101FB000D062CE39E79C7376BBDD6E97CA39E79461
:101FC000DC86EEF476ABA473CE39E79C73DBED369A
:101FD000FA747AABA473CE39E79C73CE39A7E43692
:101FE0001DB4052A37D09BDD2E95545249259554B2
:101FF00052A5D3E958D3E9F0964E6FB74A2AA924DF
:10200000129592A13FADA4546C3B19CE766E1BF293
:1020100076CEC155E14C8D38990E1A4C2B892FE79D
:10202000E046DCA59DB3C3763B177A95740E5BA39F
:10203000339D4EA7D3E97452492595422A322FB0D9
:10204000BC5452492595545249DEB492844B25958F
:10205000545249259554524965B74B2595545249D8
:1020600065479DDC6EB7DBAD9278B2EB743A9D0E9E
:102070005FE9909B735249259554D22962E79C737E
:10208000CE39E7D3E9743A7E74A583D6D25B65B7BF
:102090004AEA741892DBED763BA5B2C36E2BA9A475
:1020A000DAA6D3D9A57252E12B9D4EA75B6EC36E03
:1020B00076A9D018DEF8B64A2AA9A4924A8EDD7411
:1020C0003A9D4EA7D3E9743A74A5D3E9743AFA74E9
:1020D0003A9D0ECD3237E0211D7F3A9D4E872DFC73
:1020E00066974A2AA9A4924A2AECEF9CC3B573CEFC
:1020F000D9E9B26FB7DB6DD8CA2E95738A4929B971
:102100004D074B66974A492515B2ECD05798B3DB7B
:10211000ED76BB0DEDE9ED5649259554524925ED77
:1021200076D43965A34D3B872F25A1BBAC1C655BDD
:10213000E7945472CCB9613BE7A4924A2AA9A492CD
:102140004A2AE794DCA6ED76BBDD6EB74B25A124C9
:102150003737B0B954CE39E79C73CE49652757CE8F
:1021600039B70D5DE9AD73CE4965475776BBDD6E76
:10217000D7E15F49E7A4C25FD0527AE4659748B3DC
:10218000A12BBDB5DB2DCC2895734A2AA9A4924A70
:102190003A27B593CA6EB7DBED76BB0E16DD39E78D
:1021A0009C5372AC3A0729AA6D3A6829BD754E2A2C
:1021B000BB4E074DA5B34BE5DC36E84E49259D7374
:1021C0004E2AA9A4924A2AE79C73CE39259D73CE44
:1021D00039E71CDC041B100058AC565656105656F6
:1021E0005646565656105656005656105656564691
:1021F00056560200020103030303230320032B03AB
:102200000B130B000B438B030B1308032B1B1056F4
:102210005646565656105656005656105656564660
:1022200056565610565656AC58002B0308130B033F
:102230008B430B002B132B032B03200323032303BC
:1022400023012200220502180000001805020018D0
:102250001818000908400D410D410D410D4009209D
:102260000080C060B018007EBF5701FA005EF00029
:10227000DF1F03000F003E0300F7E00254200400BC
:10228000040005030920BF7E0018B060C280001F53
:10229000DF00F05E00FA0157E0F700033E002F0078
:1022A000230305000400040004001720000080C080
:1022B000E0F000FC7E7F7F7F7F7F7F7F7F7F7F7F5F
:1022C0007F7F7FAEB0B73B83BDBEBE3FBFBFBFBF4A
:1022D000BFBF80BFBFBFBFBFBFBF06011D387BF7F9
:1022E0000FEFC0DFDFDFDFDFDF1FDFDFDFDFDFDF9D
:1022F000DF000800080008000B070F0F0F0F8F0FFB
:10230000800F8F0F8F0F8F0F17207F7F7F7F7F7F33
:102310007F7F7F7F7F7F7F7F7EFC00F0E0C0840037
:1023200000BFBFBFBFBFBFBF80BFBFBFBFBFBF3F3B
:10233000BEBEBD833BB7B0AEDFDFDFDFDFDFDF1F59
:10234000DFDFDFDFDFDFC0EF0FF77B385D01460F38
:102350008F0F8F0F8F0F800F8F0F0F0F0F070B0037
:1023600008000800080009080401F189C9E9F10121
:102370000409080401F1090949F101040F1000F5ED
:102380000101F50171557101F50101F5000023020C
:1023900022032202AB022203220223403D105656A2
:1023A00046565656105656005656105656564656CF
:1023B00056561056560056561056565646565656AF
:1023C00010565600565610565656465656561056E5
:1023D00056005656105656564656562B0308130BA3
:1023E000038B430B002B132B032B0320032303230B
:1023F000032300230323032303A80323032303232B
:102400004003030303230320032B032B132B000B95
:10241000438B030B1308032B0E37000000800008CA
:1024200080C8E070385C0E00E070B91C0E570301E4
:10243000EA0000FD0000EF00FA0000FF0000FF00CE
:1024400000FF0000EF00FF0000FFF84827FCFCFF42
:102450000000EF00FF0000F70704E80F0FFF000087
:1024600007001F0000FF0000FF0000FF0000000049
:102470000000000000000700003F00000E380D02C1
:102480005B3870E0C0802000220022400000FD0088
:1024900000EA0103570E1CB870E00000FF0000FFC7
:1024A0000000FF0000FA00EF0000FFFCFC2748F8E6
:1024B000FF0000FF00EF0000FF0F0FE80407F70028
:1024C00000FF00EF0000FF0000FF0000FF00001F02
:1024D0000007B040DF000007000002000200020019
:1024E0000F388800000080000880C8E0F0F8FCFE8B
:1024F00000C0E0F0F9FCFE00FFFFFF7F7FBFBF00E0
:10250000DFEFEF07F7FBFCFDFEFE00FFFFFF00EF34
:10251000EFEFE0EFEF0FEFEFEFE0EFEFEF00F7EFB0
:10252000EF1FDFBF007FFFFFFFFFFFFF0003070F6D
:10253000003F7FFFFFFEFE01FDFBFB0000000000EF
:10254000000000010307001F3F7F000F380DF2FB62
:10255000F8F0E0C0802000220022002200BFBF7FF0
:102560007FFFFFFF00FEFCF8F0E0C000FFFFFF0070
:10257000FEFEFDFCFBF707EFEFDF00EFEFEFE0EF14
:10258000EFEF0FEFEFE0EFEFEF00FFFFFFFFFFFFD9
:102590007F00BFDF1FEFEFF700FBFBFD01FEFEFF3B
:1025A000FF7F3F000F0703B04FDF1F00070301024B
:1025B00000020002000214180E00060200000000D3
:1025C00000000000008080808286000E0000000075
:1025D000000080008030B034B234B234B234000035
:1025E0000000100C1C0D0C0D0CAD0C0D0C0D1C0D79
:1025F0000C0D408014180E00E612C808E4047404A0
:1026000004F404E408C812E6000E0000FF00BD0058
:10261000F7007F0000FEF68282F6FE000000000058
:102620001F101710171017B0101610161016101EC6
:102630004080212000D606F6E606D606060606D617
:1026400006261606D606060606D606060606D6068A
:10265000E6F606D60000FF00BD8300FF00AEAC002A
:10266000FF0000F84C054CF80000FF00ACAE00FF86
:102670000083BD00FF0000FF00F77B00FF00460263
:1026800000FF00004F08E8084F0000FF008206002E
:10269000FF007BF700FF0000070606060607060698
:1026A0000606070606060657860686068706860677
:1026B000A6470606060607003D3810001000000079
:1026C0000020002200220022002200020002040258
:1026D0000002008000880080008000880008000858
:1026E00000080008000800880088000000800088BA
:1026F000008800881008001100110011000120005E
:102700002000200000002000200002000200001035
:102710000010001000100000000020002004200421
:10272000000400140014000000002000200000003D
:10273000200020000400000004000000100004003D
:102740000000000000000000010000000000040084
:10275000040000000000000000000000000000086D
:102760000000000000000000000000000000100059
:102770000400800080400040000080008000004095
:102780000040000080000040000000000000000049
:1027900000000000000000400000800000400040F9
:1027A0000000800080000040004080008000150292
:1027B000048A0400452005001408140014021000C7
:1027C000110011001100110011001100550011003D
:1027D0001100112001000100110010021400140862
:1027E000140005204500048A040215002001200081
:1027F0002000200020000000000002000200020073
:102800000200020002000200025522002200220003
:1028100022012A10820002000200000000002000B5
:102820002000200020012000000000000000000225
:102830000002000200020002402204020002000224
:102840000002000200020100000000000000000081
:1028500000000108108000000000000000000000DF
:1028600000000000000A000C11FF0101FDFD0D0D2C
:10287000FDFD0101FFFF00008FCFE0E0CF8F0000E2
:10288000FF010101010101010101010101FF01013C
:10289000FDFDCDCDCD0D0101FFFF00008FCFECEC94
:1028A000CC8C0000FF0101010101010101010101C6
:1028B00001FF0101FDFDCDCDCDCD0101FFFF0000E8
:1028C0008CCCECECCF8F0000FF0101010101010174
:1028D0000101010101FF0101FDFD81C1FDFD0101BA
:1028E000FFFF00008FCFE7E3CF8F0000FF01010162
:1028F000010101010101010101594F5520464F55C8
:102900004E440008080AF403808003F40A10100201
:10291000050A050201080000080102050A0502AACD
:10292000550A000000000000000000000A55AA3F00
:1029300020007F7F7F7F7F7F7F7F7F7F7F7F7F7F85
:10294000007F7F7F7F7F7F7F7F7F7F7F7F7F7F7F16
:10295000007F7F7F7F7F7F7F7F7F7F7F7F7F7F7F06
:10296000007F7F7F7F7F7F7F7F7F7F7F7F7F7F0075
:1029700000BFBFBFBFBFBFBF80BFBFBFBFBFBF0024
:10298000BFBFBFBFBFBFBF80BFBFBFBFBFBFBF3F16
:10299000BFBFBFBFBFBFBFBF80BFBFBFBFBFBF0045
:1029A000BFBFBFBFBFBFBF80BFBFBFBFBFBF0000F4
:1029B000DFDFDFDFDFDFDF1FDFDFDFDFDFDF00DFC6
:1029C000DFDFDFDFDFDF1FDFDFDFDFDFDFDFC0DFF6
:1029D000DFDFDFDFDFDFDF1FDFDFDFDFDFDF00DFA6
:1029E000DFDFDFDFDFDF1FDFDFDFDFDFDF00000F45
:1029F0000F0F0F0F0F0F000F0F0F0F0F0F000F0F05
:102A00000F0F0F0F0F000F0F0F0F0F0F0F5F8F0F15
:102A10008F0F8F0F8F0FA04F0F0F0F0F0F000F0F84
:102A20000F0F0F0F0F000F0F0F0F0F0F0039278918
:102A3000CE55729B4EA7D3E9743A9D4EA7D3E97445
:102A40003A9D4EA7D3E9747A5BC9CE11E9743A9DD9
:102A50004EA7D3E9743A9D4EA7D3E9743A9DB62A9E
:102A600095EB64F5AF5254F09C87CFF8E0390F9F97
:102A7000F1C1731E3E63739DACEC3A9D4EA7D3E942
:102A8000743A9D4EA7D3E9743A9D4EA7D3E9ECB2B0
:102A900072DD56A7D3E9743A9D4EA7D3E9743A9DE7
:102AA0004EA7D3E9743A9D4EA7DB0E0808B0B0AC30
:102AB000944B27D0CF0808CFD0274B94ACB0B008A8
:102AC000080D0D3529D2E40BF30808F30BE4D229E5
:102AD000350D0D200003071F051F1F151B1F1111AA
:102AE0001F110E1F15111F05011F111D1F041F00AF
:102AF0001F0010101F1F041B1F10101F061F1F0197
:102B00001F1F111F1F05071F311F1F051B17151D35
:102B1000011F011F101F0F100F1F0C1F1B041B078D
:102B20001C071915131F111F001F001D1517111564
:102B30001F07041F17151D1F151D01011F1F151F3E
:102B400017151F0017000020000102040810204084
:102B500080080B00020202010009040000010202C9
:102B600000000524001001052401010104240206CF
:102B70000524060001070581031000400904010037
:102B8000020A000000070502024000000705830258
:102B90004000000403090412010002EF0201404159
:102BA00023368000010102030141726475696E6F72
:102BB000204C4C430041726475626F792044657605
:102BC0004B6974000A58502020000A444620200017
:102BD0000A41502020004850202000040409060625
:102BE0000904040609090600063311241FBECFEFAD
:102BF000DAE0DEBFCDBF12E0A0E0B1E0E4EBF8E642
:102C000002C005900D92AC32B107D9F728E0ACE2D2
:102C1000B2E001C01D92A633B207E1F715E1C5EF9E
:102C2000D5E104C02197FE010E944D34C43FD10775
:102C3000C9F70E94C6280C9458340C940000CF9316
:102C4000DF931F92CDB7DEB76983DC01ED91FC9174
:102C50000280F381E02D41E050E0BE016F5F7F4FC5
:102C600009950F90DF91CF91089583E08093E9005B
:102C70008091F200882319F08AE38093E800089598
:102C80002F923F924F925F926F927F928F929F927C
:102C9000AF92BF92CF92DF92EF92FF920F931F936A
:102CA000CF93DF93CDB7DEB728970FB6F894DEBF8A
:102CB0000FBECDBF00914B060F8310914C061887B5
:102CC00080914D06813041F000F1823009F443C01B
:102CD000833009F45CC082C0EE24EA94512C01E0F8
:102CE000712CD12C3FEF3A836624639472E0472E17
:102CF00011E031E0398330E099249A94E2E03E2EED
:102D0000F3E0AF2EA2E02A2E3DC00885802F90E090
:102D1000BB24B394833091050CF4B12C88248394A4
:102D200002970CF4812CE12C5524539400E0772475
:102D30007A945EEFD52E1FEF1A8366246394412C9C
:102D40003EEF39833DEF6EEF962E33243394A12C62
:102D500022242A9454C0E12C55245A9400E077246C
:102D6000739422E0D22E11E01A8366246A94412CD7
:102D700032E0398333E042E0942E33243A94A12C9C
:102D80002224239488248394BB24B39438C00F81D5
:102D9000802F90E0BB24B394833091050CF4B12CC8
:102DA0008824839402970CF4812CEE24E394512C14
:102DB0000FEF712CD12C11E01A8366246A94AEEFC8
:102DC0004A2E1FEF3FEF398330E099249394BEEFF2
:102DD0003B2E8DEFA82E9EEF292E11C0E12C512CF9
:102DE00000E0712CD12C1A82612C412C10E0198248
:102DF00030E0912C312CA12C212C812CB12C3E8344
:102E00000E94CF2221E04DE25AE264E070E082E4C9
:102E100090E00E94002148EB56E264E070E084E01C
:102E200090E00E94081E3E81BB2009F44CC06885DA
:102E3000630F40E08F818A0D0E940327882309F4E5
:102E400042C08456843070F490E0FC01E753FE4F9A
:102E50003081FC01EB53FE4FF080FC01EF53FE4F3D
:102E6000C08003C0C12CF12C30E0F4E0AF2EB12CB7
:102E70004A2D41704B831C824B815C81415E5F4FC8
:102E800021E0B50189EC97E03E830E9439225FEF93
:102E9000A51AB50A3E8161E4A616B10449F71316D6
:102EA00094F4E32FEE0FFF0BE353FE4F408151816B
:102EB0006C2DCC0C770B6C5F7F4F8F2DFF0C990B1B
:102EC00003960E94081E811002C0D12C5CC0688548
:102ED000690D40E08F81820D0E940327882341F015
:102EE0004DE052E26BE170E084E090E00E94081E49
:102EF00069813885630F40E08F81830D0E9403272D
:102F0000882341F045ED51E26BE170E086E290E00C
:102F10000E94081E68856D0D40E08F81840D0E941F
:102F20000327882391F28456843008F0CAC1282FE1
:102F300030E0F901E354FE4FD080F901E754FE4F31
:102F4000C080F901EB54FE4FB0804CE953E26BE1D5
:102F500070E084E090E00E94081E1D1494F4ED2DB2
:102F6000EE0FFF0BE353FE4F408151816B2DBB0CE5
:102F7000770B6C5F7F4F8C2DCC0C990B03960E94C6
:102F8000081EDD24D3946A813885630F40E08F8169
:102F9000810F0E940327813039F448E053E262E157
:102FA00070E084E090E00AC0843611F0873641F486
:102FB00044E852E263E170E082E190E00E94081E82
:102FC0006885610F40E08F81860D0E940327813064
:102FD00029F44AEA52E262E170E008C0843611F056
:102FE000873641F44EE552E263E170E08AE290E018
:102FF0000E94081E40E06885670D8F81800F0E9447
:103000000327FF24F394811102C0F12C40C08536C0
:1030100099F028F4813041F0843651F015C086369D
:1030200079F0873629F010C02EE030E011E00FC0B3
:103030002EE03FE012E00BC025E136E113E007C0CF
:1030400025E136E114E003C020E030E01FEF4FE25D
:1030500059E262E170E083E090E02D833E830E94BC
:10306000081E2D813E811F3F91F0E12FEE0FFF0BD7
:10307000E353FE4F40815181622F220F770B6C5F2B
:103080007F4F832F330F990B03960E94081E68858C
:103090006E0D40E08F81870D0E940327813019F467
:1030A0004BE455E206C0843611F0873641F44CE714
:1030B00054E264E070E083E090E00E94081E6885BE
:1030C000600F40E08F81850D0E940327813039F425
:1030D00040EE54E264E070E083E390E00AC084369E
:1030E00011F0873641F448E154E264E070E084E393
:1030F00090E00E94081E80914D06F11058C020E01B
:1031000030E0E82FF0E0DF01A355BE4F0F81602FC4
:1031100070E0AF014F545E4F4A015885052F10E013
:10312000A9014558594FFA01E080C180968197FF67
:1031300019C09C91F12CF4015081550F5B01A50E33
:10314000B11C57FDBA94EA14FB0461F44C2D50E015
:10315000990F7801E90EF11C97FDFA944E155F0561
:1031600009F4B3C0295F3F4F223D3105C9F6D110A4
:103170001EC040E050E090E0DC01A355BE4F0F813F
:10318000602F70E09C012F543E4F69013885032F5A
:1031900010E09A012558394FF901E080818196812C
:1031A00097FD9AC0495F5F4F423D510591F7A1E8F5
:1031B000B6E0E7E68E2EE7E09E2EF12C0F81202F61
:1031C00030E01885412F50E0FD013697608131963F
:1031D000F081EC91E7FF24C080914B0690E08C01D8
:1031E000061B1109B80180914C0690E08F1B9109D4
:1031F00051F417FF04C000271127061B170B0130DD
:10320000110571F4FEC0012B59F48C0197FF04C025
:1032100000271127081B190B0130110509F4F5C00F
:1032200080914A02843011F0873049F5F4013297D9
:1032300000813196E080F401B080B7FE20C080911B
:103240004D0690E0BC0163557E4FFB01708110E09C
:103250008F549E4FFC018081F901E80FF11D87FD1D
:10326000FA950E171F0759F48E2D90E08A01070F6B
:10327000111D77FD1A958017910709F454C0F39436
:10328000179613E0810E911C6EE1F6129DCF2896E1
:103290000FB6F894DEBF0FBECDBFDF91CF911F9167
:1032A0000F91FF90EF90DF90CF90BF90AF909F90E5
:1032B0008F907F906F905F904F903F902F900C94E5
:1032C0008627B12CC12CD12C40CE4DE059E269E1CA
:1032D00070E08BE190E024C09C91F12CF6012081FC
:1032E000322F330F230FFB01E20FF11D27FDFA955B
:1032F000EE16FF0609F056CF282F30E0892F880FF1
:10330000980FF801E90FF11D97FDFA952E173F0769
:1033100009F048CF43E059E26CE170E08EE190E0C3
:103320000E94081E44CF4B2D4F77B42E51E0451715
:1033300061F08DEF8B0D833018F462E1D62E07C05B
:1033400043E1D42E57E1E52E04C034E1D32E24E12D
:10335000E22E0EE010E020E04BE26BE070E0C801EE
:103360000E94BD1B0F5F1F4F07331105A1F70FE030
:1033700010E021E049E26CE070E0C8010E94BD1B52
:103380000F5F1F4F06331105A1F7EB2DF0E0EE0F95
:10339000FF1FEB57FE4F408151816D2D70E020E003
:1033A0008E2D90E00E9400211092C60711E110932B
:1033B000C4071093C3078CE08093C50789EF98E298
:1033C0000E94F91EEFEFEB0DE53090F4F0E0EE0F08
:1033D000FF1FE558FE4F80819181009749F01093BF
:1033E000C4071093C3072EE22093C5070E94F91E5D
:1033F00081E08093C60787E080934A02F0923C0206
:1034000046CF6115710509F056C0672B11F081E0B8
:1034100009C0181619061CF410924D0605C0892B18
:1034200019F082E080934D06EF73E13069F0E230ED
:1034300071F0E33079F0E43081F0E53089F0E63086
:1034400091F486E10DE011C085E00BE00EC08AE04A
:1034500008E00BC083E000E108C085E003E005C0A0
:1034600080E107E102C085E006E02E2F30E0C82EA3
:10347000D12C10E05901AA0CBB1CF501E156FE4FFE
:103480004081518120E0B601C8010E940021F50170
:10349000EF56FE4F4081518121E0B601C8010E94E4
:1034A000002180914A02843019F489E080934A0215
:1034B000F0923D02ECCE161617060CF0A6CF83E074
:1034C000B1CF20914D0647E658E26BE270E082E40E
:1034D00090E00C944C20EFEBF7E080E5858384834B
:1034E0008CE286838DE596E00E941A1F85E698E2BD
:1034F0000E94F91E89E696E00C941A1FEF92FF9243
:103500000F931F93CF93DF937C01EB018A0140E07F
:10351000602F8C2F0E940327882361F0E114F104AF
:1035200009F44DC040E0602F8C2F0E94032786369F
:1035300009F045C08091750690917606FC0132969F
:10354000AC01465E5F4FDF0112972C9111968C9172
:10355000908197FF0CC09F779456923040F430E0F2
:103560002C173D0721F490E08017910741F1339625
:10357000E417F50741F780E090E0FC01E558F94FCA
:1035800040812181368137FF08C050E04C175D072C
:1035900021F430E02017310791F00796823D910524
:1035A00061F7E114F10469F0F701808190E08C1774
:1035B0009D0739F4818190E08017910711F480E034
:1035C00001C081E0DF91CF911F910F91FF90EF90AB
:1035D0000895FC0180913B02811103C08FEF9FEFA2
:1035E00008959FB7F89482E08093E9002091F2005B
:1035F00030E01216130614F421E030E021153105F5
:1036000059F0289884E680933A028091F1008083F3
:103610008091F200882319F09FBFC90108958BE6BD
:103620008093E800F9CF2FB7F89483E08093E90006
:103630009091E800892F807295FF04C09091F2006C
:1036400080E4891B2FBF08958F929F92AF92BF9203
:10365000CF92DF92EF92FF920F931F93CF93DF935E
:103660005C016B017A0180913001882309F45BC011
:1036700080913B02882309F456C08091390280FF73
:1036800005C08091E00082608093E000E70110E0D7
:103690000AEF83E0882E9AE3992E2097D9F10E94B1
:1036A000131B81110AC0015009F43DC061E070E0B4
:1036B00080E090E00E94C81FF0CF282F30E0C217B2
:1036C000D3070CF48C2F4FB7F8948092E9009091B7
:1036D000E80095FF1DC0282F30E0C21BD30BF60178
:1036E000982F915020F081918093F100FACFC20E73
:1036F000D31E112319F09092E80009C08091E800D0
:1037000085FD06C09092E80011E0209709F010E0D6
:103710004FBFC3CF1111C3CF5D9884E680933802A9
:103720001E141F0444F081E090E0F501938382832E
:1037300080E090E001C0C701DF91CF911F910F9110
:10374000FF90EF90DF90CF90BF90AF909F908F90C1
:1037500008958091420281110DC082E080933E0263
:1037600084E080933F02109241021092400281E077
:10377000809342028EE392E00895DF92EF92FF92EF
:103780000F931F93CF93DF937C01D22E8B01040FF5
:10379000111DEB0177FF0EC0C0E0D0E00BC0C417D5
:1037A000D5077CF42D2DAE01B70189EC97E00E947E
:1037B00039222196A801013411058CF340E450E030
:1037C000EECFDF91CF911F910F91FF90EF90DF909F
:1037D00008954F925F926F927F928F929F92AF92D5
:1037E000BF92CF92DF92EF92FF920F931F93CF93EE
:1037F000DF9300D000D0CDB7DEB7DC014115510515
:1038000009F4F1C1FA0114913196F4914E5F5F4FC2
:10381000E12EF12C222309F18F2F8695869586952E
:10382000C82ED12C81E090E03F2F377011F480E05A
:1038300090E08C0D9D1DE89E6001E99ED00CF89EE5
:10384000D00C1124033011F4CC0CDD1C2C9DC001D4
:103850002D9D900D1124480F591F0F3F09F402E0D0
:10386000CD018E0D9F1D181619060CF0BCC1A03895
:10387000B1050CF0B8C19B012F0F311D12161306B4
:103880000CF0B1C1603471050CF0ADC141155105AA
:1038900009F4A9C19B0177FF04C022273327261B07
:1038A000370B322F37706B0177FF03C027E0C20E52
:1038B000D11C23E0D594C7942A95E1F72C2D77FFEE
:1038C00007C0332329F02FEF2C0D68E0631B362F40
:1038D000B7FF05C0CC24DD24CA1ADB0A02C0C12C04
:1038E000D12C8038910524F080E8982E9A1A01C0D6
:1038F000912E9C18622F022E000C770B2F3F1CF488
:10390000B62EB09401C0B12C91E08F2F877009F4CE
:1039100090E0F695F695F6959F0F690F711D693049
:10392000710514F098E0921B792F7B192B0DCD01B6
:1039300060E82603800D911D11248C0D9D1DD6017C
:10394000B19EA00DB11D11244A0F5B1FE1E0F0E014
:103950006F01032E02C0CC0CDD1C0A94E2F7033089
:1039600009F4FDC0A0F4013009F4AFC0023009F041
:103970003AC16FEF6C9D80016D9D100D1124009573
:1039800010951C830B837C80672E620E28C00A3F33
:1039900031F00B3F09F027C1B72EB20E82C0B72E0F
:1039A000B20E4DC0FA01E60FF71FE491EC9D5001F5
:1039B000ED9DB00C1124BA82A98227FD04C0EC91C0
:1039C000E023AE2AAC92311113C06F5F7F4F119686
:1039D000691540F32F5F4E0D5F1D80589F4F2615D0
:1039E00009F401C1DC01A55BBD4F60E070E0F0CFE0
:1039F00027305CF7FD01E058FF4FB080B720AA8068
:103A0000BA28B082E2CFFA01E60FF71FE491EC9DED
:103A10008001ED9D100D11241A83098327FD03C039
:103A2000EC910E2B0C93311113C06F5F7F4F1196E9
:103A3000691548F32F5F4E0D5F1D80589F4F2B1562
:103A400009F4D1C0DC01A55BBD4F60E070E0F0CFB0
:103A500027305CF78D0100581F4FF801A080FA81D4
:103A6000AF2AF801A082E1CFFA01E00FF11FE49143
:103A7000EC9DB001ED9D700D11247A83698327FDC3
:103A800004C060957C9167236C93311113C00F5F64
:103A90001F4F1196091540F32F5F4E0D5F1D805883
:103AA0009F4F2B1509F49FC0DC01A55BBD4F00E0C3
:103AB00010E0F0CF27305CF7FD01E058FF4F6A813E
:103AC0006095708167236083E2CF772E720EBD010F
:103AD000641B750B271509F486C0FC01E55BFD4FDF
:103AE0005F0100E010E00915A0F5F801E60FF71FEF
:103AF000E40FF51FE491EC9DD001ED9DB00D112474
:103B0000A095B095BC83AB83FA01E00FF11FE4915F
:103B1000EC9D2001ED9D500C11245A82498227FD15
:103B200005C0F501B081AB234A2A4082332359F006
:103B300027304CF4F501E058FF4FB081AC81AB2346
:103B4000BA81AB2BA0830F5F1F4FFFEFAF1ABF0AE5
:103B5000CACF2F5F4E0D5F1D80589F4FBBCF692C82
:103B6000712CFA01EA0FFB1FDC01A55BBD4F8C0134
:103B700005531D4F80E890E05C01A618B708E618D1
:103B8000F708EE0CFF1C972F792C872ECF93DF932D
:103B9000E80165914591332359F06C9DB0014C9D2E
:103BA000A00127302CF4D8805095D522D72AD9925D
:103BB00022233AF0DC904095D422D62ADD920C9450
:103BC000E21D11969A9429F79A9551F0972C239516
:103BD0001124EE0DF11DAA0DB11DCA0DD11DD9CFB5
:103BE000DF91CF9111240F900F900F900F90DF91E4
:103BF000CF911F910F91FF90EF90DF90CF90BF90EA
:103C0000AF909F908F907F906F905F904F900895AE
:103C10000F9302E020E00E94E91B0F91089580912C
:103C2000520681110AC080915306809352068091FA
:103C300054068093530610925406809153068111C6
:103C400006C080915406809353061092540608953E
:103C500065E070E080E090E00C94C81F0F931F9324
:103C6000CF93DF93EC014BE050E0BC018DE596E093
:103C70000E94D533BE01655F7F4F4BE050E089E67F
:103C800096E00E94D533FE017696E491E0934B06D0
:103C9000FE017796E491E0934C06FE017896E4915C
:103CA000E0934D06FE017996E491E0935B06FE01F8
:103CB0007A96E491E0935C06FE017B967491A1E80C
:103CC000B6E04CE160E02C912F77671710F080E0B0
:103CD00001C080E8282B2C9327FF5CC0FE01E40F75
:103CE000F11D9491207C292B81E0840FFE01E80FC7
:103CF000F11D84918D0106501109F801808382E045
:103D0000840FFE01E80FF11D4D5F84910F5F1F4F7F
:103D1000F8018083992389F09130A1F09230B9F0B5
:103D20009330D1F080E09430E1F09530F1F09630AE
:103D300001F536E053E095E01FC081E034E15AE040
:103D40009FE01AC080E03AE055E09AE015C081E0BB
:103D500038E055E098E010C081E03CE056E09CE09F
:103D60000BC032E35CE099E107C033E052E094E03D
:103D700003C030E050E090E0FD013497908331962D
:103D8000908331965083319630832F7B811180E46C
:103D9000282B2C936F5F17966E3109F094CF2EE18C
:103DA00065E677E0CE010E94652228E0482F6DE4A9
:103DB00077E0CE010E946522D0937806C093770603
:103DC0002DE437E0309376062093750690E0A0E06E
:103DD000B0E08093570690935806A0935906B0938D
:103DE0005A0684E080934A02DF91CF911F910F9190
:103DF00008950F931F93CF93DF938C01C0E0D0E021
:103E0000F801EC0FFD1F6491662371F0E091BF078C
:103E1000F091C0070190F081E02D8FEB97E00995BC
:103E2000892B11F02196ECCFCE01DF91CF911F911C
:103E30000F910895009769F0FC0101900020E9F7C7
:103E40003197AF01481B590BBC018FEB97E00C94E5
:103E50002C1F80E090E00895CF92DF92EF92FF92C6
:103E60000F931F93CF93DF936C017A018B01C0E016
:103E7000D0E0CE15DF0589F0D8016D918D01D60116
:103E8000ED91FC910190F081E02DC6010995892BFF
:103E900011F47E0102C02196ECCFC701DF91CF91D2
:103EA0001F910F91FF90EF90DF90CF9008951F9397
:103EB000CF93DF93DC0120E030E040E050E011E000
:103EC000C1E0D0E02617370791F114968C91149732
:103ED000811115C014961C93149712968D919C9184
:103EE0001397ED91FC911197E80FF91FE491159646
:103EF000EC931597019613969C938E9312971496B4
:103F00009C91149715968C911597892349F0FE0181
:103F1000022E02C0EE0FFF1F0A94E2F74E2B5F2B1A
:103F2000990F14969C9314972F5F3F4FCBCFCA01E4
:103F3000DF91CF911F9108950895089580E090E05A
:103F400008950E9453343FB7F89480912C089091C3
:103F50002D08A0912E08B0912F0826B5A89B05C06A
:103F60002F3F19F00196A11DB11D3FBFBA2FA92FF8
:103F7000982F8827820F911DA11DB11DBC01CD0175
:103F800042E0660F771F881F991F4A95D1F7089561
:103F90008F929F92AF92BF92CF92DF92EF92FF9259
:103FA0006B017C010E94A31F4B015C01C114D10471
:103FB000E104F104F1F00E94A31FDC01CB01881998
:103FC0009909AA09BB09883E9340A105B10570F380
:103FD00021E0C21AD108E108F10888EE880E83E0DA
:103FE000981EA11CB11CC114D104E104F10419F7FD
:103FF000DDCFFF90EF90DF90CF90BF90AF909F907C
:104000008F9008951F920F920FB60F9211242F9345
:104010003F938F939F93AF93BF9380912C02909186
:104020002D02A0912E02B0912F0230912B0823E097
:10403000230F2D3720F40196A11DB11D05C026E8E0
:10404000230F0296A11DB11D20932B0880932C02F3
:1040500090932D02A0932E02B0932F0280912C08F2
:1040600090912D08A0912E08B0912F080196A11DC6
:10407000B11D80932C0890932D08A0932E08B09327
:104080002F08BF91AF919F918F913F912F910F90EA
:104090000FBE0F901F9018950F930AEF0E94E91B17
:1040A0000F9108950F93CF93DF93FC0196816A30AF
:1040B00031F4858184836185960F96832FC0262FE6
:1040C000EF01848161E0690F2A3344F4203354F412
:1040D000213251F02E32B1F425E207C021542A31A9
:1040E00020F010C0265101C024E23F81062E000CB2
:1040F000770B082E000C990B313051F445ED5AE244
:104100000E944C2088858D5F9C81890F8C8306C01E
:104110000BEF45ED5AE20E94E91BF4CF81E090E0FD
:10412000DF91CF910F91089583B126B19FB130E017
:104130002095309520743327A90124E055954795A3
:104140002A95E1F7292F30E020953095207C332700
:1041500056E0359527955A95E1F7242B8095807781
:10416000822B089583B7817F83BF83B7816083BF2C
:10417000889583B78E7F83BF0895FC01840F911DBE
:1041800018161906E4F5E038F105CCF5F7FF02C082
:10419000E0E0F0E08138910514F080E890E0382FFD
:1041A0003E1BAB0177FF02C0495F5F4F83E055952F
:1041B00047958A95E1F75695542F4427579547958B
:1041C000E40FF51FE55BFD4F6770772781E090E016
:1041D00001C0880F6A95EAF7482F222349F0213061
:1041E00071F4315020F08081842B8193FACF0895AF
:1041F0008095315020F0908198239193FACF0895C3
:104200002F923F924F925F926F927F928F929F92E6
:10421000AF92BF92CF92DF92EF92FF920F931F93D4
:10422000CF93DF93CDB7DEB72C970FB6F894DEBFF0
:104230000FBECDBF4C016B01022F5A8349831C82F4
:104240001B821D821E8268E070E0CE0101960E94F2
:10425000571F019698878F8368E070E0CE01019622
:104260000E94571F7C0161E070E0CE0101960E9420
:10427000571F782E8F819885880D991D97FDE0C076
:1042800020E8821691040CF0DBC097012F5F3F4FAE
:10429000C601820F931F97FDD3C040E4C416D1041A
:1042A0000CF0CEC07601D7FE04C0EE24FF24EC183B
:1042B000FD0857E0E522FF24A601D7FE02C0495FB2
:1042C0005F4F2A0163E0559447946A95E1F7D7FE62
:1042D00009C081E0481A510888E090E0AC014E190D
:1042E0005F097A01190137FF03C057E0250E311C21
:1042F00053E0359427945A95E1F727703327232B01
:1043000019F08FEF281A380A6624639410E0C12C44
:10431000D12CA12CB12C88E090E09C012E193F09F2
:104320003A872987A214B3040CF08AC021E030E058
:1043300061E070E0CE0101962B873C870E94571FF9
:104340002B853C85892B19F42E5F3F4FF1CFB901A6
:10435000CE0101960E94571FDC01119620E030E04B
:104360002A173B0708F065C071101629660C09F082
:104370005DC0B2016A0D7B1DCB010196099708F063
:1043800041C0C601880D991D80389105D8F5CB0133
:104390009695982F882797958795880D991D8C0D50
:1043A0009D1D6F3F4FEF740709F446C0412F0E2C3F
:1043B00001C0440F0A94EAF7FC01E55BFD4F0023BE
:1043C00019F05081452B03C040955081452340830F
:1043D000E114F104B9F067307105A1F0412F50E00C
:1043E000098402C0559547950A94E2F7FC01E5530C
:1043F000FD4F002319F01081412B03C0409510811F
:10440000412340835FEFC51AD50A4F815885C416F2
:10441000D5064CF05FEFA51AB50A6624639410E048
:10442000C12CD12C03C06624639410E02F5F3F4F52
:1044300097CF81E0782676CFE114F10479F6E2CFC8
:104440002C960FB6F894DEBF0FBECDBFDF91CF9193
:104450001F910F91FF90EF90DF90CF90BF90AF90A2
:104460009F908F907F906F905F904F903F902F9094
:10447000089560387105D0F440345105B8F4E9E48A
:10448000FBE280E1849FD001A0781124A60F477041
:10449000E40FF11D8491A55BBD4F222319F06C91AF
:1044A000862B03C080956C9186238C930895CF93BF
:1044B000C62F0E94F91ECA3020F483ED9AE20E94B2
:1044C000F91E8C2FCF910C94C526CF93DF93EC016E
:1044D00081E0840FFE01E40FF11D4491DB0112968F
:1044E00030E0321729F19C919F779C933417E8F4C0
:1044F000FE01E80FF11D949151E0580FFE01E50F08
:10450000F11D5491BD0162507109FB01508352E0CD
:10451000580FFE01E50FF11D8D5F54916F5F7F4FC6
:10452000FB015083E92FE068EC933F5F1396D9CFEE
:10453000DF91CF910895CF93DF93CBE4D6E084E170
:104540008B8382E08C838D831F820E940F1E1886CE
:104550000E940F1E19860E940F1E84E08A870E9407
:104560000F1E85E08B870E940F1E81E0809328013B
:1045700010923002DF91CF91089527E0829FC00111
:104580001124FC01E558F94F8281681718F4861B45
:1045900082830895128286818F778683089549ECFD
:1045A0005AE260E070E080E090E00E94081E4FEB6D
:1045B0005AE260E070E088E790E00E94081E45EB58
:1045C0005AE268E370E080E090E00E94081E4BEA47
:1045D0005AE268E370E088E790E00E94081E21E05C
:1045E00040E760E070E088E090E00E94BD2021E0BC
:1045F00040E762E070E088E090E00E94BD2021E0AA
:1046000040E76DE370E088E090E00E94BD2021E08B
:1046100040E76FE370E088E090E00E94BD2021E079
:1046200040E368E070E080E090E00E94BD1B21E084
:1046300040E368E070E082E090E00E94BD1B21E072
:1046400040E368E070E08DE790E00E94BD1B21E050
:1046500040E368E070E08FE790E00C94BD1BFC0144
:104660008485958597FD0BC09FB7F89482E0809371
:10467000E9008091F2009FBF90E0019608959FB7F6
:10468000F89482E08093E9008091F2009FBF90E06F
:1046900008954091340850913508209132083091A6
:1046A000330842175307B4F49091E8009570E1F392
:1046B0009091E80092FD19C08093F1008091340838
:1046C0009091350801968F739927892B19F48EEFF5
:1046D0008093E8008091340890913508019690937A
:1046E00035088093340881E0089580E00895DF92D2
:1046F000EF92FF920F931F93CF93DF93D82E8A01EF
:104700007B01E40EF51EEB01CE15DF0571F0D7FE3F
:1047100003C0FE01849101C088810E944923219633
:104720008111F2CF8FEF9FEF01C0C801DF91CF91D0
:104730001F910F91FF90EF90DF900895615030F03E
:104740002091F100FC0120830196F8CF289884E69F
:1047500080933A0208950E94131B90E00895CF932E
:10476000DF931F92CDB7DEB7FC018485958597FD59
:1047700005C02FEF3FEF358724870BC0CE01019690
:104780000E94E91A019719F4898190E002C08FEF25
:104790009FEF0F90DF91CF9108950F931F93CF93C9
:1047A000DF931F92CDB7DEB78C01FC018485958520
:1047B00097FF0EC0CE0101960E94E91A019719F4E5
:1047C000298130E002C02FEF3FEFF80135872487C1
:1047D000F801848595850F90DF91CF911F910F91FE
:1047E00008950F931F93CF93DF931F92CDB7DEB73A
:1047F00082E0898342E450E061E57BE280E80E9448
:1048000077230E94A91BDC0112960D911C9113972E
:104810000115110569F0D801ED91FC910280F38139
:10482000E02DBE016F5F7F4FC801099597FF07C05C
:1048300089810F90DF91CF911F910F910895F80119
:1048400000851185E5CF1F920F920FB60F921124AC
:104850008F939F938091E1009091E100937F9093DB
:10486000E10083FF0FC01092E90091E09093EB000C
:104870001092EC0092E39093ED0010923B0298E0CE
:104880009093F00082FF20C093E09093E900909114
:10489000F200992319F09AE39093E800909138027E
:1048A000992339F0909138029150909338029923CE
:1048B00089F190913A02992339F090913A029150FE
:1048C00090933A02992341F184FF10C08091E20055
:1048D0008E7E81608093E2008091E1008F7E8093E4
:1048E000E100809139028E7E806111C080FF16C088
:1048F0008091E2008E7E80618093E2008091E100F1
:104900008E7E8093E100809139028E7E816080935B
:10491000390204C05D9ACDCF289AD6CF9F918F914E
:104920000F900FBE0F901F9018951F920F920FB609
:104930000F921124CF92DF92EF92FF920F931F9369
:104940002F933F934F935F936F937F938F939F9397
:10495000AF93BF93EF93FF93CF93DF93CDB7DEB7C2
:104960006C97DEBFCDBF1092E9008091E80083FF15
:10497000EDC168E0CE0145960E949E2382EF8093B0
:10498000E8008D8987FF05C09091E80090FFFCCF7B
:1049900003C09EEF9093E800982F907609F0C6C070
:1049A0009E892F89188D91110CC0803829F480912F
:1049B00031088093F10002C01092F1001092F100D2
:1049C00048C1422F50E0512B913051F4811141C127
:1049D0004130510509F03DC1809131088D7F0BC0F8
:1049E000933061F4811135C14130510509F031C175
:1049F000809131088260809331082BC1953041F459
:104A00008091E80080FFFCCF20682093E30021C163
:104A1000963009F05FC0EB8CFC8C1092E90010928C
:104A2000350810923408123091F510923308109224
:104A300032080E94F12399E0BE016F5F7F4FDB01D6
:104A4000E92F1D92EA95E9F799831A8391E09E83F5
:104A500090EA98879AEF9987209134083091350829
:104A6000275F3F4F3C832B838D831092E900109288
:104A7000350810923408F0923308E092320849E089
:104A800050E080E00E9477230E94F123E2C0F09280
:104A90003308E09232080E94A91BDC011296ED90C7
:104AA000FC901397E114F10409F4C0C0D701ED9113
:104AB000FC910480F581E02DBE016B5E7F4FC70144
:104AC0000995009719F00CF0C4C0C7C0F701E08445
:104AD000F184E8CF973009F4C0C0983021F481E028
:104AE0008093F100B6C0993009F0B3C0837009F02B
:104AF000B4C0EEE1F2E081E021E036E39081992359
:104B000061F08093E9002093EB0091919093EC0089
:104B10003093ED008F5F873089F78EE78093EA004E
:104B20001092EA008F8980933B0293C08B8D9C8DFD
:104B30001092E900109235081092340890933308CF
:104B400080933208898D811156C08E899D89913A52
:104B500059F4813209F081C047E050E069E271E028
:104B600080E00E94772375C0913209F076C08332CD
:104B700089F4888D90E0982F88272F89822BA0E0D8
:104B8000B0E08093310190933201A0933301B09350
:104B900034015FC0803269F48091E80082FFFCCF6D
:104BA00067E089E291E00E949E238BEF8093E8000A
:104BB00006C0823209F04DC08F8980933001809108
:104BC0003008882319F0EEEFFAE002C0E0E0F8E0E8
:104BD0008091290190912A01A0912B01B0912C0183
:104BE000803B9440A105B10509F07BC08091300164
:104BF00080FF93C076C00E94A91BDC0112960D9124
:104C00001C9113970115110541F1D801ED91FC910B
:104C10000190F081E02DBE016B5E7F4FC8010995C8
:104C2000811117C0F80100851185ECCF113009F40E
:104C30004EC0133091F48F89882309F445C0823027
:104C400081F440E86EE085EB9BE20E943C338823D0
:104C500021F08EEF8093E80079C081E28093EB0031
:104C600075C0813029F440E86BE089EA9BE2EDCF22
:104C7000833099F70E94A91BDC011296ED90FC90FD
:104C800013978E010F5F1F4F6801E114F10479F053
:104C9000D701ED91FC910680F781E02DB801C701A5
:104CA0000995080F111DF701E084F184EECFD801BA
:104CB0001C92F60101900020E9F73197BF016C19B1
:104CC0007D0940E0C601C1CF63E97BE202C067E92C
:104CD0007BE26115710509F2FB01449150E080E827
:104CE00040CF0FB6F894A8958091600088618093BA
:104CF0006000109260000FBEA895EE3F2AE0F20718
:104D000039F08091FE0A9091FF0A91838083A1CFB0
:104D10001092FF0A1092FE0A9CCFEE3F8AE0F8073D
:104D200031F0808191819093FF0A8093FE0A87E79A
:104D300097E7918380839BE088E10FB6F894A8956C
:104D4000809360000FBE9093600083CF6C960FB687
:104D5000F894DEBF0FBECDBFDF91CF91FF91EF91F1
:104D6000BF91AF919F918F917F916F915F914F9183
:104D70003F912F911F910F91FF90EF90DF90CF9077
:104D80000F900FBE0F901F901895CF92DF92EF9269
:104D9000FF920F931F93CF93DF93CDB7DEB7A19709
:104DA0000FB6F894DEBF0FBECDBF282F30E040E035
:104DB00050E019A28E010F5D1F4F8AE0C82ED12C42
:104DC000E12CF12CCA01B901A70196010E9410340F
:104DD000605DF80162938F01211531054105510590
:104DE00089F7CF010E941A1FA1960FB6F894DEBF73
:104DF0000FBECDBFDF91CF911F910F91FF90EF902C
:104E0000DF90CF900895582F862F2091750630910E
:104E10007606F9013296265E3F4FDF0112977C91AC
:104E200011966C919081411102C097FF07C07513D4
:104E300005C0681303C0892F8F7708953396E21752
:104E4000F30759F7552309F45EC0882309F45BC0C2
:104E500040915B06E52FF0E0AFE09FE0499F9001B5
:104E6000112421503109E217F30709F44CC02091B5
:104E70005C06E82FF0E09FE0299F9001112421506B
:104E80003109E217F30709F43EC06A2F0E9441344A
:104E9000382F292F852F0E944134E0915706F09139
:104EA0005806E80FF11D349FE00DF11D11244091CB
:104EB000770650917806E40FF51FE491822F8695CE
:104EC000869586954091790630917A06A42FB32F66
:104ED000AE0FB11DAE0FB11D3FE0839FF001112455
:104EE000E90FF11D8D919C91E80FF91FE491277056
:104EF00081E090E001C0880F2A95EAF7E82381E07D
:104F000021F480E0089581E0089508952F923F9262
:104F10004F925F926F927F928F929F92AF92BF92C9
:104F2000CF92DF92EF92FF920F931F93CF93DF9375
:104F30001F92CDB7DEB700914C0610E00350110967
:104F4000412C80914C0690E00396801791070CF459
:104F500046C020904B06312C22E0221A310885E011
:104F6000489E70011124570126E0A20EB11C87E073
:104F7000E80EF11C512C80914B0690E002968215B0
:104F800093054CF137FC22C080915B062FE0829F95
:104F9000C001112428163906CCF417FD17C08091E2
:104FA0005C062FE0829FC00111240817190774F4D2
:104FB00084E0581272C0411070C008C0363609F43F
:104FC000DCC008F0D0C0343608F0D0C053948FEF66
:104FD000281A380AD0CF43940F5F1F4FB2CF809169
:104FE0004D06843050F490E0FC01E85DFD4F0081F7
:104FF000FC01EC5DFD4F808102C080E000E0E82E06
:10500000F12CB7016A5F7F4F10E00E591F4F6034DB
:1050100071052CF420E042E0C8010E94BD20B701D8
:10502000695F7F4F603471052CF420E042E0C801D5
:105030000E94BD2086E48093C4078093C30788E064
:105040008093C50760914E0686ED9BE20E94572231
:105050006091500680ED9BE20E94572260914F06BE
:105060008AEC9BE20E9457226091510684EC9BE2FD
:105070000F90DF91CF911F910F91FF90EF90DF90F4
:10508000CF90BF90AF909F908F907F906F905F90E8
:105090004F903F902F900C94572240E0602F822D2C
:1050A0000E940327382F813009F490CF80E090E0F0
:1050B000FC01E558F94F60814181268127FF10C02E
:1050C00070E06215730561F450E04017510741F438
:1050D00025E0529EC001112420E041EE5BE21DC09C
:1050E0000796823D910521F780E090E0FC01EB59A5
:1050F000F84F60814181228127FF15C070E0621561
:10510000730589F450E04017510769F425E0529E79
:10511000C001112420E04BED5BE2B5018E599F4F99
:105120000E944C2053CF03968A359105F9F685E00D
:10513000589E60011124360122E6620E711C460160
:1051400086E6880E911C6814790409F437CF21E0B3
:1051500044E0B501C30139830E94BD1B2FEF621AE1
:10516000720A3981F0CF373609F030CF20E042E0C3
:10517000B701C6018D599F4F06C020E042E0B7013C
:10518000C6018C599F4F0E94BD1B20CFCF93DF9348
:1051900000D000D000D0CDB7DEB7789484B582605F
:1051A00084BD84B5816084BD85B5826085BD85B5CB
:1051B000816085BD80916E00816080936E00109249
:1051C00081008091810082608093810080918100C4
:1051D0008160809381008091800081608093800055
:1051E0008091910082608093910080919100816014
:1051F00080939100809190008160809390008091D5
:10520000C10084608093C1008091C100826080935E
:10521000C1008091C10081608093C1008091C30072
:1052200081608093C3008091C00082608093C00041
:105230008091C20081608093C20080917A00846076
:1052400080937A0080917A00826080937A008091C6
:105250007A00816080937A0080917A0080688093E0
:105260007A0010923B02109231081092390280911C
:10527000D70081608093D70080EA8093D80089B5F9
:10528000806189BD89B5826089BD09B400FEFDCF0A
:1052900061E070E080E090E00E94C81F8091D8003B
:1052A0008F7C80618093D8008091E000807F809324
:1052B000E0008091E1008E7E8093E1008DE080939C
:1052C000E200559A209AEEEFFFE7859194918B3F8B
:1052D0009C4D19F481E08093300881EC80937C0030
:1052E00085B1816785B984B18F7884B984B18760CD
:1052F00084B9469A3E985F9A5E988AB1806D8AB961
:1053000081B3806C81BB899880B38D7380BB80E54D
:105310008CBD81E08DBD0E94281E5E9A0E94281ED1
:105320005F985C98E7EDF5E08DE08E0F94919EBD5F
:1053300000000DB407FEFDCF31968E13F7CF5C9AB7
:1053400081E88093640081E0809365000E9494204E
:1053500084FF11C05C9885EA8EBD00000DB407FE85
:10536000FDCF5C9A289880916400806280936400ED
:105370000E94B220FDCF81E28093D007809164002B
:105380008E7F8093640080917A00806480937A009D
:1053900080917A0086FDFCCF009178001091790011
:1053A0000E94A31F20E030E0980111270027600F22
:1053B000711F821F931F611571058105910511F001
:1053C0000E94CC338091640081608093640080E00F
:1053D00091E090937A06809379060E949B2282E561
:1053E00096E08D5F8D83E4E04E2E512C612C712C64
:1053F0002FB7F89480912C0290912D02A0912E024B
:10540000B0912F022FBF4091D5075091D6076091E0
:10541000D7077091D8071091D907112349F020912F
:10542000D107821B8093DA071092D9070C942C3293
:1054300084179507A607B70748F4481B423010F4B5
:105440000C942C320E94B2200C942C3221E0209338
:10545000D9078093D1079093D207A093D307B09335
:10546000D4072091D007820F911DA11DB11D8093FB
:10547000D5079093D607A093D707B093D80780910C
:10548000CC079091CD0701969093CD078093CC07E0
:105490008091CE078093CF070E9494208093CE07FF
:1054A000812FEBE4F2E081118FEF0024819381934F
:1054B000819381930394D1F7E0914A028E2F90E07B
:1054C0008431910508F0B0C7FC01EA5AFF4F0C94F3
:1054D0004D341092300283E0B7C1E091300282C7B0
:1054E00041E060914C0680914B060E940327F82E04
:1054F0000E9440160E94611A9091CF0790952091CA
:10550000CE07922394FF0AC090914D069130C9F0C6
:10551000B0F0923079F0933079F016C096FF45C024
:1055200090914D06913041F028F0923041F0933047
:1055300041F00AC011E009C010E00FEF07C01FEFF3
:1055400004C010E001E002C010E000E080914C06D1
:10555000412F012E000C550B480F511D80914B0619
:10556000602F002E000C770B680F711D8BE496E006
:105570000E947E1A882309F4B3C080914B06080F5D
:1055800000934B0680914C06180F10934C06E7E6EB
:10559000FE1240C0E12CF12C00E010E057EEB52ED9
:1055A00060E5D62E7CE2C72E22C095FF04C0809114
:1055B0004D06815005C092FF07C080914D068F5F58
:1055C000837080934D068CC090FF8AC080914A0200
:1055D0008093370285E080934A0282C0873689F043
:1055E00093E0E90EF11CE8E1EE16F104A9F0E09178
:1055F0007506F0917606EE0DFF1D828187FDF0CFD6
:10560000EDCF80914B06882359F380914C06811190
:105610002DC7E6CF00E010E040E060914C0680919D
:105620004B060E940327863651F480913002833066
:1056300010F482E101C083E180934A02F7C684E05E
:1056400080934A023BE7C32E36E0D32E4CE7E42E8C
:1056500046E0F42EF701858187FF32C086FF30C017
:10566000F601608180914B0690E070E0861B970BFD
:10567000A0914C06F701B081EB2FF0E02A2F30E02B
:105680002E1B3F0B09F010C7AC0197FF04C0442745
:105690005527481B590B4130510509F0B2C7892BDA
:1056A00009F0F2C681E037FF03C031952195310939
:1056B0002130310509F4EAC690E0891709F4E8C6FB
:1056C000F7E0CF0ED11C27E0E20EF11C8EE4E816C5
:1056D00087E0F80609F0BECF0115110509F0A6C64E
:1056E0000E946B1AA1C60E94CF2221E04DE25AE22D
:1056F00064E070E082E490E00E94002121E047E64F
:1057000056E164E070E084E090E00E9400210E9495
:10571000611A0E94862703E511E022E5222E26E089
:10572000322EF101EB5FEE83F10181911F0188239D
:1057300031F1F801C080D180A280B3804601FEE043
:105740008F0E911C7601E814F90451F020E040E13D
:10575000B501C7010E94BD1B2FEFE21AF20AF3CF79
:10576000F1013197E081F0E0EE0FFF1FE95BFE4FA2
:105770004081518121E0B501C6010E9400210C5FEA
:105780001F4F8E818211D0CFE091360294E0E99FC5
:10579000F0011124ED5AFE4F62817381655F7F4FE6
:1057A0008081918120E04DE556E103960E94002121
:1057B0001091CF0710958091CE0718231092C6073D
:1057C00003E10093C4070093C30783E28093C507F6
:1057D000809150060E94C5260093C4070093C3071A
:1057E0008DE28093C50780914F060E94C52681E017
:1057F0008093C60780914A02853019F0863039F1CE
:1058000013C615FF06C080913602882311F081501F
:1058100007C012FF08C080913602823020F48F5FEB
:105820008093360201C610FF03C0809137020CC07E
:1058300011FFFAC5E0913602F0E0E55BF94F878190
:10584000882309F4F1C586E080934A02EDC50091F2
:105850003502013019F082E590E002C08EE590E05B
:1058600021E04DE556E168E370E00E94002143E548
:1058700056E16DE270E081E590E00E94081E49E487
:1058800056E16DE270E08DE590E00E94081E15FF84
:1058900006C0002321F0015000933502C5C512FF58
:1058A00006C0011104C081E080933502BDC510FD22
:1058B000A0C611FFB9C501117EC0E0913602AE2F1E
:1058C000B0E0A55BB94F17968C91813021F0823002
:1058D00009F45CC070C00FE4E02E07E0F02E0E2E3D
:1058E000000CFF0B8F010E5A194F85E0D82EF701DF
:1058F0003297808190E020914B06821B910931966E
:10590000408150E020914C06421B5109F701208153
:1059100027FF32C02F776CE9620F322F623010F010
:10592000273651F597FF03C091958195910902970C
:105930001CF5CA0157FF03C0919581959109029703
:10594000DCF4243611F4F7013083F7018081982FBD
:105950009F77953619F4807886668083F701808179
:105960008F77873609F48083F80110820E940F1E1A
:1059700010923502D0924A02F3E0EF0EF11C27E6B6
:10598000E21627E0F20609F0B2CF15C080914E066C
:10599000895F833308F082E380934E060E2E000C5D
:1059A000FF0BE55BF94F17820E940F1E1092350224
:1059B00085E080934A0280913502813009F034C538
:1059C00030914B0620914C06A7E6B7E010E080E04E
:1059D000AD0142505109FA015081BD016150710978
:1059E000FB0140819C919F7729F0531304C042131F
:1059F00002C0F0C5182F8F5F13968E3149F7E12F43
:105A0000F0E080913602AF01440F551FE40FF51FFF
:105A1000EB59F84FA82FB0E0A55BB94F17969C91B2
:105A20009068928330832183E82F880FFF0BE55B1A
:105A3000F94F17820E940F1E10923502DAC50E949C
:105A4000401610913402113019F088E490E002C041
:105A500084E590E021E04DE556E168E370E00E94C6
:105A6000002143E556E16DE270E087E490E00E949A
:105A7000081E49E456E16DE270E083E590E00E9483
:105A8000081E21E040E16BE270E082E490E00E94B9
:105A9000BD1B8091CF0780959091CE07892385FF0C
:105AA00006C0112321F011501093340207C082FF69
:105AB00005C0111103C091E09093340280FF07C02C
:105AC00090914A029093370295E090934A0281FFA9
:105AD000ABC480913402811157C080913C0290E0A8
