:100000000C94FD150C9425160C9425160C942516AD
:100010000C9425160C9425160C9425160C94251674
:100020000C9425160C9425160C94651D0C94D71D64
:100030000C9425160C9425160C9425160C94251654
:100040000C9425160C9425160C9425160C94251644
:100050000C9425160C9425160C9425160C945124FA
:100060000C9425160C9425160C9425160C94251624
:100070000C9425160C9425160C9425160C94251614
:100080000C9425160C9425160C9425160C94251604
:100090000C9425160C9425160C9425160C942516F4
:1000A0000C9425160C9425160C942516E52C182D69
:1000B00087298C298F29922A922A3C2C8F29532D0B
:1000C000532D532D532D532D532D532D0A30363090
:1000D000CD300331742D8D2DCC2D052EBA2E092F48
:1000E000702F4120534C494D45004120524154004E
:1000F0004120445241474F4E0041205752414954FC
:1001000048004120535041524B4154004120534B31
:10011000454C45544F4E00414E204F4343554C41B2
:100120005200080FB8549D726F4F7D9DCA2904A5D7
:10013000D3D103080F5C2E99CBAA4B3A6573C95CE7
:10014000280A4D080FBC54B9AFAF52AA7E7712559A
:10015000A109080F74AE56D22957EAAAAE5C25B79A
:10016000E9D0070D0FE9B3EB6CB67295AB5C256770
:100170004EA7BED5A554ED4AA9CEA5D3E9743A5DE4
:100180000D0F4995CB965295ABFACA56B294CB2B2C
:10019000D674253B5795AA4A75755757A5AA529DFF
:1001A000AB643A5D0D0F99969DAB5255325555553E
:1001B00095EB2A75DEF958D3E974253BD7B9CE758E
:1001C000AE739DEB5CEDD2050D0F4995CB55A95E45
:1001D000C9AA5755299757ECE974253BD7B9CE756D
:1001E000AE73954CA7D3E9020D0FC9964E7DEA7305
:1001F000CE29B9DD3AA7A473F3A5D395AC643A9D93
:100200004EA7D3E974BA002020445241474F4E53C1
:1002100020202020204C41495220202020253A0037
:1002200005041E0425030023170032170325370396
:100230001E34011633011A38030838010433030A47
:1002400029010A2003122501182303251F01212457
:1002500003291301341C01311C01332501333203FE
:100260003A3603423300412601431A03340703435D
:10027000090305080316090107050116041E0118E4
:100280002E01013601271F011C2801012B01362BED
:1002900001492401250A020106020B0B021011027A
:1002A0001B17023815022E06024703024512020DE3
:1002B0001F022927021F2E021031021521022718C2
:1002C00002230C03270C031F01032B010523100439
:1002D0002625052B1504011508652501640F3464D6
:1002E000072D64251E64161E64071E64341E6443B5
:1002F0001E000407000408030202030B010D09029B
:100300000A0D050C0920204352595054204F462015
:100310002020414E47554953482020162B00030307
:100320001E02132706152301161F020D2A0221297A
:1003300006262806082805112305262601041F0283
:100340001819011515011610010710020315020AEC
:1003500017022417052B1506251B06240B02250959
:1003600005270606250202120A06170706120505CA
:10037000180303070101090B0107051B01022301F3
:100380001521012121011127020B21022B1B02182B
:1003900012020B1202031A021A1A02211202290374
:1003A00002120B020507051717040515052901049C
:1003B0001001032315032912030B0B030105032965
:1003C00029030327030D1B021F1501010D056507F6
:1003D0000064070F64160F64250F6416280B0504CC
:1003E0000803080A010948414C4C57415953204F12
:1003F000462054484520444541442020073A000106
:100400000410050A340501330505380508290503DC
:1004100024060D21060826010517060B10050B17EB
:10042000050412060304060A09050C040503080165
:1004300007021302012F020D2A02032902052402DA
:100440000124020B21020B19030B15030D150205E4
:1004500010030918020102020B0304030B050C0828
:10046000030808010701020901020B0B01650700DF
:1004700003020803D5F08D14A1C881CFD9F1AF20B4
:1004800000594F552043414E20484541520A4120D2
:1004900044495354414E540A59455420434C4F53F8
:1004A00045520A445241474F4E20524F41520A4151
:1004B0005320594F5520535445500A5448524F55D4
:1004C0004748205448450A444F4F522E2E2E003B99
:1004D000371019795C9DCD56AEB295AD4E75652B32
:1004E0005B5D555DD555D555ABAAAE5A77D55555FB
:1004F00057E5AABA2A5795ED5484B1C71A75288FC3
:100500002F5BB9CA56AE3A5597EA4A5D7555B9CAD6
:1005100055361B5DD8CB6EB7EBF8F3D9CA662B798D
:10052000D555E52A57A94E75AAB2B186A67014759D
:100530002E57555D555DD5555D555D55572E2C850E
:10054000BEA4723A1CA59554D239A9F05695ABAA0F
:100550002B75555D555D95AB1A95314655D5559D15
:10056000CA55755575555715A2945A49A9A4924A6A
:100570002E9554D975085C4796764E2A1DFF555D19
:10058000555DD555D9EAAA8A35172A2B5B954BD5E7
:100590005575AAAEAA53C598CEA6D35BBBDFDAD9F0
:1005A000F1B95D2AA99C1B4D5575AAAEAA535D559C
:1005B0009DAA684353CC31662B5775555D5557D569
:1005C000558D3F25ED5E49BBDF6E9DA2B65B5E3B60
:1005D00002ABEAAABAAAAEAAABEAAA8A351512E316
:1005E0004DAEB295ABEAAABAAAAEAAAB5C5557E536
:1005F0002A57D96C5CD96C369B8D349BAD5CD55534
:100600007555575557652BA264272F5BB9AA5C55C2
:1006100057E5AA7295EF542E5BB9AAB096044445EB
:1006200046454E43450041545441434B0043484FD7
:100630004F534520424F4E5553004C4556454C2094
:100640000016277494F9A8F27165974E49E7E4BA49
:10065000B35166A3CE2AB94DE7A4924A2AA9A4D2DF
:10066000B96E75CE492595545249256DBA925BBF36
:10067000B77B25EDA5D3FF72A99C934EAAFF745CAE
:100680002B4A3EC6F43ABD4E565249E5B89D939565
:10069000CE6EB3DBF096CE6EB7DBED76BBDD6EB71C
:1006A000EB74580257454C4C20444F4E45210A5498
:1006B0004845205249434845530A554E4445522027
:1006C0005448450A4D4F554E5441494E0A415245F2
:1006D00020594F5552530A4E4F572100513760E869
:1006E000BA5255D705B767950DC3E974BB521F5170
:1006F000DD95AC6EAA7BE7B7E96D7ABB0E16CF2A03
:10070000A79C72CA29E554AD9C72CAD5B752E57D43
:100710005545C474D5552B55D7E5AABA545D4A55ED
:10072000ADAC3AE5CA56D2553ED82D9FCC5E4ED9D7
:100730004AEE435456D9506723AB9C74A95C2AF502
:10074000F5BD5A55A752A9BEEF6455EAAFAABB5AE8
:10075000555F95AAAB4E7575AB7AB9BC5675C59504
:10076000EDAABAAA727555CA662BD529752AF8283A
:10077000AB6C2A5BD9AA4E555775A5B2D5555DD934
:1007800010955536C2EAAA9DCE2A9B55AE94AB5C15
:1007900029579553F2AAAB56EA54D5A95355A75AEF
:1007A000D595EAAAAEAAABEAAABAAA56B5AACA557C
:1007B000AED4555D5597EAE4329FCD565775555DD9
:1007C000D55575559553EA56EA568DBEEC5239A764
:1007D000A492DB5823ABCEA6EA2A5755575557E5C6
:1007E000AABAB2A9A4BAEAEBAA2A55F72AD5A5CA89
:1007F000A552B9CA76AA3A5597BAAAEAAA2E559727
:1008000072555D95AB5C2A97CA552ED555B954578C
:1008100075555D55ABCA77AAABEA529DAAABBA949F
:1008200053CAD655759593D77D55572AD7ABD4550E
:10083000EFD2A9EE4E27E9B259E5D4655395CDA57F
:1008400072F96C2E555D954BAD2A975A55AE6A5587
:10085000577555AB5AD57279A9552A95AB5465ABE6
:10086000935DDD5597EAEE4A2EBB77A954EA529D77
:10087000EB5C65ABEBBBAEEFBB2AF75D9DBA54A555
:10088000AED4AA725557D555E5AA7295AB4E55AE62
:100890006A55B9AA5575A52E5BA94B652B57B9CAE0
:1008A00055AE7215D7D2A9AA2BD575ABE40524375E
:1008B000E8B3D9CAD5AAD4E52A79B9AAD4AA2B9B78
:1008C000AD6CB6AABAAAAEAAB395CD5672D555A943
:1008D000CB55F272AA94AB6565F3715757D5557530
:1008E000555D55ABCA56369FCD87B80A85D97C363B
:1008F0005BABEAAABAAAAEAAAB2A575595ABAAAB8C
:10090000EAAABA4AAD98F6C9E57AB9CEAEB3B9AAA1
:100910005C7555E52A5795CD67D7CBF5F292B3B5FF
:100920007255AEAAAEAAABEA2AC6ABCAAAF8AA5AB0
:100930002ABBAC4E5DA53AB5AC6CAEEAAACAD55599
:1009400055AEAEAA5C5536D555D59FCB2E2BBB7474
:100950005531A5A5AB2A1F6FBE7295BC5C55EAAA9E
:10096000AB52577555755C57D5C9DBC96D95B595B3
:10097000FC96C9ABCA77B6AABAAAABD45557A52E6E
:1009800057D9CA85BCD966DB9652D6256FE9565A27
:1009900059E5F26AA92A2BE54A69B754E9E8B6F99C
:1009A00058C7575AC9E8944E2A32A5930A494A278C
:1009B0006753644A563A32A593B356A40A41545435
:1009C00041434B5321002044414D414745210059AB
:1009D0004F552054414B450A002527A0A17476BBF2
:1009E000DD6EA7CB6E97CA39E59453CE29E5B6D90B
:1009F0005C7689C1EC5239E79453CE29A79C537297
:100A0000E5AEAE4BA9DAD5AE76B5BA579D4B2B2ADB
:100A1000395976F9A9FED47649B754CE29A7DC72A4
:100A2000A994534E39E79453CE29A73491D5E94A76
:100A300056B292954CA7D36D4BEF9473CBE5CE296C
:100A400019AD5452DD5239A79C53729B0E656E9BB3
:100A50004C2E97CB9D534E39A79C5372BB0DFA4A2F
:100A6000A7D3E9A0252527A0A17476BBDD6EA7CB6F
:100A70006E97CA3925B7E9D8B34B0C6697CA39E7E0
:100A800094DC063F65B7DB25DD5239A7E448CB6E21
:100A9000974AA7D3E9D09CDD3925A3954A2AA9A472
:100AA00092CA3925B7E950E6B66129BB545239A735
:100AB000E4761BF4954EA7D3414B232770E69C7335
:100AC000DBAD5A56B25AB5BA64E52AA54AA9929541
:100AD000ADD5BD6A59C9724A6EB7CE39243276AEE9
:100AE0004FAD5CCAA55CAABE5556C96D7A9B4E6FC8
:100AF000D35B65D3F7A5EA944BA9953C752E9D97DA
:100B00008ADE29A674AE5CCAA99CCAA93A5547E4F4
:100B10005CBA929DEB5C25D3B5AB64EDD2EEE4A953
:100B20009CCAA99CCAA5CAD58C6A9D97CA7EEAAA06
:100B3000D5C9CAB5F3EAAAABAE4A49DDAEBEEABA38
:100B4000DCA5AA5EB5ABDCE5AE5D9D6BABAA5257EA
:100B5000FD957F77E53A59FDA9ED1245E9ED76BBA4
:100B6000DD86F6F476BBDD6E4313232770E69C73B7
:100B7000CE39E7D2E974684BA7D369E79C73CE39C5
:100B8000E79008E54945EF14A4A7D679A9EC763B90
:100B90001AD3E9D0964E87C5ED7689A2F476BBDDEF
:100BA0006E437B7ABBDD6EB7A1090704080C0E0FFC
:100BB0000E0C0852014301330122012044414D41F2
:100BC0004745210A00594F55204445414C0A003001
:100BD0002F754C4AF6AA3A55C9AE54BF2EE7D2E952
:100BE000743A9D4EA7D30EBE4B6F9574D2A9729FD7
:100BF000D3BA5DED3A57C9DA75AE92B5EB5C956C38
:100C0000BB52F2569F52523A67B7DBED763B3C96A9
:100C1000DEAAB89297AAEEEEAAEA4A5D5DD555D54E
:100C2000555D95CBAFAEAA555557ADAAB2CAA5F240
:100C3000E955EEB2CE5925153CB55552D9EDD63908
:100C40005BCB5B55FD555755575D555D555DD5558E
:100C5000B94A5D555775557555B9547CDAE7A5D233
:100C6000C16FE9F476EB9CDFDA29ABAE2A577555F4
:100C7000E52A9FAD7C3EBFEF6429279D5476F82D71
:100C80001D7D74D145175D3A9D4E47978E16302FC6
:100C900075F84AA7B74A2AA9A4924A2AA9A4924A4F
:100CA0002AA9243C97DE2AE99C54761D9E9554522D
:100CB00049259574CE6EB7DBED76782CBD55C159BC
:100CC000E9B4925249054F6D9554524925A5D2C1B8
:100CD0005352E9E0B7747ABB750E1E4A2BE99C5457
:100CE00076F82D9D4EA7D3E9743A9D4EA7D3E974AB
:100CF0003A9D4EA7A3054445414C203120444D4721
:100D00000A0020444D470A0054414B4520002B2F38
:100D1000D09DDD2E955472BB5452C9CB5DEE7297B7
:100D2000BB9C92CA6E67D2A5D3E974C9D2E9745A42
:100D3000E3D46D93BB653657A94BF5A7E5ADB6A7D0
:100D4000DE559D73572B2555ABEDB91491ADBEBE45
:100D5000CADDAEEA2BA54AD6AE747662A9D2E97492
:100D60003A9DBBDCE52EADAD522BB5F56E375B572A
:100D7000A77AA54AD575F777AA53FD2D95956E22CA
:100D8000A7574A312D5B12F23B9D4EA7D3E9743A27
:100D90005DE752D2F7EEEF6E998B6E555D5557D5E4
:100DA000557555755557E52A1B557657AB52B552B3
:100DB0002E9B5C29AEA40AC92B1997524A2DE3AA8F
:100DC000AECA555D5557D5557595CB46E59454CA71
:100DD00029554AD5AE964A2AA7A492DB102EB3BB5A
:100DE000EB9592E95C5D555DD555D5555D555DD565
:100DF00055B98AF7A59250122B2FD09DDD2E955410
:100E00005249E59C73CE39E79C73CE39E79C541266
:100E1000D5B874DB60B8B4545249A5ED76BBDD6E2D
:100E2000B7C386BC52492595545249259554524919
:100E3000A583DE922A24AF6490D05249E59C73CEFC
:100E400039A7A492DB102ED3E9743A9D4EA7D3E9BB
:100E5000743A9D4EA7B34B25A124302F90A5A492A0
:100E60005B2597CEB918B3AA555C69267B3A9D2EAF
:100E7000A5AA52559F4EA72DA4A49C734AEE647454
:100E800095DC56EE53AB5B39592D7752DACAB9640B
:100E9000AB76B52BA54A55A5AA92D5AEEA6B573AC3
:100EA000E7DC4A9E5A49AB94BC9592D239FC6D95C9
:100EB0005476291569652B57AB54ED9CABAC943235
:100EC00079259DAB5D2A95AB6CB6E2DD2BB5527FE3
:100ED000B2DDC9ABBD52AB6AA5F6AE6C7299EADE63
:100EE0004D9545DC76BBDD6E9554D2AE53A953A724
:100EF00052E9ECCE49554E9553A5EA72B5ACDD25C5
:100F00002F75E5AAAEAA4EE5439C67744377E9AD19
:100F100092CA3A679DAD5595ABAA56D5A9CAC59454
:100F2000CFEFF79775522A1DFC67B7F6AB56FD5504
:100F3000AB7ED5EA5EF5AA57BD6A759F7ABB1D30B8
:100F40002F90A5A4924A2AA99C732E74A5D3E97464
:100F50003A9D4EA7D3E9743A0D1929E79C736ED8D0
:100F60006DBBDD6E95545249259DC3DF56492595CD
:100F7000940A1ECD226EBBDD6EB74A2A69D7E9748A
:100F80003A9DDD39A9EC3A1D14E586EED25B259534
:100F9000944A87E7B49252E9E03FBBDD6EB7DBEDE0
:100FA00076BBDD6EB7DBED763B250F74D9D3EDCA8A
:100FB00075BBD25DD7D5AD4EA7AAD2EDEAAEEEEAAB
:100FC000AEEEEAAEEEEAAEEEEAAEEE6A575A13E9DC
:100FD000D2ADAEBB72D75DABD3DA57B692FB7436E7
:100FE0009D4EA7D3E9743A9D4EA7D3E9743A9D4E1E
:100FF000A7938A4CE9743A59E9743AA9C800250FB5
:10100000753AF89137BD75CE39E79C73CE39E79CB8
:1010100073CE39E79C73CE39E79C73CE39E79C7366
:10102000CE39E79C73CE39E79C73CE39E79C730EBB
:101030000C11FF01010161C1E171391901FFFF00CC
:101040000686C1E0E1C1800000FF0101010101014C
:1010500001010101010120202020204152540A20D9
:101060002020435952494C0A47554943484152446C
:1010700000434F44450A53494D4F4E0A484F4C4D8B
:10108000455300253F2B59C94A56B29295AC642569
:101090002B59C94A56B27297AAEAAE4AD5ABCE7559
:1010A000AE94B397BB5C252BD929E5AADC95AC643B
:1010B000252B59C94A56B29295AC70984DADAA539A
:1010C000D5A95C3ADD29E5E35352EB9667C3523666
:1010D0001FBEF3CAABB295CF2A55A92E9B4EE73A55
:1010E00095EE5CAFDAD5ABD4CA65B339B572A13130
:1010F000BDAD64E752A954EF2E9DCE66775CD95200
:10110000FEB25B6553A9CE75AE939D224CA7D3B9B1
:101110004BF52AD5B94A6EA3742ADBEA56A52E37B9
:1011200099EBFEFFAD3D9D54F64F7D4A524925D5C2
:10113000FFBF748ECB39E794546CCEA952AB5EF5E9
:101140002ECFE5755AAA2D916EBBD5443A9D6EBB44
:10115000B6443ADD76ABD3443A2D559A48A76F256D
:101160009554447C9E898DC97AEFF9F8F8086D9EF4
:10117000892D4D48E7BDF7DE13B989B8AA5495AA61
:101180004A7DB9735DDDB92B59B2EAABACDDFEBF68
:10119000B6DB739DB6A73E9DB5DBB7CB9255B2DCEF
:1011A000D575EACB9DFAAAAA5255B20A03051F0EBD
:1011B00004713798EDB673E98A301B6384A9543AF9
:1011C000BDFD2A752B55CED97564CA39E75CBC4A7A
:1011D0002AA9A4924A2AA9A4B2DB5DED3AD7B9EDB7
:1011E0005649E7948C31A99CB3736E9D732E5E258E
:1011F00095545249259554524965B7BB4E6DD3E974
:1012000052AA942AA54AA9747A9B4AF59FFA7F9517
:10121000FA94B2EBADDA6ED3E97425D3A954253B29
:10122000B5AE54322A3BAE78436E9CCBA5724A6E63
:10123000D3B94E77EE757CFC3A9DDD2AC79C558A62
:1012400072B973DB28974AC79456D249B98E8F9FDB
:101250002BAD6AE2A48C975FEDE4D44BA76CA44B52
:1012600034C51C71544BE594730A4F4A5DDB5BF542
:101270002A9DDEFE4AC9DB6D6BB7ADDDB6762FF376
:10128000CBBC52BA92D5AE64A5542D2BBB6BD7AB59
:10129000542A9DEA55AF7A554A9552A5945452491D
:1012A00025D5A9539FFA5CB7BADCE52E77B94BA7D1
:1012B000EEED36956A7557E9AC74EE569F7AA9A49F
:1012C000924AAA522AF5B94E7DAF4A29A952A95489
:1012D0002A954AA5A4924AAA52AA57A954AF4AA944
:1012E000524A2AA9A44AA552A9542A954AA552A904
:1012F000D4A73E77B94B6ED7975BC7C79F5652C9E5
:10130000CB5DEE72955DE6B3D94A6E2BB9ADE4B60E
:10131000B2F96CD629994E3B974A292727CAB6AC11
:101320005C2DCB662B9BAD6CCBCAD5B26CB6B22D07
:101330009D2AE5E425F7D9F85EA7535FD7CE65B7B8
:10134000EB529F55A72EA74AB95297AD6CB6CAD596
:10135000B272F557ADFA2B9BAD6CCBCAD5B25AF52C
:1013600057A953AE56E554D96C65B395CD56365B47
:10137000D96C3E9BDD66B74B2595E354928E309534
:101380004AA79395EB74ACD1C7EB9C5476BD5552EC
:10139000492595DCC66BD769E9EC76BB644A27A979
:1013A00099AD92CE39E9A45BC7C7C72B974A2AA744
:1013B00096CAB9D9795BDDEA56DBF97899964EE998
:1013C000CE2A2727940A4721287CA5D25BB5B6DB15
:1013D000E425B795AB4A39D7ABCE49259554F2727F
:1013E0004A4AE59C54576DB74BE59CBA753A9D4EF9
:1013F0002BE99C5452D9ED76BBDD6EB7DBA592CAC2
:101400006EB7DBED76BB54CE4965B7DBED76BBDD61
:101410006EB7DBA5924A2AE79494CA6EB7DBED76E5
:10142000BBDD6ED3E9743A9D4EA7D3E9746CD995B0
:10143000545249E59C2A2595549773CEB9CB29ABD4
:101440005C259D734EC94A2AB2747ABBDD6ED3E126
:10145000DD6EEF9C9393D9AD4E67974A39A54A2A22
:10146000AB54AA9595CEA9E510D14EAAEF558C762E
:101470007B5ABA5BC764B777752E26BB3D95924EF3
:1014800071D92D533A6DB7A7F35B79293B0C044E04
:101490004F20494E560A534C4F545321005350414C
:1014A00043450A4F43435550494544210008081E0F
:1014B0001E1E3F7FDF15140808787878FCFEFBA815
:1014C0002806075476A99C93CAAE733C376A9BDC06
:1014D000C62C553A9D4EA7D3E9743A9D4EA7D39298
:1014E0004AAA743A9D4EA7D3E9743A9D4EA7259512
:1014F00054E9743A9D4EA7D3E9743A9D4E4BBC7A99
:10150000FE5CAA93DB65A77261C87BCF9F4B7572A7
:10151000BBEC542E0C79EFF973A94E6E979DCA85DA
:10152000218F57A5D3E974BADC95AC64BADC952C4D
:1015300077BADC955239AF52AA2A55F5E972A7CB92
:101540009D2E7725CB5DC972A74B5749ADCB5D95D5
:10155000AAEB74B9D3E974B9AB52954C975255A51F
:10156000AAD19CCD56F2D2E9E8D2E9E8A28B2EA905
:101570006425D395AC6425D3954C57325DC9742549
:10158000D38A4CC94A56325DC94A56325DC94A5659
:10159000325DC94A5672DCAD4A2D9D72A55CE522CA
:1015A000CE2A1B323D8AF29DDC2E3B158EBCF728DD
:1015B000CA7772BBEC5438F288932AF7B52BA56A28
:1015C000953BC99A5536545A9D4EA76B97AE64BA4F
:1015D000929DAB64252B992E5D5AEB4A56B2929D93
:1015E000AB64252B99AE5D252B99AE64E9C2D52558
:1015F000F3EB7D3668CAE99CD339C7E564A5E3728D
:1016000032EBB89CCCCEE674CE71392EC775C94A80
:101610002A5C0147415445204C4F434B530A4245F5
:1016200048494E4420594F55210020412053574FDF
:101630005244004120534849454C44004120534303
:10164000524F4C4C00485020504F54494F4E00537D
:101650004F4D45204B455953001C1FA0A1EC32DBD8
:10166000A94E75AABBAA2FA5B2CAE16DBBCD4797FB
:1016700054AE539DEA54F7F797AB55AD9C72CA2907
:10168000B90D7BD974D6A97295CA669D5255EF3AA9
:101690009555D286F6F576A9E4B0171C1FD0955D56
:1016A0006E9797BBD4E56E75B9CBDDEA9297BBE434
:1016B00076BD0E876E26F7EEDD5995F22A2E4F94F1
:1016C000F53A4FA4DFBD7B6FAD7378DA3AEB7EA5B8
:1016D000DE7DC9F2B2F2447A4BA47355DA55A9AF54
:1016E000DFAD94DBB9B19A4E6FD7DBED76BB5D6EA3
:1016F000B7E9D0081C1FA894BBD4ADAA52A554AF1B
:101700007A55A54AA73BD7D55D9DEBCE7575E77297
:10171000DDB9552A955AAF1D7E957AC97795AC5497
:10172000552A95AA88FA5295AAFC2ABE5E9646A228
:10173000DAAD64AABEAAEBBBB2ABAAEC3A59A94F88
:101740007DAE53BDCEEE9CFAF47A3DBED6EBEDB243
:1017500072B5AC5C2D2B57CBCAD5B272B5AC5C2D33
:101760002B57CBCAD552C9E56C161FD094722A5795
:101770009DAB645757B2AB2BD9D595EC642EE57C65
:10178000B8722A5B36E5DCB7527539A7A492EA56DF
:101790005249A754A95BBA4FB9722AEFF8A46F59FE
:1017A000B692954DA7F3E95CA7D3D9743A5BC9B259
:1017B000655BA22E9DCEA7D3E974369D0E6D191FD1
:1017C000D0944EC7BAAC5CADE4AA5C6543B5F5DB1A
:1017D00065E75E75B94B2A1B04E494D56B27B7E91E
:1017E0007456B9B3EA7295DC56F256B5DBA69D2B5A
:1017F000E542623A9D0E1A02281FB0994E2A1F9A9E
:10180000B2D9CA39E59CAA95B4CA39E93A195170D6
:1018100053BEB2D9CA5575555D75555DB94AE55285
:1018200091F5576DA36B759DDA5E6E59D5DBA5D228
:10183000D126D7E1A873D9757659B9BA5455D77D51
:10184000D5D57D553B77B9DA39259D734E2A57ABEF
:101850005BC94FAD7AD5EA56A59C734E2A574BA566
:10186000EE571D440B191FD018EBAE76BBF4AAE35C
:101870004BE7F3E9FC684BF575527557752957CA64
:101880007EAEAAD4A5EA2AA5BACEF6BAD2D9F0B5C8
:10189000DC56A4976A95FB4FE62EB74ABF53B95260
:1018A000F155723DDE9659E796526DA38B289D8CBB
:1018B0002EBD956EAD647E14013D37505EBB522A3D
:1018C000BD5EAFD7D12795CB86BE7C5EE9E8B3CBB2
:1018D000E5729B2EA56ADA753A342695734AC94B90
:1018E0005DF5FD5D9D4A7575B5BAF5AE957556F910
:1018F0006CFD95ABCAD5AA56A5DC5EB95A3A75CA35
:10190000F99453EA92CA5576B72CA74AB9CA557FBB
:10191000D9CAE694723BF797EE9395EC5C2AD5F51D
:101920009DABAAAE5AA9765272A99CFB645557D5B5
:101930005575E5BE5257AEAA5359B5AA53952D75A4
:10194000E918ABEAB225D7BF924E9D5AA52EB9220F
:10195000AA72BE4A5979A94B2D9593FF6D2B5BB6A0
:10196000AAF2DBB972555795AB725655575557D5F4
:10197000559DADAAABEAAA64485364F96CBEE64A29
:10198000D56E5BB95A564E31E52B9B4B55B5FAAD2A
:10199000BAD4A54A5DD5557555FBAABAAAEAAA5C80
:1019A00039754ADDCBD5A9CA65B3B96CE5AAAB6A6E
:1019B00055D95A555755442329EC67BBAA5CD555D0
:1019C00075555D55AEEAAAEAAA65E5AB2A57E5A4C6
:1019D00073F7AB5FFDA94A3A75C94FB5BAD4DF4B6F
:1019E000A77CD555C564B3CAA93A55CB6CE5AAEA1C
:1019F000AAAAABEAAAEAAA5CC8CF56E5AABAAABACA
:101A0000EAAA552EEFDCE752D239E966CB57369772
:101A10008A6A972DA7B2E554B6948B2895CD562E99
:101A20006C45ABE4361D3416FAD3E9A0392A37A049
:101A3000A1743A9D8E329D4E2F95545249259D7327
:101A4000CE49E7A453F2B2CB6D884E2AA59472DB3F
:101A5000947297BB9554B7BA4AA9D64A2BAD74581D
:101A6000DBB9DDCE8DF3AD72B7B2AB5EAD5AA95620
:101A7000AAD5256B7529E554ADBAB74BE5DC7A3BA1
:101A8000251F86959AAD2A55A5AAFAAACA5266AB11
:101A9000A2CC2A773B65BBA2AE8AAF6C57A9AA54E9
:101AA00055AAAAA8F60A9F7BE9A36BF9365B745581
:101AB0007555315655F457156B5D45557A573A4D66
:101AC000D7B2B1BC566E99DD9157D555C55A571549
:101AD00063555D558C5595AB50244BB961A1F4D637
:101AE000EEDCD6B9BC727625F3CAD995CC2FA552B7
:101AF00032AF9C545B25950CCD322F60ACE0A490A6
:101B00009C55368C3A57BBCBD5CED9B5B2CECEBAD2
:101B1000734AED5CED2E572BA9D2E978D3DB9017F1
:101B2000CEA5BB64259554B27297927C5BA7DA3A36
:101B3000D5D6A9B64E116EB77129E7D4F776BD5642
:101B400056D96DD8CD2A1B86D24A76AE942AA5BA2C
:101B50006C72B7AE6C55AE7295CDA67295AB5C2526
:101B6000575D95BA5C25B751B9B0975D87FCEC72AB
:101B7000B95CAE3AB55C2E97DB70955D2E97CB6D58
:101B80007AEBACC360D038323760266595ADA5726C
:101B90004E55E59C54AE56CA2918291D2CB595AE54
:101BA000DCD5AB564BD5EA5EB99DCB6EC7E16597E8
:101BB000CA29A79C72CA29B90D5BC965A74AA96C35
:101BC000B9CB9D2E7739952EE53AA7944BBAE9AA61
:101BD0005255AB6A7575E92B555D555F15D3D659CE
:101BE000679D5D56AEBAAAAB72CA29B274E874FE9C
:101BF000DD654BFB34914E7B9D3CF98E2ABB92D91F
:101C00007ED5C9DD2D979D7AB5561FFC964EA7D37C
:101C1000116E977295750A9D5B59CA4A052F66E544
:101C2000AD9DB3DBD8B7CAB999DCD062B6B2D9CA18
:101C300066439B735BE7F641523737D09CCD87C62E
:101C4000EC76A75CA953B9CAC694CD070FE6F35941
:101C5000E5946BBB5535822AA91C9172D2F1E5F34C
:101C600059E59C6ABB558E5539E7AE9D2A752A57B2
:101C7000D9109B2D756A55D950573B3793BA9C2A7A
:101C80009B52972A5557AE7255B9CA56572D2B57A6
:101C9000CAD55555AEAAEB5BC9B33955AEB24E3A6B
:101CA000A5D24959212A9BCDE7E3DF56D249659752
:101CB0004A2E9D54D2C9AA238AA85475AAABBAAA9F
:101CC0003A555D55DD55ADAA52A552B54C7F4AC96E
:101CD0004E55A952AAEAAAAAEAAAAEEA5457AAAB52
:101CE000AA4E7FC5249554CA29A994726EBBCE868C
:101CF000FEAD56444AE9B452CA274BA54A76AAEA31
:101D000056A9565925D5A9D4A9AA5BA53A592A5549
:101D100072AD94D269A59E2C05B96D9574AE942AC6
:101D2000E574A914912BA2534CAE986E2A77BEAEDF
:101D3000D67D9752A594734A0E3B46379B228B6EF5
:101D4000B6E8A21BB602281F70E79CDB6EB7DBADBE
:101D5000545239A7E4361DDAD2E9AD9252E9D09C4B
:101D60006E9D4E077BA595545249259554D2B99046
:101D7000356C36E2743A9D4EA7A34FA7D3E9743A67
:101D8000BDDD6EB7DBED76BBDD6EB7DBED76B6EDB8
:101D900076BBDD6EA305191FD0944E2AA9A4726EDE
:101DA0003B16D3E9AD924A3AA7B34B159494DE2A79
:101DB00027B7524925B7C3425B2595E4B4E9743A85
:101DC0009D4EA7D349259554524925954EA7D3E951
:101DD000743ABD25043D37D095DD6E974AA232BDD9
:101DE0005552C96DE84E6F9554721B3A9554D239CD
:101DF000E79C93CA6E57721B083DBBDD4A65B7DB93
:101E0000ED3AC877E99C73CE3985BBEC5229483846
:101E10008B48A974D062CE39E79C7376BBDD6E9790
:101E2000CA39E794DC86EEF476ABA473CE39E79C2E
:101E300073DBED36FA747AABA473CE39E79C73CEBC
:101E400039A7E4361DB4052A37D09BDD2E955452B0
:101E50004925955452A5D3E958D3E9F0964E6FB76A
:101E60004A2AA924129592A13FADA4546C3B19CEE5
:101E7000766E1BF276CEC155E14C8D38990E1A4C18
:101E80002B892FE7E046DCA59DB3C3763B177A95F7
:101E9000740E5BA3339D4EA7D3E974524925954236
:101EA0002A322FB0BC5452492595545249DEB4927F
:101EB000844B2595545249259554524965B74B2575
:101EC0009554524965479DDC6EB7DBAD9278B2EB15
:101ED000743A9D0E5FE9909B735249259554D2291F
:101EE00062E79C73CE39E7D3E9743A7E74A583D652
:101EF000D25B65B74AEA741892DBED763BA5B2C3B4
:101F00006E2BA9A4DAA6D3D9A57252E12B9D4EA7B8
:101F10005B6EC36E76A9D018DEF8B64A2AA9A492E1
:101F20004A8EDD743A9D4EA7D3E9743A74A5D3E97D
:101F3000743AFA743A9D0ECD3237E0211D7F3A9DF6
:101F40004E872DFC66974A2AA9A4924A2AECEF9C58
:101F5000C3B573CED9E9B26FB7DB6DD8CA2E95730E
:101F60008A4929B94D074B66974A492515B2ECD0E5
:101F70005798B3DBED76BB0DEDE9ED564925955449
:101F8000524925ED76D43965A34D3B872F25A1BB5A
:101F9000AC1C655BE7945472CCB9613BE7A4924AF0
:101FA0002AA9A4924A2AE794DCA6ED76BBDD6EB797
:101FB0004B25A1243737B0B954CE39E79C73CE49AD
:101FC000652757CE39B70D5DE9AD73CE49654757E3
:101FD00076BBDD6ED7E15F49E7A4C25FD0527AE4F9
:101FE000659748B3A12BBDB5DB2DCC2895734A2A44
:101FF000A9A4924A3A27B593CA6EB7DBED76BB0E19
:1020000016DD39E79C5372AC3A0729AA6D3A682964
:10201000BD754E2ABB4E074DA5B34BE5DC36E84EE9
:1020200049259D734E2AA9A4924A2AE79C73CE396A
:10203000259D73CE39E71CDC041B100058AC5656A6
:102040005610565656465656561056560056561068
:102050005656564656560200020103030303230355
:1020600020032B030B130B000B438B030B130803F1
:102070002B1B10565646565656105656005656109E
:102080005656564656565610565656AC58002B03C2
:1020900008130B038B430B002B132B032B03200381
:1020A0002303230323012200220502180000001845
:1020B000050200181818000908400D410D410D4196
:1020C0000D4009200080C060B018007EBF5701FAA3
:1020D000005EF000DF1F03000F003E0300F7E00288
:1020E00054200400040005030920BF7E0018B060DE
:1020F000C280001FDF00F05E00FA0157E0F7000326
:102100003E002F00230305000400040004001720F4
:10211000000080C0E0F000FC7E7F7F7F7F7F7F7FBC
:102120007F7F7F7F7F7F7FAEB0B73B83BDBEBE3FEB
:10213000BFBFBFBFBFBF80BFBFBFBFBFBFBF060165
:102140001D387BF70FEFC0DFDFDFDFDFDF1FDFDFF3
:10215000DFDFDFDFDF000800080008000B070F0FDC
:102160000F0F8F0F800F8F0F8F0F8F0F17207F7F15
:102170007F7F7F7F7F7F7F7F7F7F7F7F7EFC00F001
:10218000E0C0840000BFBFBFBFBFBFBF80BFBFBF35
:10219000BFBFBF3FBEBEBD833BB7B0AEDFDFDFDF3B
:1021A000DFDFDF1FDFDFDFDFDFDFC0EF0FF77B38D1
:1021B0005D01460F8F0F8F0F8F0F800F8F0F0F0F47
:1021C0000F070B0008000800080009080401F18946
:1021D000C9E9F1010409080401F1090949F10104FF
:1021E0000F1000F50101F50171557101F50101F5BF
:1021F0000000230222032202AB0222032202234018
:102200003D105656465656561056560056561056BF
:102210005656465656561056560056561056565650
:102220004656565610565600565610565656465650
:102230005656105656005656105656564656562B5B
:102240000308130B038B430B002B132B032B0320CF
:1022500003230323032300230323032303A80323CC
:10226000032303234003030303230320032B032B34
:10227000132B000B438B030B1308032B0E370000AB
:102280000080000880C8E070385C0E00E070B91C67
:102290000E570301EA0000FD0000EF00FA0000FF06
:1022A0000000FF0000FF0000EF00FF0000FFF84803
:1022B00027FCFCFF0000EF00FF0000F70704E80F19
:1022C0000FFF000007001F0000FF0000FF0000FFDD
:1022D000000000000000000000000700003F0000B8
:1022E0000E380D025B3870E0C080200022002240D2
:1022F0000000FD0000EA0103570E1CB870E000006A
:10230000FF0000FF0000FF0000FA00EF0000FFFCEC
:10231000FC2748F8FF0000FF00EF0000FF0F0FE868
:102320000407F70000FF00EF0000FF0000FF0000BF
:10233000FF00001F0007B040DF00000700000200A0
:10234000020002000F388800000080000880C8E00A
:10235000F0F8FCFE00C0E0F0F9FCFE00FFFFFF7F9C
:102360007FBFBF00DFEFEF07F7FBFCFDFEFE00FFC6
:10237000FFFF00EFEFEFE0EFEF0FEFEFEFE0EFEF3A
:10238000EF00F7EFEF1FDFBF007FFFFFFFFFFFFF53
:102390000003070F003F7FFFFFFEFE01FDFBFB0078
:1023A00000000000000000010307001F3F7F000F36
:1023B000380DF2FBF8F0E0C080200022002200225D
:1023C00000BFBF7F7FFFFFFF00FEFCF8F0E0C00012
:1023D000FFFFFF00FEFEFDFCFBF707EFEFDF00EF66
:1023E000EFEFE0EFEFEF0FEFEFE0EFEFEF00FFFFCA
:1023F000FFFFFFFF7F00BFDF1FEFEFF700FBFBFDDD
:1024000001FEFEFFFF7F3F000F0703B04FDF1F00FD
:102410000703010200020002000214180E00060267
:102420000000000000000000008080808286000E16
:1024300000000000000080008030B034B234B234BC
:10244000B23400000000100C1C0D0C0D0CAD0C0D76
:102450000C0D1C0D0C0D408014180E00E612C8085F
:10246000E404740404F404E408C812E6000E000056
:10247000FF00BD00F7007F0000FEF68282F6FE003E
:10248000000000001F101710171017B010161016BC
:102490001016101E4080212000D606F6E606D6064D
:1024A000060606D606261606D606060606D606062C
:1024B0000606D606E6F606D60000FF00BD8300FF3E
:1024C00000AEAC00FF0000F84C054CF80000FF0027
:1024D000ACAE00FF0083BD00FF0000FF00F77B00F3
:1024E000FF00460200FF00004F08E8084F0000FF11
:1024F00000820600FF007BF700FF000007060606CB
:102500000607060606060706060606578606860618
:1025100087068606A6470606060607003D38100011
:1025200010000000002000220022002200220002F1
:102530000002040200020080008800800080008801
:102540000008000800080008000800880088000053
:102550000080008800880088100800110011001118
:1025600000012000200020000000200020000200C8
:1025700002000010001000100010000000002000F9
:1025800020042004000400140014000000002000B7
:1025900020000000200020000400000004000000D3
:1025A0001000040000000000000000000100000016
:1025B0000000040004000000000000000000000013
:1025C0000000000800000000000000000000000003
:1025D00000001000040080008040004000008000E7
:1025E000800000400040000080000040000000002B
:1025F000000000000000000000000040000080001B
:10260000004000400000800080000040004080004A
:1026100080001502048A04004520050014081400F7
:10262000140210001100110011001100110011001E
:1026300055001100110011200100010011001002CD
:1026400014001408140005204500048A0402150033
:1026500020012000200020002000000000000200D7
:1026600002000200020002000200020002552200E5
:102670002200220022012A10820002000200000033
:1026800000002000200020002001200000000000A9
:1026900000000002000200020002000240220402C8
:1026A000000200020002000200020100000000001F
:1026B0000000000000000108108000000000000081
:1026C0000000000000000000000A000C11FF0101E2
:1026D000FDFD0D0DFDFD0101FFFF00008FCFE0E0CE
:1026E000CF8F0000FF010101010101010101010182
:1026F00001FF0101FDFDCDCDCD0D0101FFFF00006A
:102700008FCFECECCC8C0000FF0101010101010135
:102710000101010101FF0101FDFDCDCDCDCD010183
:10272000FFFF00008CCCECECCF8F0000FF0101011B
:10273000010101010101010101FF0101FDFD81C153
:10274000FDFD0101FFFF00008FCFE7E3CF8F000009
:10275000FF010101010101010101010101594F5571
:1027600020464F554E440008080AF403808003F4C5
:102770000A101002050A05020108000008010205FE
:102780000A0502AA550A000000000000000000002F
:102790000A55AA3F20007F7F7F7F7F7F7F7F7F7FDB
:1027A0007F7F7F7F007F7F7F7F7F7F7F7F7F7F7FB8
:1027B0007F7F7F7F007F7F7F7F7F7F7F7F7F7F7FA8
:1027C0007F7F7F7F007F7F7F7F7F7F7F7F7F7F7F98
:1027D0007F7F7F0000BFBFBFBFBFBFBF80BFBFBF86
:1027E000BFBFBF00BFBFBFBFBFBFBF80BFBFBFBFF7
:1027F000BFBFBF3FBFBFBFBFBFBFBFBF80BFBFBFA8
:10280000BFBFBF00BFBFBFBFBFBFBF80BFBFBFBFD6
:10281000BFBF0000DFDFDFDFDFDFDF1FDFDFDFDF86
:10282000DFDF00DFDFDFDFDFDFDF1FDFDFDFDFDF57
:10283000DFDFC0DFDFDFDFDFDFDFDF1FDFDFDFDF87
:10284000DFDF00DFDFDFDFDFDFDF1FDFDFDFDFDF37
:10285000DF00000F0F0F0F0F0F0F000F0F0F0F0FE5
:102860000F000F0F0F0F0F0F0F000F0F0F0F0F0F96
:102870000F5F8F0F8F0F8F0F8F0FA04F0F0F0F0F47
:102880000F000F0F0F0F0F0F0F000F0F0F0F0F0F76
:1028900000392789CE55729B4EA7D3E9743A9D4ED5
:1028A000A7D3E9743A9D4EA7D3E9747A5BC9CE11D8
:1028B000E9743A9D4EA7D3E9743A9D4EA7D3E974C3
:1028C0003A9DB62A95EB64F5AF5254F09C87CFF849
:1028D000E0390F9FF1C1731E3E63739DACEC3A9DCE
:1028E0004EA7D3E9743A9D4EA7D3E9743A9D4EA7FB
:1028F000D3E9ECB272DD56A7D3E9743A9D4EA7D363
:10290000E9743A9D4EA7D3E9743A9D4EA7DB0E0AAF
:1029100058502020000A44462020000A4150202020
:102920000048502020000404090606090404060992
:1029300009060403090412010002EF0201404123C9
:10294000368000010102030141726475696E6F20D7
:102950004C4C430041726475626F79204465764B3C
:10296000697400FF81ED05F595D505DD85B1A5ED0F
:10297000017F7F405E525A4A6A026E425E5455455C
:102980007F7F55057D415D15545751DD05FD017F64
:102990007F415D5750555D017F405F505E427FFF34
:1029A00001DD5155155754D515F585ED21FF7F40B3
:1029B0005654545054145654565256407FFF09ED05
:1029C00021ADA5B7A0BFA52DA5AD81FF7F405F506C
:1029D0005B407E026A4B58535E407F7F01FD416D34
:1029E000496F21ADA58FA5BD81FF7F415D515D443C
:1029F0007515555456525A407F7F455551DD4575E2
:102A00001175057515FD017F7F415D505B416D01BD
:102A10006D415F407B417FFF01D755DD01FF81BDE7
:102A200025ED813DA1FF7F405F427A426E086B42F7
:102A3000486F404A7FFF01EF89B9A1A181A1A1B9E7
:102A400089EF01FF7F405E425A4A7803784A5A4232
:102A50005E407FFF81FD05EDA9ABA0BF81ED05FDC7
:102A600001FF7F405A525A527E0276525A425B48C8
:102A70007F7F41DD455D511754D595B5A5AD81FFEB
:102A80007F405F415B497B425A5278525E407FFFF4
:102A900041557505D57D04DF01F515DD417F7F4486
:102AA0005F55505B407F415C47505F407FFF01FDB9
:102AB00005DD555504F711515515457F7F40764486
:102AC0005D417F04774451555C417F7F417D05DD49
:102AD00051555555D5555575057F7F405F515D4022
:102AE0005F515D4555515F407F7F21BD85B185FDBB
:102AF0000077C51555DD417F7F415F405E525650DE
:102B00005545575477407F00027D7F00023D3F08C6
:102B100008B0B0AC944B27D0CF0808CFD0274B9447
:102B2000ACB0B008080D0D3529D2E40BF30808F35A
:102B30000BE4D229350D0D200001020408102040BD
:102B40008003071F051F1F151B1F11111F110E1FCB
:102B500015111F05011F111D1F041F001F0010105C
:102B60001F1F041B1F10101F061F1F011F1F111FF7
:102B70001F05071F311F1F051B17151D011F011FF3
:102B8000101F0F100F1F0C1F1B041B071C0719150C
:102B9000131F111F001F001D151711151F07041FFC
:102BA00017151D1F151D01011F1F151F17151F00CC
:102BB0001700002000080B000202020100090400B7
:102BC000000102020000052400100105240101019A
:102BD00004240206052406000107058103100040B5
:102BE00009040100020A000000070502024000007B
:102BF0000705830240000000113211241FBECFEFF1
:102C0000DAE0DEBFCDBF12E0A0E0B1E0EAECF6E62C
:102C100002C005900D92A430B107D9F728E0A4E0D6
:102C2000B2E001C01D92AE30B207E1F715E1CDEF81
:102C3000D5E104C02197FE010E945833CC3FD10753
:102C4000C9F70E94F5270C9463330C9400002F926F
:102C50003F924F925F926F927F928F929F92AF922C
:102C6000BF92CF92DF92EF92FF920F931F93CF9379
:102C7000DF931F92CDB7DEB700912A0610E0035014
:102C80001109412C80912A0690E003968017910744
:102C90000CF446C020902906312C22E0221A31087B
:102CA00085E0489E70011124570126E0A20EB11C58
:102CB00087E0E80EF11C512C8091290690E00296E5
:102CC000821593054CF137FC22C0809139062FE024
:102CD000829FC001112428163906CCF417FD17C0B5
:102CE00080913A062FE0829FC0011124081719072E
:102CF00074F484E0581272C0411070C008C03636B7
:102D000009F4DCC008F0D0C0343608F0D0C05394C9
:102D10008FEF281A380AD0CF43940F5F1F4FB2CFDE
:102D200080912B06843050F490E0FC01EB52FE4F72
:102D30000081FC01EF52FE4F808102C080E000E084
:102D4000E82EF12CB7016A5F7F4F10E00E591F4F3C
:102D5000603471052CF420E042E0C8010E940C258B
:102D6000B701695F7F4F603471052CF420E042E0C9
:102D7000C8010E940C2586E48093A2078093A107D6
:102D800088E08093A30760912C0681E299E20E947B
:102D9000A62660912E068BE199E20E94A6266091FC
:102DA0002D0685E199E20E94A62660912F068FE00C
:102DB00099E20F90DF91CF911F910F91FF90EF90CB
:102DC000DF90CF90BF90AF909F908F907F906F904B
:102DD0005F904F903F902F900C94A62640E0602F7C
:102DE000822D0E94FD22382F813009F490CF80E09F
:102DF00090E0FC01E75AF94F60814181268127FF6D
:102E000010C070E06215730561F450E0401751077F
:102E100041F425E0529EC001112420E04CE259E229
:102E20001DC00796823D910521F780E090E0FC01EE
:102E3000ED5BF84F60814181228127FF15C070E072
:102E40006215730589F450E04017510769F425E0D5
:102E5000529EC001112420E046E259E2B5018E598C
:102E60009F4F0E949B2453CF03968A359105F9F614
:102E700085E0589E60011124360122E6620E711C25
:102E8000460186E6880E911C6814790409F437CF50
:102E900021E044E0B501C30139830E9457202FEFA0
:102EA000621A720A3981F0CF373609F030CF20E04C
:102EB00042E0B701C6018D599F4F06C020E042E0B5
:102EC000B701C6018C599F4F0E94572020CF2F92E7
:102ED0003F924F925F926F927F928F929F92AF92AA
:102EE000BF92CF92DF92EF92FF920F931F93CF93F7
:102EF000DF93CDB7DEB728970FB6F894DEBF0FBECD
:102F0000CDBF009129060F8310912A061887809162
:102F10002B06813041F000F1823009F443C0833048
:102F200009F45CC082C0EE24EA94512C01E0712CBB
:102F3000D12C3FEF3A836624639472E0472E11E070
:102F400031E0398330E099249A94E2E03E2EF3E0B8
:102F5000AF2EA2E02A2E3DC00885802F90E0BB2432
:102F6000B394833091050CF4B12C88248394029798
:102F70000CF4812CE12C5524539400E077247A94AE
:102F80005EEFD52E1FEF1A8366246394412C3EEF2B
:102F900039833DEF6EEF962E33243394A12C2224F7
:102FA0002A9454C0E12C55245A9400E07724739459
:102FB00022E0D22E11E01A8366246A94412C32E07A
:102FC000398333E042E0942E33243A94A12C222416
:102FD000239488248394BB24B39438C00F81802F1A
:102FE00090E0BB24B394833091050CF4B12C882479
:102FF000839402970CF4812CEE24E394512C0FEF70
:10300000712CD12C11E01A8366246A94AEEF4A2EFB
:103010001FEF3FEF398330E099249394BEEF3B2EAE
:103020008DEFA82E9EEF292E11C0E12C512C00E02F
:10303000712CD12C1A82612C412C10E0198230E0C5
:10304000912C312CA12C212C812CB12C3E830E945F
:103050001E2721E041E958E264E070E082E490E05C
:103060000E944F254CE155E264E070E084E090E07E
:103070000E94EB213E81BB2009F44CC06885630FA0
:1030800040E08F818A0D0E94FD22882309F442C00E
:103090008456843070F490E0FC01EF55FE4F30818F
:1030A000FC01E356FE4FF080FC01E756FE4FC08066
:1030B00003C0C12CF12C30E0F4E0AF2EB12C4A2D2E
:1030C00041704B831C824B815C81415E5F4F21E0EC
:1030D000B50187EA97E03E830E9488265FEFA51A34
:1030E000B50A3E8161E4A616B10449F7131694F4BB
:1030F000E32FEE0FFF0BEB55FE4F408151816C2DFE
:10310000CC0C770B6C5F7F4F8F2DFF0C990B0396C8
:103110000E94EB21811002C0D12C5CC06885690D32
:1031200040E08F81820D0E94FD22882341F041E71B
:1031300050E26BE170E084E090E00E94EB21698155
:103140003885630F40E08F81830D0E94FD22882324
:1031500041F049E350E26BE170E086E290E00E94CA
:10316000EB2168856D0D40E08F81840D0E94FD226A
:10317000882391F28456843008F0CAC1282F30E0A9
:10318000F901EB56FE4FD080F901EF56FE4FC0809B
:10319000F901E357FE4FB08040E052E26BE170E08E
:1031A00084E090E00E94EB211D1494F4ED2DEE0FCD
:1031B000FF0BEB55FE4F408151816B2DBB0C770B04
:1031C0006C5F7F4F8C2DCC0C990B03960E94EB21EA
:1031D000DD24D3946A813885630F40E08F81810FAD
:1031E0000E94FD22813039F44CE651E262E170E048
:1031F00084E090E00AC0843611F0873641F448EE4E
:1032000050E263E170E082E190E00E94EB2168858A
:10321000610F40E08F81860D0E94FD22813029F4EC
:103220004EE051E262E170E008C0843611F087366A
:1032300041F442EC50E263E170E08AE290E00E94E7
:10324000EB2140E06885670D8F81800F0E94FD2291
:10325000FF24F394811102C0F12C40C0853699F00F
:1032600028F4813041F0843651F015C0863679F06B
:10327000873629F010C02EE030E011E00FC02EE0BC
:103280003FE012E00BC025E136E113E007C025E185
:1032900036E114E003C020E030E01FEF43E957E2DD
:1032A00062E170E083E090E02D833E830E94EB2199
:1032B0002D813E811F3F91F0E12FEE0FFF0BEB556B
:1032C000FE4F40815181622F220F770B6C5F7F4F41
:1032D000832F330F990B03960E94EB2168856E0DA7
:1032E00040E08F81870D0E94FD22813019F44FEA62
:1032F00053E206C0843611F0873641F440EE52E2C4
:1033000064E070E083E090E00E94EB216885600F4C
:1033100040E08F81850D0E94FD22813039F444E424
:1033200053E264E070E083E390E00AC0843611F079
:10333000873641F44CE752E264E070E084E390E0C9
:103340000E94EB2180912B06F11058C020E030E064
:10335000E82FF0E0DF01AB57BE4F0F81602F70E028
:10336000AF0147575E4F4A015885052F10E0A9016C
:10337000475A594FFA01E080C180968197FF19C0E2
:103380009C91F12CF4015081550F5B01A50EB11CED
:1033900057FDBA94EA14FB0461F44C2D50E0990FE8
:1033A0007801E90EF11C97FDFA944E155F0509F4BA
:1033B000B3C0295F3F4F223D3105C9F6D1101EC071
:1033C00040E050E090E0DC01AB57BE4F0F81602F32
:1033D00070E09C0127573E4F69013885032F10E0AC
:1033E0009A01275A394FF901E0808181968197FD32
:1033F0009AC0495F5F4F423D510591F7AFE5B6E096
:10340000E5E48E2EE7E09E2EF12C0F81202F30E098
:103410001885412F50E0FD01369760813196F0818B
:10342000EC91E7FF24C08091290690E08C01061BF7
:103430001109B80180912A0690E08F1B910951F47F
:1034400017FF04C000271127061B170B01301105B9
:1034500071F4FEC0012B59F48C0197FF04C00027C2
:103460001127081B190B0130110509F4F5C08091D3
:103470002802843011F0873049F5F4013297008139
:103480003196E080F401B080B7FE20C080912B0619
:1034900090E0BC016B577E4FFB01708110E08757B5
:1034A0009E4FFC018081F901E80FF11D87FDFA951F
:1034B0000E171F0759F48E2D90E08A01070F111D7A
:1034C00077FD1A958017910709F454C0F394179665
:1034D00013E0810E911C6EE1F6129DCF28960FB677
:1034E000F894DEBF0FBECDBFDF91CF911F910F913A
:1034F000FF90EF90DF90CF90BF90AF909F908F9014
:103500007F906F905F904F903F902F900C94271674
:10351000B12CC12CD12C40CE41E757E269E170E0DB
:103520008BE190E024C09C91F12CF6012081322F98
:10353000330F230FFB01E20FF11D27FDFA95EE1665
:10354000FF0609F056CF282F30E0892F880F980FFB
:10355000F801E90FF11D97FDFA952E173F0709F0C5
:1035600048CF47E657E26CE170E08EE190E00E94C0
:10357000EB2144CF4B2D4F77B42E51E0451761F02E
:103580008DEF8B0D833018F462E1D62E07C043E136
:10359000D42E57E1E52E04C034E1D32E24E1E22EEF
:1035A0000EE010E020E04BE26BE070E0C8010E940A
:1035B00057200F5F1F4F07331105A1F70FE010E0F1
:1035C00021E049E26CE070E0C8010E9457200F5FE3
:1035D0001F4F06331105A1F7EB2DF0E0EE0FFF1F93
:1035E000E35AFE4F408151816D2D70E020E08E2D19
:1035F00090E00E944F251092A40711E11093A207BA
:103600001093A1078CE08093A3078DE597E20E94B9
:10361000F221EFEFEB0DE53090F4F0E0EE0FFF1F3D
:10362000ED5AFE4F80819181009749F01093A207D7
:103630001093A1072EE22093A3070E94F22181E0BC
:103640008093A40787E080932802F092100246CF6F
:103650006115710509F056C0672B11F081E009C0B2
:10366000181619061CF410922B0605C0892B19F0A8
:1036700082E080932B06EF73E13069F0E23071F065
:10368000E33079F0E43081F0E53089F0E63091F410
:1036900086E10DE011C085E00BE00EC08AE008E095
:1036A0000BC083E000E108C085E003E005C080E1D5
:1036B00007E102C085E006E02E2F30E0C82ED12CB5
:1036C00010E05901AA0CBB1CF501E958FE4F4081DE
:1036D000518120E0B601C8010E944F25F501E7594C
:1036E000FE4F4081518121E0B601C8010E944F2563
:1036F00080912802843019F489E080932802F092A6
:103700001102ECCE161617060CF0A6CF83E0B1CF4F
:1037100020912B064BEC56E26BE270E082E490E0E5
:103720000C949B24EDE9F7E080E5858384838CE2AB
:1037300086838BE396E00E94072089EC96E20E9444
:10374000F22187E496E00C940720FC0180911A0294
:10375000811103C08FEF9FEF08959FB7F89482E027
:103760008093E9002091F20030E01216130614F461
:1037700021E030E02115310559F0289884E6809346
:1037800019028091F10080838091F200882319F062
:103790009FBFC90108958BE68093E800F9CF2FB74A
:1037A000F89483E08093E9009091E800892F80727B
:1037B00095FF04C09091F20080E4891B2FBF08950B
:1037C000CF93DF931F92CDB7DEB76983DC01ED9114
:1037D000FC910280F381E02D41E050E0BE016F5F7B
:1037E0007F4F09950F90DF91CF91089583E08093EB
:1037F000E9008091F200882319F08AE38093E800C1
:1038000008950E94CF1B90E00895CF93DF931F92FD
:10381000CDB7DEB7FC018485958597FD05C02FEFF8
:103820003FEF358724870BC0CE0101960E94A51B70
:10383000019719F4898190E002C08FEF9FEF0F90FC
:10384000DF91CF9108950F931F93CF93DF931F9232
:10385000CDB7DEB78C01FC018485958597FF0EC03E
:10386000CE0101960E94A51B019719F4298130E031
:1038700002C02FEF3FEFF80135872487F8018485D8
:1038800095850F90DF91CF911F910F910895FC01C5
:103890008485958597FD0BC09FB7F89482E080934F
:1038A000E9008091F2009FBF90E0019608959FB7D4
:1038B000F89482E08093E9008091F2009FBF90E04D
:1038C00008958F929F92AF92BF92CF92DF92EF9224
:1038D000FF920F931F93CF93DF935C016B017A01EB
:1038E00080910C01882309F45BC080911A0288231F
:1038F00009F456C08091180280FF05C08091E00055
:1039000082608093E000E70110E00AEF83E0882EF8
:103910009AE3992E2097D9F10E94CF1B81110AC0FA
:10392000015009F43DC061E070E080E090E00E9449
:103930001724F0CF282F30E0C217D3070CF48C2FB8
:103940004FB7F8948092E9009091E80095FF1DC070
:10395000282F30E0C21BD30BF601982F915020F096
:1039600081918093F100FACFC20ED31E112319F07A
:103970009092E80009C08091E80085FD06C0909211
:10398000E80011E0209709F010E04FBFC3CF1111FC
:10399000C3CF5D9884E680931B021E141F0444F07D
:1039A00081E090E0F5019383828380E090E001C0A4
:1039B000C701DF91CF911F910F91FF90EF90DF90A2
:1039C000CF90BF90AF909F908F900895EF92FF920D
:1039D0000F931F93CF93DF937C01EB018A0140E0AB
:1039E000602F8C2F0E94FD22882361F0E114F104E6
:1039F00009F44DC040E0602F8C2F0E94FD228636D6
:103A000009F045C08091530690915406FC0132960E
:103A1000AC01465E5F4FDF0112972C9111968C919D
:103A2000908197FF0CC09F779456923040F430E01D
:103A30002C173D0721F490E08017910741F1339650
:103A4000E417F50741F780E090E0FC01E75AF94FF1
:103A500040812181368137FF08C050E04C175D0757
:103A600021F430E02017310791F00796823D91054F
:103A700061F7E114F10469F0F701808190E08C179F
:103A80009D0739F4818190E08017910711F480E05F
:103A900001C081E0DF91CF911F910F91FF90EF90D6
:103AA00008958091200281110DC082E080931C0254
:103AB00084E080931D0210921F0210921E0281E08A
:103AC000809320028CE192E008951F920F920FB62E
:103AD0000F9211248F939F938091E1009091E100C8
:103AE000937F9093E10083FF0FC01092E90091E073
:103AF0009093EB001092EC0092E39093ED00109203
:103B00001A0298E09093F00082FF20C093E0909317
:103B1000E9009091F200992319F09AE39093E8005C
:103B200090911B02992339F090911B029150909330
:103B30001B02992389F190911902992339F09091F0
:103B40001902915090931902992341F184FF10C0FA
:103B50008091E2008E7E81608093E2008091E1009E
:103B60008F7E8093E100809118028E7E806111C06B
:103B700080FF16C08091E2008E7E80618093E2001B
:103B80008091E1008E7E8093E100809118028E7E0C
:103B900081608093180204C05D9ACDCF289AD6CF59
:103BA0009F918F910F900FBE0F901F9018951F92AD
:103BB0000F920FB60F921124CF92DF92EF92FF92E5
:103BC0000F931F932F933F934F935F936F937F9325
:103BD0008F939F93AF93BF93EF93FF93CF93DF9315
:103BE000CDB7DEB76C97DEBFCDBF1092E9008091F4
:103BF000E80083FFEDC168E0CE0145960E94E8270A
:103C000082EF8093E8008D8987FF05C09091E800DE
:103C100090FFFCCF03C09EEF9093E800982F907622
:103C200009F0C6C09E892F89188D91110CC080386B
:103C300029F4809117028093F10002C01092F100E4
:103C40001092F10048C1422F50E0512B913051F4B5
:103C5000811141C14130510509F03DC180911702E8
:103C60008D7F0BC0933061F4811135C14130510516
:103C700009F031C1809117028260809317022BC135
:103C8000953041F48091E80080FFFCCF20682093BC
:103C9000E30021C1963009F05FC0EB8CFC8C1092E0
:103CA000E9001092150210921402123091F5109250
:103CB0001302109212020E94B62799E0BE016F5FB4
:103CC0007F4FDB01E92F1D92EA95E9F799831A836B
:103CD00091E09E8390EA98879AEF99872091140249
:103CE00030911502275F3F4F3C832B838D831092C9
:103CF000E9001092150210921402F0921302E09261
:103D0000120249E050E080E00E948F270E94B6270F
:103D1000E2C0F0921302E09212020E94511DDC01F7
:103D20001296ED90FC901397E114F10409F4C0C0D1
:103D3000D701ED91FC910480F581E02DBE016B5E11
:103D40007F4FC7010995009719F00CF0C4C0C7C098
:103D5000F701E084F184E8CF973009F4C0C09830CF
:103D600021F481E08093F100B6C0993009F0B3C02E
:103D7000837009F0B4C0EAEDF1E081E021E036E3C0
:103D80009081992361F08093E9002093EB00919159
:103D90009093EC003093ED008F5F873089F78EE7CA
:103DA0008093EA001092EA008F8980931A0293C0F0
:103DB0008B8D9C8D1092E9001092150210921402C6
:103DC0009093130280931202898D811156C08E89BF
:103DD0009D89913A59F4813209F081C047E050E061
:103DE00065E071E080E00E948F2775C0913209F094
:103DF00076C0833289F4888D90E0982F88272F89A8
:103E0000822BA0E0B0E08093010190930201A09387
:103E10000301B09304015FC0803269F48091E8002F
:103E200082FFFCCF67E085E091E00E94E8278BEFFE
:103E30008093E80006C0823209F04DC08F898093DC
:103E40000C0180911602882319F0EEEFFAE002C00F
:103E5000E0E0F8E08091050190910601A091070152
:103E6000B0910801803B9440A105B10509F07BC0E9
:103E700080910C0180FF93C076C00E94511DDC012F
:103E800012960D911C9113970115110541F1D8015E
:103E9000ED91FC910190F081E02DBE016B5E7F4FB2
:103EA000C8010995811117C0F80100851185ECCF73
:103EB000113009F44EC0133091F48F89882309F42E
:103EC00045C0823081F440E86EE084E599E20E94CA
:103ED0004732882321F08EEF8093E80079C081E299
:103EE0008093EB0075C0813029F440E86BE088E4F2
:103EF00099E2EDCF833099F70E94511DDC011296B3
:103F0000ED90FC9013978E010F5F1F4F6801E11435
:103F1000F10479F0D701ED91FC910680F781E02D55
:103F2000B801C7010995080F111DF701E084F1845C
:103F3000EECFD8011C92F60101900020E9F73197ED
:103F4000BF016C197D0940E0C601C1CF62E379E28F
:103F500002C066E379E26115710509F2FB01449143
:103F600050E080E840CF0FB6F894A89580916000AB
:103F7000886180936000109260000FBEA895EE3FAC
:103F80002AE0F20739F08091FE0A9091FF0A9183AE
:103F90008083A1CF1092FF0A1092FE0A9CCFEE3FC1
:103FA0008AE0F80731F0808191819093FF0A809335
:103FB000FE0A87E797E7918380839BE088E10FB64D
:103FC000F894A895809360000FBE9093600083CF13
:103FD0006C960FB6F894DEBF0FBECDBFDF91CF91C8
:103FE000FF91EF91BF91AF919F918F917F916F91D1
:103FF0005F914F913F912F911F910F91FF90EF9003
:10400000DF90CF900F900FBE0F901F9018950097E4
:1040100069F0FC0101900020E9F73197AF01481BDE
:10402000590BBC018DE997E00C947B2380E090E074
:104030000895CF92DF92EF92FF920F931F93CF9349
:10404000DF93CDB7DEB7A1970FB6F894DEBF0FBEF2
:10405000CDBF282F30E040E050E019A28E010F5D67
:104060001F4F8AE0C82ED12CE12CF12CCA01B901D6
:10407000A70196010E941B33605DF80162938F01D6
:10408000211531054105510589F7CF010E9407200F
:10409000A1960FB6F894DEBF0FBECDBFDF91CF91D2
:1040A0001F910F91FF90EF90DF90CF900895DF92D6
:1040B000EF92FF920F931F93CF93DF937C01D22E49
:1040C0008B01040F111DEB0177FF0EC0C0E0D0E0A3
:1040D0000BC0C417D5077CF42D2DAE01B70187EABC
:1040E00097E00E9488262196A801013411058CF3DF
:1040F00040E450E0EECFDF91CF911F910F91FF9000
:10410000EF90DF9008952F923F924F925F926F92BF
:104110007F928F929F92AF92BF92CF92DF92EF9257
:10412000FF920F931F93CF93DF9300D000D000D066
:10413000CDB7DEB75A010D834115510509F432C1DF
:10414000FA01F49031965491F2E0AF0EB11CAF2D0C
:10415000B0E0222311F1E52FE695E695E6950E2FC6
:1041600010E0E1E0F0E0352F377011F4E0E0F0E02E
:10417000E00FF11FAE9F8001AF9F100DBE9F100D8D
:1041800011243D81333011F4000F111F209FF001E5
:10419000219FF00D1124AE0EBF1E4D814F3F11F433
:1041A00022E02D836C01CA0EDB1E1C141D040CF0D2
:1041B000F9C0803891050CF0F5C09B01250F311D29
:1041C000121613060CF0EEC0603471050CF0EAC054
:1041D000A114B10409F4E6C09B0177FF04C02227B3
:1041E0003327261B370B122F17709B0177FF02C056
:1041F000295F3F4F43E0359527954A95E1F7F22F28
:1042000077FF07C0112329F0FFEFF20F28E0211BF1
:10421000122F97FF05C022273327281B390B02C016
:1042200020E030E040E8C416D10424F040E8642ED9
:10423000681A01C06F2C621A6F2F0F2E000C770BBB
:10424000FF3F1CF4462F409501C040E0E1E0052F00
:10425000077009F4E0E05695569556959E2E950EFA
:10426000690D711D693071051CF0E8E09E2E9F1AE2
:10427000042F0F0F50E80503800D911D1124820FAC
:10428000931F61E070E0012E02C0660F771F0A9451
:10429000E2F75D81533011F0E1E001C0E2E04F9DB3
:1042A000200D311D1124E29F202D112430E07501D5
:1042B000E20EF31ECE2ED12CA9014C0D5D1D4150F6
:1042C00051094A0D5B1DBB24BA94B69E9001B79E5E
:1042D000300D1124290140945094F90DFE83A61944
:1042E000B109EA9FA02D1124B0E0E69DA00DB11DFB
:1042F00011242E81021709F455C09C01275D3D4F02
:104300004A015701712C761409F444C0F501349028
:10431000369EF001379EF00D1124FA83E983E09573
:10432000F095FC83EB83FD81F23019F45C824B82C3
:1043300011C0ED81EB3F19F41A8219820BC0F40110
:104340003490369EF001379EF00D1124E095F095E3
:10435000FC83EB8307FD09C0F9013080EB81E32189
:10436000F9813E2E3F2AF9013082112359F007309E
:104370004CF4F901E058FF4F20803C8023203A8024
:10438000322830828C0C9D1CAC0CBD1C73942F5FAA
:104390003F4FB9CF0F5FEA0EFB1E4A0F5B1F8058DD
:1043A0009F4FA7CF26960FB6F894DEBF0FBECDBFA6
:1043B000DF91CF911F910F91FF90EF90DF90CF9001
:1043C000BF90AF909F908F907F906F905F904F9035
:1043D0003F902F9008950F9302E020E00E948320E9
:1043E0000F9108950F931F93CF93DF938C01C0E03B
:1043F000D0E0F801EC0FFD1F6491662371F0E091AD
:104400009D07F0919E070190F081E02D8DE997E0E6
:104410000995892B11F02196ECCFCE01DF91CF9138
:104420001F910F9108958091300681110AC08091EB
:1044300031068093300680913206809331061092C7
:10444000320680913106811106C080913206809338
:10445000310610923206089565E070E080E090E049
:104460000C9417240F931F93CF93DF93EC014BE031
:1044700050E0BC018BE396E00E94E032BE01655F34
:104480007F4F4BE050E087E496E00E94E032FE016F
:104490007696E491E0932906FE017796E491E09305
:1044A0002A06FE017896E491E0932B06FE017996A8
:1044B000E491E0933906FE017A96E491E0933A069E
:1044C000FE017B967491AFE5B6E04CE160E02C9183
:1044D0002F77671710F080E001C080E8282B2C931D
:1044E00027FF5CC0FE01E40FF11D9491207C292B75
:1044F00081E0840FFE01E80FF11D84918D010650CB
:104500001109F801808382E0840FFE01E80FF11D9C
:104510004D5F84910F5F1F4FF8018083992389F0CD
:104520009130A1F09230B9F09330D1F080E0943026
:10453000E1F09530F1F0963001F536E053E095E08A
:104540001FC081E034E15AE09FE01AC080E03AE009
:1045500055E09AE015C081E038E055E098E010C0E1
:1045600081E03CE056E09CE00BC032E35CE099E186
:1045700007C033E052E094E003C030E050E090E048
:10458000FD01349790833196908331965083319614
:1045900030832F7B811180E4282B2C936F5F17963B
:1045A0006E3109F094CF2EE163E477E0CE010E94F2
:1045B000B42628E0482F6BE277E0CE010E94B426B3
:1045C000D0935606C09355062BE237E0309354063D
:1045D0002093530690E0A0E0B0E0809335069093DE
:1045E0003606A0933706B093380684E080932802FD
:1045F000DF91CF911F910F910895582F862F209111
:10460000530630915406F9013296265E3F4FDF0182
:1046100012977C9111966C919081411102C097FF85
:1046200007C0751305C0681303C0892F8F770895DD
:104630003396E217F30759F7552309F459C0882335
:1046400009F456C040913906E52FF0E0AFE09FE055
:10465000499F9001112421503109E217F30709F411
:1046600047C020913A06E82FF0E09FE0299F900193
:10467000112421503109E217F30709F439C06A2FD8
:104680000E944C33B82F292F852F0E944C33392F8D
:10469000E0913506F0913606E80FF11DB49FE00D6C
:1046A000F11D11248091550690915606E80FF91FCF
:1046B0008491E22FE695E695E6954EE1849FC00150
:1046C00011248D59964D4FE0E49FF0011124E30F22
:1046D000F11DE80FF91F84912770E1E0F0E001C0BF
:1046E000EE0F2A95EAF7E82381E021F480E00895AF
:1046F00081E008950895CF92DF92EF92FF920F9399
:104700001F93CF93DF936C017A018B01C0E0D0E05F
:10471000CE15DF0589F0D8016D918D01D601ED919F
:10472000FC910190F081E02DC6010995892B11F4CF
:104730007E0102C02196ECCFC701DF91CF911F917E
:104740000F91FF90EF90DF90CF9008951F93CF933C
:10475000DF93DC0120E030E040E050E011E0C1E018
:10476000D0E02617370791F114968C911497811198
:1047700015C014961C93149712968D919C911397C3
:10478000ED91FC911197E80FF91FE4911596EC93C8
:104790001597019613969C938E93129714969C915D
:1047A000149715968C911597892349F0FE01022ED6
:1047B00002C0EE0FFF1F0A94E2F74E2B5F2B990FFA
:1047C00014969C9314972F5F3F4FCBCFCA01DF9174
:1047D000CF911F9108950895089580E090E0089585
:1047E0000E945E333FB7F89480910A0890910B08BD
:1047F000A0910C08B0910D0826B5A89B05C02F3FCD
:1048000019F00196A11DB11D3FBFBA2FA92F982FF6
:104810008827820F911DA11DB11DBC01CD0142E071
:10482000660F771F881F991F4A95D1F708958F92B9
:104830009F92AF92BF92CF92DF92EF92FF926B0165
:104840007C010E94F2234B015C01C114D104E104FC
:10485000F104F1F00E94F223DC01CB0188199909DF
:10486000AA09BB09883E9340A105B10570F321E078
:10487000C21AD108E108F10888EE880E83E0981E7C
:10488000A11CB11CC114D104E104F10419F7DDCF5E
:10489000FF90EF90DF90CF90BF90AF909F908F9060
:1048A00008951F920F920FB60F9211242F933F93EA
:1048B0008F939F93AF93BF938091040290910502D1
:1048C000A0910602B09107023091090823E0230F5E
:1048D0002D3720F40196A11DB11D05C026E8230F38
:1048E0000296A11DB11D20930908809304029093A4
:1048F0000502A0930602B093070280910A089091E6
:104900000B08A0910C08B0910D080196A11DB11DD6
:1049100080930A0890930B08A0930C08B0930D089D
:10492000BF91AF919F918F913F912F910F900FBEAB
:104930000F901F9018950F930AEF0E9483200F91FC
:1049400008950F93CF93DF93FC0196816A3031F481
:10495000858184836185960F96832FC0262FEF0172
:10496000848161E0690F2A3344F4203354F4213206
:1049700051F02E32B1F425E207C021542A3120F043
:1049800010C0265101C024E23F81062E000C770B97
:10499000082E000C990B313051F441E45BE20E9487
:1049A0009B2488858D5F9C81890F8C8306C00BEFCB
:1049B00041E45BE20E948320F4CF81E090E0DF914C
:1049C000CF910F91089583B126B19FB130E020952A
:1049D000309520743327A90124E0559547952A95F1
:1049E000E1F7292F30E020953095207C332756E0E1
:1049F000359527955A95E1F7242B80958077822B62
:104A0000089583B7817F83BF83B7816083BF889513
:104A100083B78E7F83BF0895FC01840F911D181604
:104A20001906E4F5E038F105CCF5F7FF02C0E0E047
:104A3000F0E08138910514F080E890E0382F3E1BBB
:104A4000AB0177FF02C0495F5F4F83E05595479503
:104A50008A95E1F75695542F442757954795E40FCB
:104A6000F51FE75DFD4F6770772781E090E001C09B
:104A7000880F6A95EAF7482F222349F0213071F414
:104A8000315020F08081842B8193FACF0895809556
:104A9000315020F0908198239193FACF08952F926E
:104AA0003F924F925F926F927F928F929F92AF92BE
:104AB000BF92CF92DF92EF92FF920F931F93CF930B
:104AC000DF93CDB7DEB72C970FB6F894DEBF0FBEDD
:104AD000CDBF4C016B01022F5A8349831C821B827C
:104AE0001D821E8268E070E0CE0101960E94A6231E
:104AF000019698878F8368E070E0CE0101960E944E
:104B0000A6237C0161E070E0CE0101960E94A623FD
:104B1000782E8F819885880D991D97FDE0C020E83B
:104B2000821691040CF0DBC097012F5F3F4FC60146
:104B3000820F931F97FDD3C040E4C416D1040CF03C
:104B4000CEC07601D7FE04C0EE24FF24EC18FD0889
:104B500057E0E522FF24A601D7FE02C0495F5F4F60
:104B60002A0163E0559447946A95E1F7D7FE09C09E
:104B700081E0481A510888E090E0AC014E195F09C5
:104B80007A01190137FF03C057E0250E311C53E0AD
:104B9000359427945A95E1F727703327232B19F082
:104BA0008FEF281A380A6624639410E0C12CD12CA8
:104BB000A12CB12C88E090E09C012E193F093A8786
:104BC0002987A214B3040CF08AC021E030E061E030
:104BD00070E0CE0101962B873C870E94A6232B858F
:104BE0003C85892B19F42E5F3F4FF1CFB901CE01DF
:104BF00001960E94A623DC01119620E030E02A17DE
:104C00003B0708F065C071101629660C09F05DC0FD
:104C1000B2016A0D7B1DCB010196099708F041C0D6
:104C2000C601880D991D80389105D8F5CB01969560
:104C3000982F882797958795880D991D8C0D9D1D18
:104C40006F3F4FEF740709F446C0412F0E2C01C08F
:104C5000440F0A94EAF7FC01E75DFD4F002319F0C9
:104C60005081452B03C04095508145234083E1147A
:104C7000F104B9F067307105A1F0412F50E00984CB
:104C800002C0559547950A94E2F7FC01E755FD4FA0
:104C9000002319F01081412B03C04095108141235E
:104CA00040835FEFC51AD50A4F815885C416D506D3
:104CB0004CF05FEFA51AB50A6624639410E0C12C8E
:104CC000D12C03C06624639410E02F5F3F4F97CF31
:104CD00081E0782676CFE114F10479F6E2CF2C96C4
:104CE0000FB6F894DEBF0FBECDBFDF91CF911F91FD
:104CF0000F91FF90EF90DF90CF90BF90AF909F907B
:104D00008F907F906F905F904F903F902F9008957D
:104D100060387105D0F440345105B8F4E9E3FBE2A2
:104D200080E1849FD001A0781124A60F4770E40F82
:104D3000F11D8491A75DBD4F222319F06C91862B44
:104D400003C080956C9186238C930895CF93C62FD2
:104D50000E94F221CA3020F487E39BE20E94F221F4
:104D60008C2FCF910C941920CF93DF93EC0181E02D
:104D7000840FFE01E40FF11D4491DB01129630E037
:104D8000321729F19C919F779C933417E8F4FE0128
:104D9000E80FF11D949151E0580FFE01E50FF11D50
:104DA0005491BD0162507109FB01508352E0580FCC
:104DB000FE01E50FF11D8D5F54916F5F7F4FFB0189
:104DC0005083E92FE068EC933F5F1396D9CFDF91D2
:104DD000CF910895CF93DF93C9E2D6E084E18B832E
:104DE00082E08C838D831F820E94132218860E948A
:104DF000132219860E94132284E08A870E941322BC
:104E000085E08B870E94132281E08093000110923D
:104E10000802DF91CF91089527E0829FC0011124FD
:104E2000FC01E75AF94F8281681718F4861B8283C8
:104E30000895128286818F7786830895CF93DF93BA
:104E40004DE25BE260E070E080E090E00E94EB21E8
:104E500043E25BE260E070E088E790E00E94EB21D3
:104E600049E15BE268E370E080E090E00E94EB21C2
:104E70004FE05BE268E370E088E790E00E94EB219E
:104E8000C0E0D0E0FE01E55FF44D6491603438F499
:104E900070E021E040E788E090E00E940C25FE01F0
:104EA000E95FF44D849121E040E368E070E090E038
:104EB0000E9457202196C430D10521F7DF91CF9170
:104EC00008954091140250911502209112023091E0
:104ED000130242175307B4F49091E8009570E1F380
:104EE0009091E80092FD19C08093F1008091140226
:104EF0009091150201968F739927892B19F48EEFE3
:104F00008093E8008091140290911502019690938D
:104F100015028093140281E0089580E00895DF92E5
:104F2000EF92FF920F931F93CF93DF93D82E8A01B6
:104F30007B01E40EF51EEB01CE15DF0571F0D7FE07
:104F400003C0FE01849101C088810E9461272196DF
:104F50008111F2CF8FEF9FEF01C0C801DF91CF9198
:104F60001F910F91FF90EF90DF9008950F931F9383
:104F7000CF93DF931F92CDB7DEB782E0898342E4FF
:104F800050E065EB7BE280E80E948F270E94511D74
:104F9000DC0112960D911C9113970115110569F012
:104FA000D801ED91FC910280F381E02DBE016F5F8D
:104FB0007F4FC801099597FF07C089810F90DF9146
:104FC000CF911F910F910895F80100851185E5CFCC
:104FD000615030F02091F100FC0120830196F8CF60
:104FE000289884E6809319020895CF93DF9300D028
:104FF00000D000D0CDB7DEB7789484B5826084BD90
:1050000084B5816084BD85B5826085BD85B58160CC
:1050100085BD80916E00816080936E00109281004A
:105020008091810082608093810080918100816005
:1050300080938100809180008160809380008091C6
:1050400091008260809391008091910081608093B3
:105050009100809190008160809390008091C100C8
:1050600084608093C1008091C10082608093C10000
:105070008091C10081608093C1008091C3008160F4
:105080008093C3008091C00082608093C0008091B3
:10509000C20081608093C20080917A008460809316
:1050A0007A0080917A00826080937A0080917A0001
:1050B000816080937A0080917A00806880937A0082
:1050C00010921A0210921702109218028091D700C3
:1050D00081608093D70080EA8093D80089B5806191
:1050E00089BD89B5826089BD09B400FEFDCF61E04C
:1050F00070E080E090E00E9417248091D8008F7CBF
:1051000080618093D8008091E000807F8093E000F0
:105110008091E1008E7E8093E1008DE08093E2003B
:10512000559A209AEEEFFFE7859194918B3F9C4D25
:1051300019F481E08093160281EC80937C0085B1A4
:10514000816785B984B18F7884B984B1876084B967
:10515000469A3E985F9A5E988AB1806D8AB981B30B
:10516000806C81BB899880B38D7380BB80E58CBDDA
:1051700081E08DBD0E942C225E9A0E942C225F98B5
:105180005C98E4E7F4E08DE08E0F94919EBD000002
:105190000DB407FEFDCF31968E13F7CF5C9A81E8F0
:1051A0008093640081E0809365000E94E32484FF83
:1051B00011C05C9885EA8EBD00000DB407FEFDCFDE
:1051C0005C9A2898809164008062809364000E94B9
:1051D0000125FDCF81E28093AE07809164008E7F30
:1051E0008093640080917A00806480937A0080913B
:1051F0007A0086FDFCCF00917800109179000E9422
:10520000F22320E030E0980111270027600F711F82
:10521000821F931F611571058105910511F00E9490
:10522000D732809164008160809364000E94EA26F6
:1052300080E396E08D5F8D83F4E04F2E512C612C3E
:10524000712C2FB7F8948091040290910502A091DF
:105250000602B09107022FBF4091B3075091B407E7
:105260006091B5077091B6072091B707222349F0E6
:105270002091AF07821B8093B8071092B7070C9458
:10528000423184179507A607B70748F4481B4230F8
:1052900010F40C9442310E9401250C94423121E01B
:1052A0002093B7078093AF079093B007A093B107FF
:1052B000B093B2072091AE07820F911DA11DB11DC1
:1052C0008093B3079093B407A093B507B093B60744
:1052D0008091AA079091AB0701969093AB078093BA
:1052E000AA078091AC078093AD070E94E3248093C6
:1052F000AC07E09128028E2F90E08431910510F0E8
:105300000C940332FC01EA5AFF4F0C94583310926C
:10531000080283E00C940132E09108026AC741E080
:1053200060912A06809129060E94FD22F82E0E9493
:1053300067170E94881B9091AD0790952091AC074C
:10534000922394FF0AC090912B069130C9F0B0F0DF
:10535000923079F0933079F016C096FF45C0909165
:105360002B06913041F028F0923041F0933041F01B
:105370000AC011E009C010E00FEF07C01FEF04C022
:1053800010E001E002C010E000E080912A06412F09
:10539000012E000C550B480F511D80912906602FDE
:1053A000002E000C770B680F711D89E296E00E94B9
:1053B000E61C882309F4B3C080912906080F0093E6
:1053C000290680912A06180F10932A0687E6F812FC
:1053D00040C0E12CF12C00E010E067EEB62E70E545
:1053E000D72EECE2CE2E22C095FF04C080912B0672
:1053F000815005C092FF07C080912B068F5F83709C
:1054000080932B068CC090FF8AC0809128028093E5
:105410000F0285E08093280282C0873689F093E0EE
:10542000E90EF11CE8E1EE16F104A9F0E091530653
:10543000F0915406EE0DFF1D828187FDF0CFEDCF78
:1054400080912906882359F380912A06811124C767
:10545000E6CF00E010E040E060912A068091290646
:105460000E94FD22863651F480910802833010F4A8
:1054700082E101C083E180932802EBC684E080933F
:10548000280249E5C42E46E0D42E5AE5E52E56E022
:10549000F52EF701858187FF32C086FF30C0F60107
:1054A00060818091290690E070E0861B970BA091A7
:1054B0002A06F701B081EB2FF0E02A2F30E02E1BF7
:1054C0003F0B09F007C7AC0197FF04C044275527DD
:1054D000481B590B4130510509F09EC7892B09F033
:1054E000E9C681E037FF03C03195219531092130AC
:1054F000310509F4E1C690E0891709F4DFC6F7E049
:10550000CF0ED11C27E0E20EF11C8CE2E81687E0FA
:10551000F80609F0BECF0115110509F09AC60E94E0
:10552000921B71C70E941E2721E041E958E264E006
:1055300070E082E490E00E944F2521E04BEC54E1C2
:1055400064E070E084E090E00E944F250E94881B98
:105550000E9427160BE211E030E3232E36E0332EB3
:10556000F101EB5FEE83F10181911F01882331F19D
:10557000F801C080D180A280B3804601FEE08F0E8A
:10558000911C7601E814F90451F020E040E1B501E6
:10559000C7010E9457202FEFE21AF20AF3CFF10160
:1055A0003197E081F0E0EE0FFF1FE15EFE4F40819A
:1055B000518121E0B501C6010E944F250C5F1F4FAC
:1055C0008E818211D0CFE0910E0294E0E99FF0012C
:1055D0001124E55DFE4F62817381655F7F4F80819D
:1055E000918120E041EC54E103960E944F251091F7
:1055F000AD0710958091AC0718231092A40703E122
:105600000093A2070093A10783E28093A3078091F0
:105610002E060E9419200093A2070093A1078DE295
:105620008093A30780912D060E94192081E080932A
:10563000A40780912802853019F0863029F1E3C64D
:1056400015FF06C080910E02882311F0815007C01B
:1056500012FF08C080910E02823020F48F5F809389
:105660000E02D1C610FF03C080910F02CAC611FFFF
:10567000CAC6E0910E02F0E0E75DF94F878188230A
:1056800009F4C1C686E0BDC600910D02013019F0D3
:1056900082E590E002C08EE590E021E041EC54E12B
:1056A00068E370E00E944F2547EB54E16DE270E043
:1056B00081E590E00E94EB214DEA54E16DE270E05B
:1056C0008DE590E00E94EB2115FF06C0002321F03C
:1056D000015000930D0297C612FF06C0011104C0CD
:1056E00081E080930D028FC610FD8AC611FF8BC624
:1056F00001117EC0E0910E02AE2FB0E0A75DB94F60
:1057000017968C91813021F0823009F45CC070C012
:105710008DE2E82E87E0F82E0E2E000CFF0B8F0195
:10572000005D194F95E0D92EF7013297808190E006
:1057300020912906821B91093196408150E02091E9
:105740002A06421B5109F701208127FF32C02F771B
:105750006CE9620F322F623010F0273651F597FF57
:1057600003C091958195910902971CF5CA0157FFD5
:1057700003C09195819591090297DCF4243611F4C8
:10578000F7013083F7018081982F9F77953619F4C0
:10579000807886668083F70180818F77873609F469
:1057A0008083F80110820E94132210920D02D09281
:1057B0002802F3E0EF0EF11C25E4E21627E0F206E2
:1057C00009F0B2CF15C080912C06895F833308F0B1
:1057D00082E380932C060E2E000CFF0BE75DF94F41
:1057E00017820E94132210920D0285E080932802F6
:1057F00080910D02813009F006C630912906209172
:105800002A06A5E4B7E010E080E0AD01425051095E
:10581000FA015081BD0161507109FB0140819C91E9
:105820009F7729F0531304C0421302C004C5182FF8
:105830008F5F13968E3149F7E12FF0E080910E02D1
:10584000AF01440F551FE40FF51FED5BF84FA82F74
:10585000B0E0A75DB94F17969C9190689283308312
:105860002183E82F880FFF0BE75DF94F17820E9415
:10587000132210920D02C4C50E94671710910C02EA
:10588000113019F088E490E002C084E590E021E056
:1058900041EC54E168E370E00E944F2547EB54E18E
:1058A0006DE270E087E490E00E94EB214DEA54E164
:1058B0006DE270E083E590E00E94EB2121E040E1A1
:1058C0006BE270E082E490E00E9457208091AD0787
:1058D00080959091AC07892385FF06C0112321F0A4
:1058E000115010930C0207C082FF05C0111103C0B4
:1058F00091E090930C0280FF07C090912802909352
:105900000F0295E09093280281FF7DC580910C02E3
:10591000811156C08091100290E0AC01440F551FD8
:10592000FA01E80FF91FED5BF84F22812F773091D4
:105930003006332351F030913106332341F030915A
:105940003206311106C0E2E005C0E0E003C0E1E04C
:1059500001C0EFEF3CEF320F323078F4243009F021
:1059600055C530912D063F5F30932D06840F951F4E
:10597000FC01ED5BF84F22830EC4EF3FB1F00E2E19
:10598000000CFF0BE75DF94F27830E941322E09183
:105990001002F0E0CF01880F991FE80FF91FED5BAF
:1059A000F84F82818F778283F6C38FE58093A207B9
:1059B0008093A1078CE28093A3078FE894E145C40C
:1059C000813009F020C588E01CC50E941E2721E017
:1059D00041EB51E164E070E088E090E00E944F25E7
:1059E00080910B0220E04CEA51E166E370E0811106
:1059F00003C089E190E002C08FE390E00E949B2405
:105A00008091AD0780959091AC07892385FD109218
:105A10000B0282FF03C091E090930B0281FFF3C45D
:105A200080910B02811102C082E0EBC481E0E9C4E5
:105A30000E941E2720E04AE162E070E08AE290E0E6
:105A40000E940C2520E04AE16DE370E08AE290E0DC
:105A50000E940C2521E043E850E160E070E08AE21A
:105A600090E00E944F2588E08093A2078093A107D1
:105A700018E11093A30781E790E10E94F2218AE5E3
:105A80008093A2078093A1071093A30786E590E176
:105A90000E94F2218091AD0780959091AC078923F7
:105AA00080FDE1C2B0C40E94671720E040E350E1EE
:105AB0006BE270E082E490E00E949B2480E580939A
:105AC000A2078093A1078CE28093A307B0902802DD
:105AD0008B2D90E0FC013997E730F10508F042C2C8
