:100000000C94AB160C94D3160C94D3160C94D316F4
:100010000C94D3160C94D3160C94D3160C94D316BC
:100020000C94D3160C94D3160C94EA180C945C1907
:100030000C94D3160C94D3160C94D3160C94D3169C
:100040000C94D3160C94D3160C94D3160C94D3168C
:100050000C94D3160C94D3160C94D3160C949E26A1
:100060000C94D3160C94D3160C94D3160C94D3166C
:100070000C94D3160C94D3160C94D3160C94D3165C
:100080000C94D3160C94D3160C94D3160C94D3164C
:100090000C94D3160C94D3160C94D3160C94D3163C
:1000A0000C94D3160C94D3160C94D316E72E212F50
:1000B000962B9B2B9E2B922C922C3A2E9E2B6A2FAA
:1000C0006A2F6A2F6A2F6A2F6A2F6A2F46324832A8
:1000D000E53221338B2FA42FE62F1F30E43042313D
:1000E000AB317F21BD85B185FD0077C51555DD415B
:1000F0007F7F415F405E5256505545575477407F51
:100100007F417D05DD51555555D5555575057F7F89
:10011000405F515D405F515D4555515F407FFF013C
:10012000FD05DD555504F711515515457F7F407686
:10013000445D417F04774451555C417FFF415575D3
:1001400005D57D04DF01F515DD417F7F445F555006
:100150005B407F415C47505F407F7F41DD455D51A3
:100160001754D595B5A5AD81FF7F405F415B497BB5
:10017000425A5278525E407FFF81FD05EDA9ABA047
:10018000BF81ED05FD01FF7F405A525A527E027633
:10019000525A425B487FFF01EF89B9A1A181A1A119
:1001A000B989EF01FF7F405E425A4A7803784A5A84
:1001B000425E407FFF01D755DD01FF81BD25ED8106
:1001C0003DA1FF7F405F427A426E086B42486F401C
:1001D0004A7F7F455551DD45751175057515FD0142
:1001E0007F7F415D505B416D016D415F407B417F91
:1001F0007F01FD416D496F21ADA58FA5BD81FF7FB9
:10020000415D515D447515555456525A407FFF0962
:10021000ED21ADA5B7A0BFA52DA5AD81FF7F405FA6
:10022000505B407E026A4B58535E407FFF01DD51B8
:1002300055155754D515F585ED21FF7F405654547B
:100240005054145654565256407F7F55057D415D9B
:1002500015545751DD05FD017F7F415D5750555DB8
:10026000017F405F505E427FFF81ED05F595D5052A
:10027000DD85B1A5ED017F7F405E525A4A6A026E6C
:10028000425E5455457F4120534C494D4500412025
:10029000524154004120445241474F4E00412057A3
:1002A0005241495448004120535041524B4154005F
:1002B0004120534B454C45544F4E00414E204F4337
:1002C00043554C4152000D0FE9B3EB6CB67295AB40
:1002D0005C25674EA7BED5A554ED4AA9CEA5D3E9A6
:1002E000743A5D0D0F4995CB965295ABFACA56B24A
:1002F00094CB2BD674253B5795AA4A75755757A5AD
:10030000AA529DAB643A5D0D0F99969DAB52553242
:1003100055555595EB2A75DEF958D3E974253BD729
:10032000B9CE75AE739DEB5CEDD2050D0F4995CB43
:1003300055A95EC9AA5755299757ECE974253BD7AB
:10034000B9CE75AE73954CA7D3E9020D0FC9964E81
:100350007DEA73CE29B9DD3AA7A473F3A5D395AC92
:10036000643A9D4EA7D3E974BA0020204452414715
:100370004F4E5320202020204C4149522020202045
:10038000253A0005041E0425030023170032170335
:100390002537031E34011633011A380308380104C7
:1003A00033030A29010A2003122501182303251FFC
:1003B00001212403291301341C01311C01332501BF
:1003C0003332033A3603423300412601431A0334E1
:1003D000070343090305080316090107050116046D
:1003E0001E01182E01013601271F011C2801012BB7
:1003F00001362B01492401250A020106020B0B02DA
:100400001011021B17023815022E0602470302457F
:1004100012020D1F022927021F2E02103102152180
:1004200002271802230C03270C031F01032B0105CD
:100430002310042625052B150401150865250164E4
:100440000F3464072D64251E64161E64071E643471
:100450001E64431E000407000408030202030B018C
:100460000D09020A0D050C09202043525950542051
:100470004F46202020414E47554953482020162BF7
:100480000003031E02132706152301161F020D2A5F
:1004900002212906262806082805112305262601FB
:1004A000041F021819011515011610010710020387
:1004B00015020A17022417052B1506251B06240B07
:1004C00002250905270606250202120A0617070655
:1004D000120505180303070101090B0107051B019C
:1004E0000223011521012121011127020B21022BD9
:1004F0001B021812020B1202031A021A1A0221120C
:1005000002290302120B020507051717040515053A
:100510002901041001032315032912030B0B030106
:1005200005032929030327030D1B021F1501010DD4
:100530000565070064070F64160F64250F6416280D
:100540000B05040803080A010948414C4C5741595E
:1005500053204F462054484520444541442020071D
:100560003A00010410050A34050133050538050871
:1005700029050324060D21060826010517060B1080
:10058000050B17050412060304060A09050C0405E9
:1005900003080107021302012F020D2A0203290298
:1005A0000524020124020B21020B19030B15030D74
:1005B00015020510030918020102020B0304030BC4
:1005C000050C08030808010701020901020B0B01D1
:1005D00065070003020803D5F08D14A1C881CFD9A7
:1005E000F1AF2000594F552043414E20484541521C
:1005F0000A412044495354414E540A59455420431A
:100600004C4F5345520A445241474F4E20524F419E
:10061000520A415320594F5520535445500A5448CB
:10062000524F554748205448450A444F4F522E2EAA
:100630002E003B371019795C9DCD56AEB295AD4E6C
:1006400075652B5B5D555DD555D555ABAAAE5A7713
:10065000D5555557E5AABA2A5795ED5484B1C71A0E
:1006600075288F2F5BB9CA56AE3A5597EA4A5D7521
:1006700055B9CA55361B5DD8CB6EB7EBF8F3D9CA5E
:10068000662B79D555E52A57A94E75AAB2B186A62B
:100690007014752E57555D555DD5555D555D555793
:1006A0002E2C85BEA4723A1CA59554D239A9F056B9
:1006B00095ABAA2B75555D555D95AB1A9531465591
:1006C000D5559DCA55755575555715A2945A49A9C2
:1006D000A4924A2E9554D975085C4796764E2A1DE9
:1006E000FF555D555DD555D9EAAA8A35172A2B5B8A
:1006F000954BD55575AAAEAA53C598CEA6D35BBB6C
:10070000DFDAD9F1B95D2AA99C1B4D5575AAAEAAAD
:10071000535D559DAA684353CC31662B5775555D83
:100720005557D5558D3F25ED5E49BBDF6E9DA2B671
:100730005B5E3B02ABEAAABAAAAEAAABEAAA8A35CA
:100740001512E34DAEB295ABEAAABAAAAEAAAB5C5B
:100750005557E52A57D96C5CD96C369B8D349BADC7
:100760005CD5557555575557652BA264272F5BB936
:10077000AA5C5557E5AA7295EF542E5BB9AAB096BC
:1007800004444546454E43450041545441434B00C3
:1007900043484F4F534520424F4E5553004C45560A
:1007A000454C200016277494F9A8F27165974E49BC
:1007B000E7E4BAB35166A3CE2AB94DE7A4924A2A18
:1007C000A9A4D2B96E75CE492595545249256DBA62
:1007D000925BBFB77B25EDA5D3FF72A99C934EAA70
:1007E000FF745C2B4A3EC6F43ABD4E565249E5B8FA
:1007F0009D9395CE6EB3DBF096CE6EB7DBED76BBF8
:10080000DD6EB7EB745802250F74D9D3EDCA75BBF2
:10081000D25DD7D5AD4EA7AAD2EDEAAEEEEAAEEEE6
:10082000EAAEEEEAAEEEEAAEEE6A575A13E9D2ADA0
:10083000AEBB72D75DABD3DA57B692FB74369D4E22
:10084000A7D3E9743A9D4EA7D3E9743A9D4EA79376
:100850008A4CE9743A59E9743AA9C800250F753AE7
:10086000F89137BD75CE39E79C73CE39E79C73CECE
:1008700039E79C73CE39E79C73CE39E79C73CE3948
:10088000E79C73CE39E79C73CE39E79C730E302F0B
:1008900090A5A4925B2597CEB918B3AA555C69269A
:1008A0007B3A9D2EA5AA52559F4EA72DA4A49C73BA
:1008B0004AEE647495DC56EE53AB5B39592D775292
:1008C000DACAB964AB76B52BA54A55A5AA92D5AEBE
:1008D000EA6B573AE7DC4A9E5A49AB94BC9592D2F0
:1008E00039FC6D955476291569652B57AB54ED9CF1
:1008F000ABAC943279259DAB5D2A95AB6CB6E2DD4D
:100900002BB5527FB2DDC9ABBD52AB6AA5F6AE6C5A
:100910007299EADE4D9545DC76BBDD6E9554D2AE1C
:1009200053A953A752E9ECCE49554E9553A5EA7207
:10093000B5ACDD252F75E5AAAEAA4EE5439C6774DC
:100940004377E9AD92CA3A679DAD5595ABAA56D5A6
:10095000A9CAC594CFEFF79775522A1DFC67B7F661
:10096000AB56FD55AB7ED5EA5EF5AA57BD6A759FBD
:100970007ABB1D302F90A5A4924A2AA99C732E748D
:10098000A5D3E9743A9D4EA7D3E9743A0D1929E726
:100990009C736ED86DBBDD6E95545249259DC3DFA7
:1009A00056492595940A1ECD226EBBDD6EB74A2AA4
:1009B00069D7E9743A9DDD39A9EC3A1D14E586EE54
:1009C000D25B2595944A87E7B49252E9E03FBBDDBC
:1009D0006EB7DBED76BBDD6EB7DBED763B444541B4
:1009E0004C203120444D470A0020444D470A005412
:1009F000414B4520002B2FD09DDD2E955472BB54CA
:100A000052C9CB5DEE7297BB9C92CA6E67D2A5D3DA
:100A1000E974C9D2E9745AE3D46D93BB653657A91A
:100A20004BF5A7E5ADB6A7DE559D73572B2555AB06
:100A3000EDB91491ADBEBECADDAEEA2BA54AD6AE65
:100A4000747662A9D2E9743A9DBBDCE52EADAD5255
:100A50002BB5F56E375B57A77AA54AD575F777AAF8
:100A600053FD2D95956E22A7574A312D5B12F23B0F
:100A70009D4EA7D3E9743A5DE752D2F7EEEF6E9937
:100A80008B6E555D5557D5557555755557E52A1BD0
:100A9000557657AB52B5522E9B5C29AEA40AC92B92
:100AA0001997524A2DE3AAAECA555D5557D55575CB
:100AB00095CB46E59454CA29554AD5AE964A2AA7FD
:100AC000A492DB102EB3BBEB9592E95C5D555DD52E
:100AD00055D5555D555DD555B98AF7A59250122B60
:100AE0002FD09DDD2E95545249E59C73CE39E79C5D
:100AF00073CE39E79C5412D5B874DB60B8B4545245
:100B000049A5ED76BBDD6EB7C386BC524925955429
:100B100052492595545249A583DE922A24AF649008
:100B2000D05249E59C73CE39A7A492DB102ED3E9AD
:100B3000743A9D4EA7D3E9743A9D4EA7B34B25A1B5
:100B4000242044414D414745210A00594F55204436
:100B500045414C0A00302F754C4AF6AA3A55C9AEA9
:100B600054BF2EE7D2E9743A9D4EA7D30EBE4B6F09
:100B70009574D2A9729FD3BA5DED3A57C9DA75AEB2
:100B800092B5EB5C956CBB52F2569F52523A67B7E6
:100B9000DBED763B3C96DEAAB89297AAEEEEAAEA87
:100BA0004A5D5DD555D5555D95CBAFAEAA55555728
:100BB000ADAAB2CAA5F2E955EEB2CE5925153CB59B
:100BC0005552D9EDD6395BCB5B55FD555755575D21
:100BD000555D555DD555B94A5D555775557555B92E
:100BE000547CDAE7A5D2C16FE9F476EB9CDFDA2911
:100BF000ABAE2A577555E52A9FAD7C3EBFEF642901
:100C0000279D5476F82D1D7D74D145175D3A9D4E74
:100C100047978E16302F75F84AA7B74A2AA9A4928B
:100C20004A2AA9A4924A2AA9243C97DE2AE99C547C
:100C3000761D9E95545249259574CE6EB7DBED76A0
:100C4000782CBD55C159E9B4925249054F6D955460
:100C5000524925A5D2C15352E9E0B7747ABB750E4B
:100C60001E4A2BE99C5476F82D9D4EA7D3E9743A81
:100C70009D4EA7D3E9743A9D4EA7A3050704080C1F
:100C80000E0F0E0C08080FB8549D726F4F7D9DCA51
:100C90002904A5D3D103080F5C2E99CBAA4B3A6542
:100CA00073C95C280A4D080FBC54B9AFAF52AA7E75
:100CB000771255A109080F74AE56D22957EAAAAE89
:100CC0005C25B7E9D007232770E69C73DBAD5A5645
:100CD000B25AB5BA64E52AA54AA99295ADD5BD6ABE
:100CE00059C9724A6EB7CE39243276AE4FAD5CCA5E
:100CF000A55CAABE5556C96D7A9B4E6FD35B65D372
:100D0000F7A5EA944BA9953C752E9D978ADE29A6F6
:100D100074AE5CCAA99CCAA93A5547E45CBA929DD4
:100D2000EB5C25D3B5AB64EDD2EEE4A99CCAA99CDB
:100D3000CAA5CAD58C6A9D97CA7EEAAAD5C9CAB582
:100D4000F3EAAAABAE4A49DDAEBEEABADCA5AA5EBA
:100D5000B5ABDCE5AE5D9D6BABAA5257FD957F77D9
:100D6000E53A59FDA9ED1245E9ED76BBDD86F6F4CD
:100D700076BBDD6E4313232770E69C73CE39E7D232
:100D8000E974684BA7D369E79C73CE39E79008E50F
:100D90004945EF14A4A7D679A9EC763B1AD3E9D03C
:100DA000964E87C5ED7689A2F476BBDD6E437B7ADD
:100DB000BBDD6EB7A1092044414D41474521005993
:100DC0004F552054414B450A002527A0A17476BBFE
:100DD000DD6EA7CB6E97CA39E59453CE29E5B6D917
:100DE0005C7689C1EC5239E79453CE29A79C5372A3
:100DF000E5AEAE4BA9DAD5AE76B5BA579D4B2B2AE8
:100E0000395976F9A9FED47649B754CE29A7DC72B0
:100E1000A994534E39E79453CE29A73491D5E94A82
:100E200056B292954CA7D36D4BEF9473CBE5CE2978
:100E300019AD5452DD5239A79C53729B0E656E9BBF
:100E40004C2E97CB9D534E39A79C5372BB0DFA4A3B
:100E5000A7D3E9A0252527A0A17476BBDD6EA7CB7B
:100E60006E97CA3925B7E9D8B34B0C6697CA39E7EC
:100E700094DC063F65B7DB25DD5239A7E448CB6E2D
:100E8000974AA7D3E9D09CDD3925A3954A2AA9A47E
:100E900092CA3925B7E950E6B66129BB545239A741
:100EA000E4761BF4954EA7D3414B0A415454414379
:100EB0004B5321000C11FF01010161C1E17139198E
:100EC00001FFFF000686C1E0E1C1800000FF0101D3
:100ED0000101010101010101010120202020204127
:100EE00052540A202020435952494C0A475549433D
:100EF0004841524400434F44450A53494D4F4E0A1E
:100F0000484F4C4D455300253F2B59C94A56B29284
:100F100095AC64252B59C94A56B27297AAEAAE4AD3
:100F2000D5ABCE75AE94B397BB5C252BD929E5AA7A
:100F3000DC95AC64252B59C94A56B29295AC709891
:100F40004DADAA53D5A95C3ADD29E5E35352EB96A2
:100F500067C352361FBEF3CAABB295CF2A55A92E2E
:100F60009B4EE73A95EE5CAFDAD5ABD4CA65B339A0
:100F7000B572A131BDAD64E752A954EF2E9DCE6686
:100F8000775CD952FEB25B6553A9CE75AE939D22B4
:100F90004CA7D3B94BF52AD5B94A6EA3742ADBEA1C
:100FA00056A52E3799EBFEFFAD3D9D54F64F7D4A79
:100FB000524925D5FFBF748ECB39E794546CCEA926
:100FC00052AB5EF52ECFE5755AAA2D916EBBD54476
:100FD0003A9D6EBBB6443ADD76ABD3443A2D559A72
:100FE00048A76F259554447C9E898DC97AEFF9F8FE
:100FF000F8086D9E892D4D48E7BDF7DE13B989B815
:10100000AA5495AA4A7DB9735DDDB92B59B2EAABF2
:10101000ACDDFEBFB6DB739DB6A73E9DB5DBB7CB9F
:101020009255B2DCD575EACB9DFAAAAA5255B20AFE
:1010300003051F0E04713798EDB673E98A301B6300
:1010400084A9543ABDFD2A752B55CED97564CA3989
:10105000E75CBC4A2AA9A4924A2AA9A4B2DB5DEDA6
:101060003AD7B9ED5649E7948C31A99CB3736E9D7C
:10107000732E5E2595545249259554524965B7BB48
:101080004E6DD3E952AA942AA54AA9747A9B4AF5CF
:101090009FFA7F95FA94B2EBADDA6ED3E97425D35B
:1010A000A954253BB5AE54322A3BAE78436E9CCB57
:1010B000A5724A6ED3B94E77EE757CFC3A9DDD2A57
:1010C000C79C558A72B973DB28974AC79456D24990
:1010D000B98E8F9F2BAD6AE2A48C975FEDE4D44B61
:1010E000A76CA44B34C51C71544BE594730A4F4A4A
:1010F0005DDB5BF52A9DDEFE4AC9DB6D6BB7ADDDBE
:10110000B6762FF3CBBC52BA92D5AE64A5542D2B34
:10111000BB6BD7AB542A9DEA55AF7A554A9552A579
:101120009454524925D5A9539FFA5CB7BADCE52EF1
:1011300077B94BA7EEED36956A7557E9AC74EE5664
:101140009F7AA9A4924AAA522AF5B94E7DAF4A299C
:10115000A952A9542A954AA5A4924AAA52AA57A9C3
:1011600054AF4AA9524A2AA9A44AA552A9542A9579
:101170004AA552A9D4A73E77B94B6ED7975BC7C78C
:101180009F5652C9CB5DEE72955DE6B3D94A6E2B80
:10119000B9ADE4B6B2F96CD629994E3B974A2927E6
:1011A00027CAB6AC5C2DCB662B9BAD6CCBCAD5B237
:1011B0006CB6B22D9D2AE5E425F7D9F85EA7535FFA
:1011C000D7CE65B7EB529F55A72EA74AB95297AD18
:1011D0006CB6CAD5B272F557ADFA2B9BAD6CCBCAC3
:1011E000D5B25AF557A953AE56E554D96C65B395A7
:1011F000CD56365BD96C3E9BDD66B74B2595E354E7
:10120000928E30954AA79395EB74ACD1C7EB9C5462
:1012100076BD5552492595DCC66BD769E9EC76BB9E
:10122000644A27A999AD92CE39E9A45BC7C7C72BF9
:10123000974A2AA796CAB9D9795BDDEA56DBF978CD
:1012400099964EE9CE2A2727940A4721287CA5D2D1
:101250005BB5B6DBE425B795AB4A39D7ABCE4925AC
:101260009554F2724A4AE59C54576DB74BE59CBAC7
:10127000753A9D4E2BE99C5452D9ED76BBDD6EB785
:10128000DBA592CA6EB7DBED76BB54CE4965B7DB02
:10129000ED76BBDD6EB7DBA5924A2AE79494CA6E61
:1012A000B7DBED76BBDD6ED3E9743A9D4EA7D3E98B
:1012B000746CD995545249E59C2A2595549773CE60
:1012C000B9CB29AB5C259D734EC94A2AB2747ABB4F
:1012D000DD6ED3E1DD6EEF9C9393D9AD4E67974AF7
:1012E00039A54A2AAB54AA9595CEA9E510D14EAAA4
:1012F000EF558C767B5ABA5BC764B777752E26BBE1
:101300003D95924E71D92D533A6DB7A7F35B79296C
:101310003B0C044E4F20494E560A534C4F54532118
:101320000053504143450A4F4343555049454421DA
:101330000008081E1E1E3F7FDF1514080878787805
:10134000FCFEFBA82806075476A99C93CAAE733C02
:10135000376A9BDCC62C553A9D4EA7D3E9743A9D5B
:101360004EA7D3924AAA743A9D4EA7D3E9743A9DE8
:101370004EA7259554E9743A9D4EA7D3E9743A9D3A
:101380004E4BBC7AFE5CAA93DB65A77261C87BCF2B
:101390009F4B7572BBEC542E0C79EFF973A94E6E0E
:1013A000979DCA85218F57A5D3E974BADC95AC64A3
:1013B000BADC952C77BADC955239AF52AA2A55F58A
:1013C000E972A7CB9D2E7725CB5DC972A74B5749F4
:1013D000ADCB5D95AAEB74B9D3E974B9AB52954C1A
:1013E000975255A5AAD19CCD56F2D2E9E8D2E9E8A8
:1013F000A28B2EA96425D395AC6425D3954C573286
:101400005DC97425D38A4CC94A56325DC94A5632E1
:101410005DC94A56325DC94A5672DCAD4A2D9D728D
:10142000A55CE522CE2A1B323D8AF29DDC2E3B15BF
:101430008EBCF728CA7772BBEC5438F288932AF72F
:10144000B52BA56A953BC99A5536545A9D4EA76B44
:1014500097AE64BA929DAB64252B992E5D5AEB4AE8
:1014600056B2929DAB64252B99AE5D252B99AE6447
:10147000E9C2D525F3EB7D3668CAE99CD339C7E5C7
:1014800064A5E37232EBB89CCCCEE674CE71392EF3
:10149000C775C94A2A5C0147415445204C4F434B0C
:1014A000530A424548494E4420594F5521000C11DA
:1014B000FF0101FDFD81C1FDFD0101FFFF00008F66
:1014C000CFE7E3CF8F0000FF01010101010101011E
:1014D000010101010C11FF0101FDFDCDCDCDCD01BB
:1014E00001FFFF00008CCCECECCF8F0000FF01016E
:1014F000010101010101010101010C11FF0101FDC7
:10150000FDCDCDCD0D0101FFFF00008FCFECECCC68
:101510008C0000FF01010101010101010101010134
:101520000C11FF0101FDFD0D0DFDFD0101FFFF008F
:10153000008FCFE0E0CF8F0000FF0101010101012A
:10154000010101010101080B00020202010009046E
:101550000000010202000005240010010524010121
:10156000010424020605240600010705810310007A
:101570004009040100020A000000070502024000C1
:101580000007058302400000040309041201000261
:10159000EF02014041233680000101020301417244
:1015A0006475696E6F204C4C430041726475626FC4
:1015B00079204465764B6974000A00204120535716
:1015C0004F5244004120534849454C440041205368
:1015D00043524F4C4C00485020504F54494F4E00FE
:1015E000534F4D45204B455953001C1FA0A1EC32D1
:1015F000DBA94E75AABBAA2FA5B2CAE16DBBCD4728
:101600009754AE539DEA54F7F797AB55AD9C72CA09
:1016100029B90D7BD974D6A97295CA669D5255EF2A
:101620003A9555D286F6F576A9E4B0171C1FD095E9
:101630005D6E9797BBD4E56E75B9CBDDEA9297BB2B
:10164000E476BD0E876E26F7EEDD5995F22A2E4F11
:1016500094F53A4FA4DFBD7B6FAD7378DA3AEB7E39
:10166000A5DE7DC9F2B2F2447A4BA47355DA55A9CE
:10167000AFDFAD94DBB9B19A4E6FD7DBED76BB5DD2
:101680006EB7E9D0081C1FA894BBD4ADAA52A554CC
:10169000AF7A55A54AA73BD7D55D9DEBCE7575E7CB
:1016A00072DDB9552A955AAF1D7E957AC97795ACEA
:1016B00054552A95AA88FA5295AAFC2ABE5E9646E7
:1016C000A2DAAD64AABEAAEBBBB2ABAAEC3A59A9A6
:1016D0004F7DAE53BDCEEE9CFAF47A3DBED6EBED17
:1016E000B272B5AC5C2D2B57CBCAD5B272B5AC5C1F
:1016F0002D2B57CBCAD552C9E56C161FD094722A30
:10170000579DAB645757B2AB2BD9D595EC642EE5FA
:101710007CB8722A5B36E5DCB7527539A7A492EA29
:10172000565249A754A95BBA4FB9722AEFF8A46F71
:1017300059B692954DA7F3E95CA7D3D9743A5BC922
:10174000B2655BA22E9DCEA7D3E974369D0E6D19AE
:101750001FD0944EC7BAAC5CADE4AA5C6543B5F546
:10176000DB65E75E75B94B2A1B04E494D56B27B79C
:10177000E97456B9B3EA7295DC56F256B5DBA69D0C
:101780002BE542623A9D0E1A02281FB0994E2A1F7D
:101790009AB2D9CA39E59CAA95B4CA39E93A19511D
:1017A0007053BEB2D9CA5575555D75555DB94AE5D8
:1017B0005291F5576DA36B759DDA5E6E59D5DBA519
:1017C000D2D126D7E1A873D9757659B9BA5455D76D
:1017D0007DD5D57D553B77B9DA39259D734E2A578E
:1017E000AB5BC94FAD7AD5EA56A59C734E2A574BD1
:1017F000A5EE571D440B191FD018EBAE76BBF4AA0B
:10180000E34BE7F3E9FC684BF575527557752957BB
:10181000CA7EAEAAD4A5EA2AA5BACEF6BAD2D9F023
:10182000B5DC56A4976A95FB4FE62EB74ABF53B96D
:1018300052F155723DDE9659E796526DA38B289D65
:101840008C2EBD956EAD647E14013D37505EBB524B
:101850002ABD5EAFD7D12795CB86BE7C5EE9E8B3C3
:10186000CBE5729B2EA56ADA753A342695734AC980
:101870004B5DF5FD5D9D4A7575B5BAF5AE9575562E
:10188000F96CFD95ABCAD5AA56A5DC5EB95A3A7576
:10189000CAF99453EA92CA5576B72CA74AB9CA55E1
:1018A0007FD9CAE694723BF797EE9395EC5C2AD504
:1018B000F59DABAAAE5AA9765272A99CFB64555706
:1018C000D55575E5BE5257AEAA5359B5AA53952DB5
:1018D00075E918ABEAB225D7BF924E9D5AA52EB92D
:1018E00022AA72BE4A5979A94B2D9593FF6D2B5BA5
:1018F000B6AAF2DBB972555795AB72565557555784
:10190000D5559DADAAABEAAA64485364F96CBEE60E
:101910004AD56E5BB95A564E31E52B9B4B55B5FAFD
:10192000ADBAD4A54A5DD5557555FBAABAAAEAAA9F
:101930005C39754ADDCBD5A9CA65B3B96CE5AAABEC
:101940006A55D95A555755442329EC67BBAA5CD52B
:101950005575555D55AEEAAAEAAA65E5AB2A57E585
:10196000A473F7AB5FFDA94A3A75C94FB5BAD4DF86
:101970004BA77CD555C564B3CAA93A55CB6CE5AA2B
:10198000EAAAAAABEAAAEAAA5CC8CF56E5AABAAA0A
:10199000BAEAAA552EEFDCE752D239E966CB5736C0
:1019A000978A6A972DA7B2E554B6948B2895CD56A1
:1019B0002E6C45ABE4361D3416FAD3E9A0392A372C
:1019C000A0A1743A9D8E329D4E2F95545249259D6B
:1019D00073CE49E7A453F2B2CB6D884E2AA5947218
:1019E000DB947297BB9554B7BA4AA9D64A2BAD740B
:1019F00058DBB9DDCE8DF3AD72B7B2AB5EAD5AA98F
:101A000056AAD5256B7529E554ADBAB74BE5DC7AF6
:101A10003B251F86959AAD2A55A5AAFAAACA5266F1
:101A2000ABA2CC2A773B65BBA2AE8AAF6C57A9AA02
:101A30005455AAAAA8F60A9F7BE9A36BF9365B74F2
:101A4000557555315655F457156B5D45557A573ACE
:101A50004DD7B2B1BC566E99DD9157D555C55A5781
:101A60001563555D558C5595AB50244BB961A1F468
:101A7000D6EEDCD6B9BC727625F3CAD995CC2FA5A3
:101A80005232AF9C545B25950CCD322F60ACE0A454
:101A9000909C55368C3A57BBCBD5CED9B5B2CECE6D
:101AA000BA734AED5CED2E572BA9D2E978D3DB90BF
:101AB00017CEA5BB64259554B27297927C5BA7DACA
:101AC0003AD5D6A9B64E116EB77129E7D4F776BDCF
:101AD0005656D96DD8CD2A1B86D24A76AE942AA501
:101AE000BA6C72B7AE6C55AE7295CDA67295AB5C02
:101AF00025575D95BA5C25B751B9B0975D87FCEC69
:101B000072B95CAE3AB55C2E97DB70955D2E97CBC3
:101B10006D7AEBACC360D038323760266595ADA5E1
:101B2000724E55E59C54AE56CA2918291D2CB59500
:101B3000AEDCD5AB564BD5EA5EB99DCB6EC7E16541
:101B400097CA29A79C72CA29B90D5BC965A74AA97A
:101B50006CB9CB9D2E7739952EE53AA7944BBAE90F
:101B6000AA5255AB6A7575E92B555D555F15D3D6ED
:101B700059679D5D56AEBAAAAB72CA29B274E874B1
:101B8000FEDD654BFB34914E7B9D3CF98E2ABB926A
:101B9000D97ED5C9DD2D979D7AB5561FFC964EA7E7
:101BA000D3116E977295750A9D5B59CA4A052F66C7
:101BB000E5AD9DB3DBD8B7CAB999DCD062B6B2D96E
:101BC000CA66439B735BE7F641523737D09CCD879B
:101BD000C6EC76A75CA953B9CAC694CD070FE6F345
:101BE00059E5946BBB5535822AA91C9172D2F1E557
:101BF000F359E59C6ABB558E5539E7AE9D2A752A87
:101C000057D9109B2D756A55D950573B3793BA9CBD
:101C10002A9B52972A5557AE7255B9CA56572D2B43
:101C200057CAD55555AEAAEB5BC9B33955AEB24EBE
:101C30003AA5D24959212A9BCDE7E3DF56D249651F
:101C4000974A2E9D54D2C9AA238AA85475AAABBA22
:101C5000AA3A555D55DD55ADAA52A552B54C7F4AFD
:101C6000C94E55A952AAEAAAAAEAAAAEEA5457AAA4
:101C7000ABAA4E7FC5249554CA29A994726EBBCED7
:101C800086FEAD56444AE9B452CA274BA54A76AA05
:101C9000EA56A9565925D5A9D4A9AA5BA53A592A25
:101CA0005572AD94D269A59E2C05B96D9574AE940C
:101CB0002AE574A914912BA2534CAE986E2A77BED4
:101CC000AED67D9752A594734A0E3B46379B228B26
:101CD0006EB6E8A21BB602281F70E79CDB6EB7DB6E
:101CE000AD545239A7E4361DDAD2E9AD9252E9D0AB
:101CF0009C6E9D4E077BA595545249259554D2B9AB
:101D000090356C36E2743A9D4EA7A34FA7D3E97481
:101D10003ABDDD6EB7DBED76BBDD6EB7DBED76B6DB
:101D2000ED76BBDD6EA305191FD0944E2AA9A472CF
:101D30006E3B16D3E9AD924A3AA7B34B159494DEA5
:101D40002A27B7524925B7C3425B2595E4B4E97405
:101D50003A9D4EA7D349259554524925954EA7D370
:101D6000E9743ABD25043D37D095DD6E974AA2321D
:101D7000BD5552C96DE84E6F9554721B3A9554D2B9
:101D800039E79C93CA6E57721B083DBBDD4A65B7A5
:101D9000DBED3AC877E99C73CE3985BBEC52294814
:101DA000388B48A974D062CE39E79C7376BBDD6E60
:101DB00097CA39E794DC86EEF476ABA473CE39E7A4
:101DC0009C73DBED36FA747AABA473CE39E79C735F
:101DD000CE39A7E4361DB4052A37D09BDD2E9554A5
:101DE000524925955452A5D3E958D3E9F0964E6F40
:101DF000B74A2AA924129592A13FADA4546C3B196D
:101E0000CE766E1BF276CEC155E14C8D38990E1A06
:101E10004C2B892FE7E046DCA59DB3C3763B177AB0
:101E200095740E5BA3339D4EA7D3E9745249259553
:101E3000422A322FB0BC5452492595545249DEB43F
:101E400092844B2595545249259554524965B74B78
:101E5000259554524965479DDC6EB7DBAD9278B24B
:101E6000EB743A9D0E5FE9909B735249259554D2CD
:101E70002962E79C73CE39E7D3E9743A7E74A5836F
:101E8000D6D25B65B74AEA741892DBED763BA5B211
:101E9000C36E2BA9A4DAA6D3D9A57252E12B9D4E0D
:101EA000A75B6EC36E76A9D018DEF8B64A2AA9A43D
:101EB000924A8EDD743A9D4EA7D3E9743A74A5D345
:101EC000E9743AFA743A9D0ECD3237E0211D7F3A1B
:101ED0009D4E872DFC66974A2AA9A4924A2AECEFC8
:101EE0009CC3B573CED9E9B26FB7DB6DD8CA2E9556
:101EF000738A4929B94D074B66974A492515B2ECB3
:101F0000D05798B3DBED76BB0DEDE9ED564925953D
:101F100054524925ED76D43965A34D3B872F25A131
:101F2000BBAC1C655BE7945472CCB9613BE7A492EF
:101F30004A2AA9A4924A2AE794DCA6ED76BBDD6E74
:101F4000B74B25A1243737B0B954CE39E79C73CEAF
:101F500049652757CE39B70D5DE9AD73CE49654761
:101F60005776BBDD6ED7E15F49E7A4C25FD0527AF6
:101F7000E4659748B3A12BBDB5DB2DCC2895734AFA
:101F80002AA9A4924A3A27B593CA6EB7DBED76BB6D
:101F90000E16DD39E79C5372AC3A0729AA6D3A68F0
:101FA00029BD754E2ABB4E074DA5B34BE5DC36E87F
:101FB0004E49259D734E2AA9A4924A2AE79C73CEC6
:101FC00039259D73CE39E71CDC041B100058AC5634
:101FD0005656105656564656565610565600565693
:101FE00010565656465656020002010303030323B9
:101FF0000320032B030B130B000B438B030B130862
:10200000032B1B105656465656561056560056561B
:10201000105656564656565610565656AC58002B25
:102020000308130B038B430B002B132B032B0320F1
:1020300003230323032301220022050218000000CA
:1020400018050200181818000908400D410D410D2F
:10205000410D4009200080C060B018007EBF5701CC
:10206000FA005EF000DF1F03000F003E0300F7E000
:102070000254200400040005030920BF7E0018B0AC
:1020800060C280001FDF00F05E00FA0157E0F70039
:10209000033E002F00230305000400040004001782
:1020A00020000080C0E0F000FC7E7F7F7F7F7F7F8C
:1020B0007F7F7F7F7F7F7F7FAEB0B73B83BDBEBE1C
:1020C0003FBFBFBFBFBFBF80BFBFBFBFBFBFBF0698
:1020D000011D387BF70FEFC0DFDFDFDFDFDF1FDF42
:1020E000DFDFDFDFDFDF000800080008000B070F7D
:1020F0000F0F0F8F0F800F8F0F8F0F8F0F17207FF6
:102100007F7F7F7F7F7F7F7F7F7F7F7F7F7EFC00E2
:10211000F0E0C0840000BFBFBFBFBFBFBF80BFBF74
:10212000BFBFBFBF3FBEBEBD833BB7B0AEDFDFDFCB
:10213000DFDFDFDF1FDFDFDFDFDFDFC0EF0FF77B9A
:10214000385D01460F8F0F8F0F8F0F800F8F0F0F8E
:102150000F0F070B0008000800080009080401F130
:1021600089C9E9F1010409080401F1090949F101EA
:10217000040F1000F50101F50171557101F5010120
:10218000F50000230222032202AB022203220223D3
:10219000403D105656465656561056560056561046
:1021A00056565646565656105656005656105656C1
:1021B00056465656561056560056561056565646C1
:1021C00056565610565600565610565656465656A1
:1021D0002B0308130B038B430B002B132B032B0335
:1021E0002003230323032300230323032303A80340
:1021F00023032303234003030303230320032B03AD
:102200002B132B000B438B030B1308032B0E3700F0
:10221000000080000880C8E070385C0E00E070B9F3
:102220001C0E570301EA0000FD0000EF00FA000059
:10223000FF0000FF0000FF0000EF00FF0000FFF8BC
:102240004827FCFCFF0000EF00FF0000F70704E850
:102250000F0FFF000007001F0000FF0000FF00003D
:10226000FF000000000000000000000700003F0029
:10227000000E380D025B3870E0C080200022002282
:10228000400000FD0000EA0103570E1CB870E0009A
:1022900000FF0000FF0000FF0000FA00EF0000FF59
:1022A000FCFC2748F8FF0000FF00EF0000FF0F0FC5
:1022B000E80407F70000FF00EF0000FF0000FF0048
:1022C00000FF00001F0007B040DF00000700000211
:1022D00000020002000F388800000080000880C85B
:1022E000E0F0F8FCFE00C0E0F0F9FCFE00FFFFFFAC
:1022F0007F7FBFBF00DFEFEF07F7FBFCFDFEFE00B7
:10230000FFFFFF00EFEFEFE0EFEF0FEFEFEFE0EF9A
:10231000EFEF00F7EFEF1FDFBF007FFFFFFFFFFFD3
:10232000FF0003070F003F7FFFFFFEFE01FDFBFBE9
:102330000000000000000000010307001F3F7F00B5
:102340000F380DF2FBF8F0E0C080200022002200E0
:102350002200BFBF7F7FFFFFFF00FEFCF8F0E0C060
:1023600000FFFFFF00FEFEFDFCFBF707EFEFDF00C5
:10237000EFEFEFE0EFEFEF0FEFEFE0EFEFEF00FF4A
:10238000FFFFFFFFFF7F00BFDF1FEFEFF700FBFB4B
:10239000FD01FEFEFFFF7F3F000F0703B04FDF1F71
:1023A000000703010200020002000214180E0006DA
:1023B0000200000000000000000080808082860093
:1023C0000E00000000000080008030B034B234B253
:1023D00034B23400000000100C1C0D0C0D0CAD0CC0
:1023E0000D0C0D1C0D0C0D408014180E00E612C8CB
:1023F00008E404740404F404E408C812E6000E00BF
:1024000000FF00BD00F7007F0000FEF68282F6FEAE
:1024100000000000001F101710171017B010161042
:10242000161016101E4080212000D606F6E606D6AD
:1024300006060606D606261606D606060606D6069C
:10244000060606D606E6F606D60000FF00BD8300A7
:10245000FF00AEAC00FF0000F84C054CF80000FF98
:1024600000ACAE00FF0083BD00FF0000FF00F77B63
:1024700000FF00460200FF00004F08E8084F000080
:10248000FF00820600FF007BF700FF000007060642
:102490000606070606060607060606065786068689
:1024A0000687068606A6470606060607003D38107C
:1024B0000010000000002000220022002200220064
:1024C00002000204020002008000880080008000F8
:1024D000880008000800080008000800880088003C
:1024E000000080008800880088100800110011009A
:1024F0001100012000200020000000200020000228
:102500000002000010001000100010000000002069
:102510000020042004000400140014000000002027
:102520000020000000200020000400000004000043
:102530000010000400000000000000000001000086
:102540000000000400040000000000000000000083
:102550000000000008000000000000000000000073
:102560000000001000040080008040004000008057
:10257000008000004000400000800000400000009B
:10258000000000000000000000000000400000808B
:1025900000004000400000800080000040004080BB
:1025A0000080001502048A04004520050014081468
:1025B000001402100011001100110011001100118F
:1025C0000055001100110011200100010011001040
:1025D0000214001408140005204500048A040215A2
:1025E0000020012000200020002000000000000248
:1025F0000002000200020002000200020002552256
:10260000002200220022012A1082000200020000A3
:102610000000002000200020002001200000000019
:10262000000000000200020002000200024022043A
:10263000020002000200020002000201000000008D
:1026400000000000000000010810800000000000F1
:1026500000000000000000000000594F5520464FC8
:10266000554E440008080AF403808003F40A101051
:1026700002050A050201080000080102050A050218
:10268000AA550A000000000000000000000A55AA38
:102690003F20007F7F7F7F7F7F7F7F7F7F7F7F7F68
:1026A0007F007F7F7F7F7F7F7F7F7F7F7F7F7F7FB9
:1026B0007F007F7F7F7F7F7F7F7F7F7F7F7F7F7FA9
:1026C0007F007F7F7F7F7F7F7F7F7F7F7F7F7F7F99
:1026D0000000BFBFBFBFBFBFBF80BFBFBFBFBFBFC7
:1026E00000BFBFBFBFBFBFBF80BFBFBFBFBFBFBFF8
:1026F0003FBFBFBFBFBFBFBFBF80BFBFBFBFBFBFA9
:1027000000BFBFBFBFBFBFBF80BFBFBFBFBFBF0096
:1027100000DFDFDFDFDFDFDF1FDFDFDFDFDFDF0047
:10272000DFDFDFDFDFDFDF1FDFDFDFDFDFDFDFC098
:10273000DFDFDFDFDFDFDFDF1FDFDFDFDFDFDF0048
:10274000DFDFDFDFDFDFDF1FDFDFDFDFDFDF000017
:102750000F0F0F0F0F0F0F000F0F0F0F0F0F000FA7
:102760000F0F0F0F0F0F000F0F0F0F0F0F0F5F8FB8
:102770000F8F0F8F0F8F0FA04F0F0F0F0F0F000F27
:102780000F0F0F0F0F0F000F0F0F0F0F0F00392735
:1027900089CE55729B4EA7D3E9743A9D4EA7D3E9D3
:1027A000743A9D4EA7D3E9747A5BC9CE11E9743AA5
:1027B0009D4EA7D3E9743A9D4EA7D3E9743A9DB6CE
:1027C0002A95EB64F5AF5254F09C87CFF8E0390FAF
:1027D0009FF1C1731E3E63739DACEC3A9D4EA7D32F
:1027E000E9743A9D4EA7D3E9743A9D4EA7D3E9EC1C
:1027F000B272DD56A7D3E9743A9D4EA7D3E9743A75
:102800009D4EA7D3E9743A9D4EA7DB0E7F3FDF961E
:102810006D5597BABAEA6B57BB4A56B29295AC64FB
:10282000252B59C94A56B29295AC64252B59C94AF1
:1028300056B29295AC64252B59C94A56B29295ACC2
:1028400064252B59C94A56B29295AC64252B59C9B7
:102850004A56B29295AC64252B59C94A56B2929504
:10286000AC64252B59C94A56B29295AC64252B59B4
:10287000C94A56B29295AC64252B59C94A56B292B0
:1028800095AC64252B59C94A56B29295AC64252B58
:1028900059C94A56B29295AC64252B59C94A56B2C9
:1028A0009295AC64252B59C94A56B29295AC6425D1
:1028B0002B59C9DAD5AEEABB525DDFB2DC73790FB2
:1028C0003ECF7B3EEFC1E779CFE73DF83CEFF9BC67
:1028D000079FE73D9FF7E0F3BCE7F31E7C9EF75CA4
:1028E000EF4ADED7A9EABECA5DEE9295AC64252B0D
:1028F00059C94A56B29295AC64252B59C94A56B269
:102900009295AC64252B59C94A56B29295AC642570
:102910002B59C94A56B29295AC64252B59C94A56CF
:10292000B29295AC64252B59C94A56B29295AC64C3
:10293000252B59C94A56B29295AC64252B59C94AE0
:1029400056B29295AC64252B59C94A56B29295ACB1
:1029500064252B59C94A56B29295AC64252B59C9A6
:102960004A56B29295AC64252B59C94A56B29295F3
:10297000AC64252B59C94A56B29295AC64252B59A3
:10298000C94A56B27297BBBEEA6A55973A5BF601DE
:102990000A58502020000A44462020000A415020B6
:1029A000200048502020000F0F0F0F04040F0909CA
:1029B0000F04040906060904040609090657454CD4
:1029C0004C20444F4E45210A544845205249434823
:1029D00045530A554E444552205448450A4D4F55DB
:1029E0004E5441494E0A41524520594F5552530ABF
:1029F0004E4F572100513760E8BA5255D705B76797
:102A0000950DC3E974BB521F51DD95AC6EAA7BE7EF
:102A1000B7E96D7ABB0E16CF2AA79C72CA29E55476
:102A2000AD9C72CAD5B752E57D5545C474D5552BBA
:102A300055D7E5AABA545D4A55ADAC3AE5CA56D267
:102A4000553ED82D9FCC5E4ED94AEE435456D950B0
:102A50006723AB9C74A95C2AF5F5BD5A55A752A90A
:102A6000BEEF6455EAAFAABB5A555F95AAAB4E7547
:102A700075AB7AB9BC5675C595EDAABAAA727555EB
:102A8000CA662BD529752AF828AB6C2A5BD9AA4EC1
:102A9000555775A5B2D5555DD910955536C2EAAAD8
:102AA0009DCE2A9B55AE94AB5C29579553F2AAABA9
:102AB00056EA54D5A95355A75AD595EAAAAEAAAB5A
:102AC000EAAABAAA56B5AACA55AED4555D5597EA30
:102AD000E4329FCD565775555DD55575559553EADA
:102AE00056EA568DBEEC5239A7A492DB5823ABCEE2
:102AF000A6EA2A5755575557E5AABAB2A9A4BAEA81
:102B0000EBAA2A55F72AD5A5CAA552B9CA76AA3A78
:102B10005597BAAAEAAA2E559772555D95AB5C2ACD
:102B200097CA552ED555B9545775555D55ABCA77CB
:102B3000AAABEA529DAAABBA9453CAD655759593DF
:102B4000D77D55572AD7ABD455EFD2A9EE4E27E9FA
:102B5000B259E5D4655395CDA572F96C2E555D95A6
:102B60004BAD2A975A55AE6A55577555AB5AD57223
:102B700079A9552A95AB5465AB935DDD5597EAEE7F
:102B80004A2EBB77A954EA529DEB5C65ABEBBBAE1A
:102B9000EFBB2AF75D9DBA54A5AED4AA725557D59E
:102BA00055E5AA7295AB4E55AE6A55B9AA5575A5AD
:102BB0002E5BA94B652B57B9CA55AE7215D7D2A952
:102BC000AA2BD575ABE4052437E8B3D9CAD5AAD466
:102BD000E52A79B9AAD4AA2B9BAD6CB6AABAAAAE3B
:102BE000AAB395CD5672D555A9CB55F272AA94AB1E
:102BF0006565F3715757D55575555D55ABCA563652
:102C00009FCD87B80A85D97C365BABEAAABAAAAE53
:102C1000AAAB2A575595ABAAABEAAABA4AAD98F621
:102C2000C9E57AB9CEAEB3B9AA5C7555E52A579510
:102C3000CD67D7CBF5F292B3B57255AEAAAEAAABBB
:102C4000EA2AC6ABCAAAF8AA5A2ABBAC4E5DA53A74
:102C5000B5AC6CAEEAAACAD55555AEAEAA5C55362F
:102C6000D555D59FCB2E2BBB745531A5A5AB2A1FAF
:102C70006FBE7295BC5C55EAAAAB52577555755C30
:102C800057D5C9DBC96D95B595FC96C9ABCA77B662
:102C9000AABAAAABD45557A52E57D9CA85BCD966AE
:102CA000DB9652D6256FE9565A59E5F26AA92A2BC6
:102CB000E54A69B754E9E8B6F958C7575AC9E894DC
:102CC0004E2A32A5930A494A276753644A563A3234
:102CD000A593B356A4200003071F051F1F151B1F34
:102CE00011111F110E1F15111F05011F111D1F04AA
:102CF0001F001F0010101F1F041B1F10101F061F96
:102D00001F011F1F111F1F05071F311F1F051B1745
:102D1000151D011F011F101F0F100F1F0C1F1B047B
:102D20001B071C071915131F111F001F001D151766
:102D300011151F07041F17151D1F151D01011F1F4A
:102D4000151F17151F0017000020000102040810AE
:102D500020408000553411241FBECFEFDAE0DEBFE3
:102D6000CDBF12E0A0E0B1E0E8EDFAE602C00590C8
:102D70000D92A433B107D9F728E0A4E3B2E001C073
:102D80001D92AE33B207E1F716E1CBEAD6E104C0FB
:102D90002197FE010E945F35CA3AD107C9F70E9408
:102DA000F4290C946A350C940000FC0180914802CF
:102DB000811103C08FEF9FEF08959FB7F89482E0D1
:102DC0008093E9002091F20030E01216130614F40B
:102DD00021E030E02115310559F0289884E68093F0
:102DE00047028091F10080838091F200882319F0DE
:102DF0009FBFC90108958BE68093E800F9CF2FB7F4
:102E0000F89483E08093E9009091E800892F807224
:102E100095FF04C09091F20080E4891B2FBF0895B4
:102E200080914E0281110DC082E080934A0284E0BD
:102E300080934B0210924D0210924C0281E08093DD
:102E40004E028AE492E00895CF93DF931F92CDB7AC
:102E5000DEB76983DC01ED91FC910280F381E02D06
:102E600041E050E0BE016F5F7F4F09950F90DF9109
:102E7000CF91089583E08093E9008091F200882348
:102E800019F08AE38093E80008950E94FF1690E00D
:102E90000895CF93DF931F92CDB7DEB7FC018485F1
:102EA000958597FD05C02FEF3FEF358724870BC031
:102EB000CE0101960E94D516019719F4898190E000
:102EC00002C08FEF9FEF0F90DF91CF9108950F9386
:102ED0001F93CF93DF931F92CDB7DEB78C01FC0118
:102EE0008485958597FF0EC0CE0101960E94D51668
:102EF000019719F4298130E002C02FEF3FEFF8016C
:102F000035872487F801848595850F90DF91CF91CF
:102F10001F910F910895FC018485958597FD0BC045
:102F20009FB7F89482E08093E9008091F2009FBF00
:102F300090E0019608959FB7F89482E08093E900AD
:102F40008091F2009FBF90E008958F929F92AF9280
:102F5000BF92CF92DF92EF92FF920F931F93CF9386
:102F6000DF935C016B017A0180913401882309F4BD
:102F70005BC080914802882309F456C080914602C4
:102F800080FF05C08091E00082608093E000E7014F
:102F900010E00AEF83E0882E9AE3992E2097D9F16A
:102FA0000E94FF1681110AC0015009F43DC061E082
:102FB00070E080E090E00E946426F0CF282F30E09F
:102FC000C217D3070CF48C2F4FB7F8948092E90006
:102FD0009091E80095FF1DC0282F30E0C21BD30B55
:102FE000F601982F915020F081918093F100FACF53
:102FF000C20ED31E112319F09092E80009C08091EF
:10300000E80085FD06C09092E80011E0209709F0E5
:1030100010E04FBFC3CF1111C3CF5D9884E68093FA
:1030200049021E141F0444F081E090E0F5019383EF
:10303000828380E090E001C0C701DF91CF911F91B2
:103040000F91FF90EF90DF90CF90BF90AF909F9047
:103050008F9008950F931F93CF93DF931F92CDB757
:10306000DEB782E0898342E450E066E475E180E8FF
:103070000E94C0290E941017DC0112960D911C912C
:1030800013970115110569F0D801ED91FC910280AB
:10309000F381E02DBE016F5F7F4FC801099597FF57
:1030A00007C089810F90DF91CF911F910F910895F3
:1030B000F80100851185E5CFE0915906F0E0EE0FAB
:1030C000FF1FE657FE4F4081518120E06BE270E028
:1030D00082E490E00C94E826EBECF7E080E5858351
:1030E00084838CE2868389E696E00E94BE1C89EB8D
:1030F00095E10E949D1C85E796E00C94BE1CEF9222
:10310000FF920F931F93CF93DF937C01EB018A0112
:1031100040E0602F8C2F0E94FA1F882361F0E11499
:10312000F10409F44DC040E0602F8C2F0E94FA1F7B
:10313000863609F045C08091850690918606FC018F
:103140003296AC01465E5F4FDF0112972C911196CB
:103150008C91908197FF0CC09F779456923040F4E9
:1031600030E02C173D0721F490E08017910741F1E2
:103170003396E417F50741F780E090E0FC01E9574A
:10318000F94F40812181368137FF08C050E04C174C
:103190005D0721F430E02017310791F00796823D5A
:1031A000910561F7E114F10469F0F701808190E085
:1031B0008C179D0739F4818190E08017910711F4F5
:1031C00080E001C081E0DF91CF911F910F91FF90CE
:1031D000EF9008951F920F920FB60F9211248F93C4
:1031E0009F938091E1009091E100937F9093E100A3
:1031F00083FF0FC01092E90091E09093EB001092D2
:10320000EC0092E39093ED001092480298E09093C6
:10321000F00082FF20C093E09093E9009091F200CB
:10322000992319F09AE39093E80090914902992329
:1032300039F090914902915090934902992389F174
:1032400090914702992339F09091470291509093C1
:103250004702992341F184FF10C08091E2008E7EE5
:1032600081608093E2008091E1008F7E8093E10095
:10327000809146028E7E806111C080FF16C08091D1
:10328000E2008E7E80618093E2008091E1008E7E7C
:103290008093E100809146028E7E81608093460299
:1032A00004C05D9ACDCF289AD6CF9F918F910F9071
:1032B0000FBE0F901F9018951F920F920FB60F928E
:1032C0001124CF92DF92EF92FF920F931F932F93CF
:1032D0003F934F935F936F937F938F939F93AF939E
:1032E000BF93EF93FF93CF93DF93CDB7DEB76C9788
:1032F000DEBFCDBF1092E9008091E80083FFEDC1F1
:1033000068E0CE0145960E94E72982EF8093E800AD
:103310008D8987FF05C09091E80090FFFCCF03C026
:103320009EEF9093E800982F907609F0C6C09E8992
:103330002F89188D91110CC0803829F48091450295
:103340008093F10002C01092F1001092F10048C188
:10335000422F50E0512B913051F4811141C1413045
:10336000510509F03DC1809145028D7F0BC093301E
:1033700061F4811135C14130510509F031C18091AD
:1033800045028260809345022BC1953041F48091C3
:10339000E80080FFFCCF20682093E30021C1963035
:1033A00009F05FC0EB8CFC8C1092E9001092430294
:1033B00010924202123091F5109241021092400296
:1033C0000E942A1899E0BE016F5F7F4FDB01E92F51
:1033D0001D92EA95E9F799831A8391E09E8390EA1A
:1033E00098879AEF99872091420230914302275F94
:1033F0003F4F3C832B838D831092E9001092430250
:1034000010924202F0924102E092400249E050E004
:1034100080E00E94C0290E942A18E2C0F092410276
:10342000E09240020E941017DC011296ED90FC9091
:103430001397E114F10409F4C0C0D701ED91FC9198
:103440000480F581E02DBE016B5E7F4FC7010995B9
:10345000009719F00CF0C4C0C7C0F701E084F184F4
:10346000E8CF973009F4C0C0983021F481E0809310
:10347000F100B6C0993009F0B3C0837009F0B4C050
:10348000E4E8F1E081E021E036E39081992361F006
:103490008093E9002093EB0091919093EC0030939E
:1034A000ED008F5F873089F78EE78093EA001092F6
:1034B000EA008F898093480293C08B8D9C8D109277
:1034C000E9001092430210924202909341028093CD
:1034D0004002898D811156C08E899D89913A59F497
:1034E000813209F081C047E050E06DE271E080E098
:1034F0000E94C02975C0913209F076C0833289F4E8
:10350000888D90E0982F88272F89822BA0E0B0E04B
:103510008093290190932A01A0932B01B0932C0151
:103520005FC0803269F48091E80082FFFCCF67E0E1
:103530008DE291E00E94E7298BEF8093E80006C0BE
:10354000823209F04DC08F8980933401809144020A
:10355000882319F0EEEFFAE002C0E0E0F8E0809195
:103560002D0190912E01A0912F01B0913001803B4F
:103570009440A105B10509F07BC08091340180FF22
:1035800093C076C00E941017DC0112960D911C9119
:1035900013970115110541F1D801ED91FC910190AE
:1035A000F081E02DBE016B5E7F4FC801099581114E
:1035B00017C0F80100851185ECCF113009F44EC019
:1035C000133091F48F89882309F445C0823081F447
:1035D00040E86EE08AEA95E10E941834882321F0E1
:1035E0008EEF8093E80079C081E28093EB0075C094
:1035F000813029F440E86BE08EE995E1EDCF83302E
:1036000099F70E941017DC011296ED90FC90139729
:103610008E010F5F1F4F6801E114F10479F0D701AB
:10362000ED91FC910680F781E02DB801C701099565
:10363000080F111DF701E084F184EECFD8011C9230
:10364000F60101900020E9F73197BF016C197D095F
:1036500040E0C601C1CF68E875E102C06CE875E1E1
:103660006115710509F2FB01449150E080E840CFFB
:103670000FB6F894A89580916000886180936000EF
:10368000109260000FBEA895EE3F2AE0F20739F0D5
:103690008091FE0A9091FF0A91838083A1CF1092BE
:1036A000FF0A1092FE0A9CCFEE3F8AE0F80731F045
:1036B000808191819093FF0A8093FE0A87E797E7C4
:1036C000918380839BE088E10FB6F894A89580935E
:1036D00060000FBE9093600083CF6C960FB6F89495
:1036E000DEBF0FBECDBFDF91CF91FF91EF91BF91B4
:1036F000AF919F918F917F916F915F914F913F918A
:103700002F911F910F91FF90EF90DF90CF900F902E
:103710000FBE0F901F90189570E06F5E7F4F61385D
:10372000710514F060E870E06151AC0147705527F5
:1037300021E001C0220F4A95EAF797FD0796FC01A8
:1037400083E0F595E7958A95E1F7F695FE2FEE274C
:10375000F795E795E859FD4F615020F08081822B65
:103760008193FACF089580915E0681110AC08091FD
:103770005F0680935E068091600680935F061092DC
:10378000600680915F06811106C08091600680937B
:103790005F0610926006089565E070E080E090E0BA
:1037A0000C9464260F931F93CF93DF93EC014BE0AF
:1037B00050E0BC0189E696E00E94E734BE01655FF7
:1037C0007F4F4BE050E085E796E00E94E734FE0132
:1037D0007696E491E0935706FE017796E491E093A4
:1037E0005806FE017896E491E0935906FE01799619
:1037F000E491E0936706FE017A96E491E09368060F
:10380000FE017B967491ADE8B6E04CE160E02C914E
:103810002F77671710F080E001C080E8282B2C93E9
:1038200027FF5CC0FE01E40FF11D9491207C292B41
:1038300081E0840FFE01E80FF11D84918D01065097
:103840001109F801808382E0840FFE01E80FF11D69
:103850004D5F84910F5F1F4FF8018083992389F09A
:103860009130A1F09230B9F09330D1F080E09430F3
:10387000E1F09530F1F0963001F536E053E095E057
:103880001FC081E034E15AE09FE01AC080E03AE0D6
:1038900055E09AE015C081E038E055E098E010C0AE
:1038A00081E03CE056E09CE00BC032E35CE099E153
:1038B00007C033E052E094E003C030E050E090E015
:1038C000FD013497908331969083319650833196E1
:1038D00030832F7B811180E4282B2C936F5F179608
:1038E0006E3109F094CF2EE161E777E0CE010E94BE
:1038F000DB2828E0482F69E577E0CE010E94DB282D
:10390000D0938206C093810629E537E0309386067E
:103910002093850690E0A0E0B0E08093630690934A
:103920006406A0936506B093660684E08093560211
:10393000DF91CF911F910F9108950F931F93CF9314
:10394000DF938C01C0E0D0E0F801EC0FFD1F649123
:10395000662371F0E091CB07F091CC070190F081E4
:10396000E02D8BEC97E00995892B11F02196ECCF97
:10397000CE01DF91CF911F910F910895009769F0CB
:10398000FC0101900020E9F73197AF01481B590B6A
:10399000BC018BEC97E00C94C12580E090E0089589
:1039A000CF92DF92EF92FF920F931F93CF93DF930B
:1039B000CDB7DEB7A1970FB6F894DEBF0FBECDBF6F
:1039C000282F30E040E050E019A28E010F5D1F4F1C
:1039D0008AE0C82ED12CE12CF12CCA01B901A70133
:1039E00096010E942235605DF80162938F012115D6
:1039F00031054105510589F7CF010E94BE1CA196F2
:103A00000FB6F894DEBF0FBECDBFDF91CF911F91EF
:103A10000F91FF90EF90DF90CF9008956F927F927B
:103A20008F929F92AF92BF92CF92DF92EF92FF92CE
:103A30000F931F93CF93DF9300D000D0CDB7DEB7A5
:103A4000DA01109709F4FDC1FA01F490319654910E
:103A50001296CF2CD12C222311F1E52FE695E69575
:103A6000E695AE2EB12CE1E0F0E0352F377011F481
:103A7000E0E0F0E0EA0DFB1DCE9E5001CF9EB00CC1
:103A8000DE9EB00C1124F3E0EF1202C0AA0CBB1CA6
:103A90002A9DF0012B9DF00D1124AE0FBF1F77243E
:103AA0007A94E71008C00115110519F0EE24E3948B
:103AB00002C032E0E32E5C01AC0CBD1C1A141B04E6
:103AC0000CF0BFC1803891050CF0BBC19B01250FE4
:103AD000311D121613060CF0B4C1603471050CF0E0
:103AE000B0C1109709F4ADC19B0177FF04C0222734
:103AF0003327261B370B422F4770942EFB0177FD8F
:103B0000379623E0F595E7952A95E1F72E2F77FF75
:103B100007C0992029F02FEF2E0F38E03919932E86
:103B200097FF05C0EE27FF27E81BF90B02C0E0E076
:103B3000F0E030E8A316B1041CF030E8381B01C0F7
:103B40003F2D3E1B622F022E000C770B2F3F1CF4E3
:103B5000862E809401C0812CBB24B394452F4770DE
:103B600009F4B12C569556955695B50E6B0D711DF1
:103B7000693071051CF058E0B52EB21AB818280D3E
:103B800040E82403800D911D11248E0F9F1F8F9CF0
:103B9000E00DF11D1124AD014E0F5F1F61E070E0DB
:103BA000092C02C0660F771F0A94E2F7A3E0EA1619
:103BB00009F405C1AE15B8F077247394E71409F43D
:103BC000B4C0E2E08E2EE8103CC1EFEFE69F80012A
:103BD000E79F100D1124009510951C830B837C80AA
:103BE0006B2C620E28C0AAEFEA1629F0EBEFEE125A
:103BF00028C1B20E86C0B20E4EC0FA01EE0DFF1DF6
:103C0000E491E69F5001E79FB00C1124BA82A9828B
:103C100027FD04C0EC91E023AE2AAC92911014C0B1
:103C2000FFEFEF1AFF0A1196E31638F32F5F4C0DE2
:103C30005D1D80589F4F261509F403C1DC01A95A68
:103C4000BD4FE12CF12CF0CF273054F7FD01E058A7
:103C5000FF4FA080A7208A80A828A082E1CFFA0188
:103C6000E00FF11FE491E69F7001E79FF00C112433
:103C7000FA82E98227FD03C0EC91EE2AEC929110C2
:103C800013C00F5F1F4F1196031748F32F5F4C0DA2
:103C90005D1D80589F4F2B1509F4D3C0DC01A95A34
:103CA000BD4F00E010E0F0CF27305CF77D01E0E889
:103CB000EE0EF11CF701A080FA81AF2AF701A08275
:103CC000E0CFFA01EE0DFF1DE491E69FD001E79FE2
:103CD000B00D1124BA83A98327FD05C0A095F80172
:103CE000B081AB23A083911015C0FFEFEF1AFF0A3C
:103CF0000F5F1F4FE31628F32F5F4C0D5D1D80589B
:103D00009F4F2B1509F49DC08C01095A1D4FE12CC2
:103D1000F12CF0CF27304CF7D801A058BF4FFA81D3
:103D2000F095EC91FE23FC93E0CF0E0F1F1F8B2C20
:103D3000820E281509F485C0FC01E95AFD4F5F0188
:103D4000E12CF12CE31698F5F801EE0DFF1DE4913E
:103D5000E69FD001E79FB00D1124A095B095BC83DC
:103D6000AB83FA01EE0DFF1DE491E69F3001E79F62
:103D7000700C11247A82698227FD05C0F501B0819B
:103D8000AB236A2A6082992059F027304CF4D50180
:103D9000A058BF4FFC91EC81EF23FA81EF2BEC93FD
:103DA000FFEFEF1AFF0AAFEFAA1ABA0ACBCF2F5FC5
:103DB0004C0D5D1D0C0D1D1D80589F4FBACFE32E7D
:103DC000F12CE40FF51FDC01A95ABD4FAC0149529B
:103DD0005D4F00E810E00E191F09CE18DF08CC0C6B
:103DE000DD1C9B2D732E8B2CCF93DF93EA01A590C6
:103DF000E590992059F0A69E5001E69E700127306B
:103E00002CF47881F0947F217B29799322233AF056
:103E10007C91E0947E217A297D930C94101F119659
:103E20003A9529F79A9551F0372D23951124EC0DE9
:103E3000F11DA00FB11DC00FD11DD9CFDF91CF91C2
:103E400011240F900F900F900F90DF91CF911F9141
:103E50000F91FF90EF90DF90CF90BF90AF909F9029
:103E60008F907F906F9008954F925F926F927F92A4
:103E70008F929F92AF92BF92CF92DF92EF92FF927A
:103E80000F931F93CF93DF93EC017B016A01C9016C
:103E9000A901461B570B57FF03C051954195510986
:103EA00096012C1B3D0B37FF03C03195219531093D
:103EB00011E02417350714F010E00AC03C2D2D2D19
:103EC0006C01832F922F3C2F2D2FE701E32EF22E32
:103ED000CC16DD0654F43E2D2F2D7C01832F922F1E
:103EE0003C2F2D2FE601C32ED22E26014C1A5D0A3F
:103EF0004C018E189F0897FE03C0919481949108FD
:103F0000520157FE03C02FEFA21AB20AB594A7942C
:103F1000E816F90614F08FEF01C081E0682E880FD3
:103F20007708CC16DD06B4F0202F112319F0AE016E
:103F3000B70102C0A701BE0185ED97E00E94AF283E
:103F4000A818B908B7FE04C0E60CF71CA40CB51CF1
:103F50002196E7CFDF91CF911F910F91FF90EF90C6
:103F6000DF90CF90BF90AF909F908F907F906F9099
:103F70005F904F9008958F929F92AF92BF92CF9291
:103F8000DF92EF92FF920F93CF93DF936B01EC01DF
:103F90004C01840E911C5B01A20EB11CC815D90501
:103FA000ECF47601D7FE10C0E12CF12C0DC0E81620
:103FB000F90694F4202FA701BE0185ED97E00E9439
:103FC000AF282FEFE21AF20AC50121E4A216B104CC
:103FD00074F380E490E0EBCF2196E0CFDF91CF91B6
:103FE0000F91FF90EF90DF90CF90BF90AF909F9098
:103FF0008F900895582F862F209185063091860640
:10400000F9013296265E3F4FDF0112977C9111969F
:104010006C919081411102C097FF07C0751305C0D4
:10402000681303C0892F8F7708953396E217F3073B
:1040300059F7552309F45EC0882309F45BC0409109
:104040006706E52FF0E0AFE09FE0499F9001112463
:1040500021503109E217F30709F44CC0209168069A
:10406000E82FF0E09FE0299F9001112421503109B1
:10407000E217F30709F43EC06A2F0E945335382F28
:10408000292F852F0E945335E0916306F091640635
:10409000E80FF11D349FE00DF11D112440918106C0
:1040A00050918206E40FF51FE491822F8695869544
:1040B00086954091830630918406A42FB32FAE0FCE
:1040C000B11DAE0FB11D3FE0839FF0011124E90F38
:1040D000F11D8D919C91E80FF91FE491277081E00B
:1040E00090E001C0880F2A95EAF7E82381E021F4E7
:1040F00080E0089581E0089508952F923F925F92A5
:104100006F927F928F929F92AF92BF92CF92DF92E7
:10411000EF92FF920F931F93CF93DF931F92CDB730
:10412000DEB7E0905806F12C23E0E21AF108512C9A
:104130008091580690E003968E159F050CF451C0AF
:1041400020905706312C82E0281A310825E0529E33
:1041500060011124560186E0A80EB11C460128E03A
:10416000820E911C87E0C80ED11C10E0809157068A
:1041700090E00296821593057CF137FC28C080916F
:1041800067062FE0829FC001112428163906FCF42F
:10419000F7FC1DC0809168062FE0829FC0011124AA
:1041A000E816F906A4F4143009F05AC0511058C0AA
:1041B0000EC0373608F0B4C0343648F0C3018D590C
:1041C0009F4F00E09401AC01B6010E94341F1F5FB5
:1041D0008FEF281A380ACACF53942FEFE21AF20A47
:1041E000A7CFEE24E39407EA19E220E04BEA59E274
:1041F00065E170E08CE690E00E940E1D86E48093FD
:10420000D0078093CF0788E08093D10760915A064A
:1042100082EA99E20E94CD2860915C068CE999E2DD
:104220000E94CD2860915B0686E999E20E94CD2824
:1042300060915D0680E999E20F90DF91CF911F9127
:104240000F91FF90EF90DF90CF90BF90AF909F9035
:104250008F907F906F905F903F902F900C94CD281F
:1042600040E06E2D822D0E94FA1F382F813009F414
:10427000AECF80E090E0FC01E957F94F60814181C9
:10428000268127FF10C070E06215730561F450E0CD
:104290004E155F0541F425E0129FC001112420E076
:1042A00047EB59E21DC00796823D910521F780E05A
:1042B00090E0FC01EF58F84F60814181228127FF97
:1042C00015C070E06215730589F450E04E155F0566
:1042D00069F425E0129FC001112420E041EB59E26E
:1042E000B5018E599F4F0E94E82671CF03968A35FB
:1042F0009105F9F685E0189F3001112401E024E0D2
:1043000044E0B501C3018E599F4F39830E94BB1F02
:104310003981363609F04DCFC3018C599F4F51CFAB
:10432000373609F44BCF53CFEF920F931F9322E010
:10433000E22E00E010E020E00E940E1D1F910F9180
:10434000EF9008952F923F924F925F926F927F92DB
:104350008F929F92AF92BF92CF92DF92EF92FF9295
:104360000F931F93CF93DF93CDB7DEB728970FB688
:10437000F894DEBF0FBECDBF009157060F8330917A
:104380005806388780915906813041F000F182301B
:1043900009F444C0833009F45EC084C0EE24EA947A
:1043A000512C01E0712CD12C3FEF3A8366246394A9
:1043B00032E0432E11E031E0398330E099249A94C1
:1043C00042E0342E53E0A52E62E0262E3FC0088541
:1043D000802F90E0BB24B394833091050CF4B12C72
:1043E0008824839402970CF4812CE12C5524539457
:1043F00000E077247A949EEFD92E3FEF3A8366242B
:104400006394412C1FEF3EEF39833DEF2EEF922E48
:1044100033243394A12C22242A9455C0E12C552412
:104420005A9400E07724739412E0D12E31E03A835D
:1044300066246A94412C11E032E0398333E082E053
:10444000982E33243A94A12C2224239488248394F4
:10445000BB24B39438C00F81802F90E0BB24B39469
:10446000833091050CF4B12C8824839402970CF4CA
:10447000812CEE24E394512C0FEF712CD12C31E0E0
:104480003A8366246A94EEEF4E2E1FEF3FEF398396
:1044900030E099249394FEEF3F2EADEFAA2EBEEFAD
:1044A0002B2E11C0E12C512C00E0712CD12C1A8242
:1044B000612C412C10E0198230E0912C312CA12C80
:1044C000212C812CB12C21E04CE058E260E070E01E
:1044D00080E090E03E830E94672721E04EE857E2AB
:1044E00064E070E082E490E00E9467274DEA54E2C5
:1044F00064E070E084E090E00E9494213E81BB2063
:1045000009F44CC06885630F40E08F818A0D0E94DA
:10451000FA1F882309F442C08456843070F490E076
:10452000FC01EC5FFD4F3081FC01E050FE4FF0805C
:10453000FC01E450FE4FC08003C0C12CF12C30E0E0
:1045400074E0A72EB12C4A2D41704B831C824B8105
:104550005C81415E5F4F21E0B50185ED97E03E83D0
:104560000E94AF285FEFA51AB50A3E8181E4A81624
:10457000B10449F7131694F4E32FEE0FFF0BE85F35
:10458000FD4F408151816C2DCC0C770B6C5F7F4FC0
:104590008F2DFF0C990B03960E949421811002C06D
:1045A000D12C5CC06885690D40E08F81820D0E942E
:1045B000FA1F882341F042E050E26BE170E084E0B2
:1045C00090E00E94942169813885630F40E08F81DB
:1045D000830D0E94FA1F882341F04AEC5FE16BE1F2
:1045E00070E086E290E00E94942168856D0D40E0C5
:1045F0008F81840D0E94FA1F882391F284568430A3
:1046000008F0C9C1282F30E0F901E850FE4FD080F2
:10461000F901EC50FE4FC080F901E051FE4FB0802F
:1046200041E951E26BE170E084E090E00E94942166
:104630001D1494F4ED2DEE0FFF0BE85FFD4F40814C
:1046400051816B2DBB0C770B6C5F7F4F8C2DCC0C8D
:10465000990B03960E949421DD24D3946A813885B6
:10466000630F40E08F81810F0E94FA1F813039F47F
:104670004DEF50E262E170E084E090E00AC08436E1
:1046800011F0873641F449E750E263E170E082E1DE
:1046900090E00E9494216885610F40E08F81860D33
:1046A0000E94FA1F813029F44FE950E262E170E084
:1046B00008C0843611F0873641F443E550E263E1E7
:1046C00070E08AE290E00E94942140E06885670DE6
:1046D0008F81800F0E94FA1FFF24F394811102C082
:1046E000F12C40C0853699F028F4813041F08436B1
:1046F00051F015C0863679F0873629F010C02EE0CB
:1047000030E011E00FC02EE03FE012E00BC025E1E9
:1047100036E113E007C025E136E114E003C020E0F4
:1047200030E01FEF40E956E262E170E083E090E0A4
:104730002D833E830E9494212D813E811F3F91F065
:10474000E12FEE0FFF0BE85FFD4F40815181622F9B
:10475000220F770B6C5F7F4F832F330F990B0396DC
:104760000E94942168856E0D40E08F81870D0E9424
:10477000FA1F813019F440E453E206C0843611F088
:10478000873641F441E752E264E070E083E090E074
:104790000E9494216885600F40E08F81850D0E9402
:1047A000FA1F813039F445ED52E264E070E083E3B2
:1047B00090E00AC0843611F0873641F44DE052E2B1
:1047C00064E070E084E390E00E94942180915906B7
:1047D000F11058C020E030E0E82FF0E0DF01A851F0
:1047E000BE4F0F81602F70E0AF0144515E4F4A0110
:1047F0005885052F10E0A9014957594FFA01E0806B
:10480000C180968197FF19C09C91F12CF4015081D1
:10481000550F5B01A50EB11C57FDBA94EA14FB04B9
:1048200061F44C2D50E0990F7801E90EF11C97FDD1
:10483000FA944E155F0509F4B2C0295F3F4F223D3F
:104840003105C9F6D1101EC040E050E090E0DC0117
:10485000A851BE4F0F81602F70E09C0124513E4F44
:1048600069013885032F10E09A012957394FF90162
:10487000E0808181968197FD99C0495F5F4F423DFD
:10488000510591F7ADE8B6E063E7862E67E0962E16
:1048900010E00F81402F50E03885632F70E0FD015C
:1048A000369720813196E081FC91F7FF23C08091FB
:1048B000570690E0821B91092091580630E02E1B8C
:1048C000310959F47C0197FF04C0EE24FF24E81A53
:1048D000F90AEA94EF2871F4F4C0009759F47901C9
:1048E00037FF04C0EE24FF24E21AF30AEA94EF280B
:1048F00009F4EAC080915602843011F0873049F5FE
:10490000F4013297E08031960081F401B080B7FE67
:1049100020C08091590690E09C0128513E4FF9013A
:104920003081F12C84519E4FFC018081FA01E80F07
:10493000F11D87FDFA95EE16FF0659F4802F90E0E1
:10494000FB01E30FF11D37FDFA958E179F0709F460
:1049500054C01F5F1796F3E08F0E911C1E3109F0B3
:104960009ECF28960FB6F894DEBF0FBECDBFDF9165
:10497000CF911F910F91FF90EF90DF90CF90BF905C
:10498000AF909F908F907F906F905F904F903F90EF
:104990002F900C947D20B12CC12CD12C41CE4EE611
:1049A00056E269E170E08BE190E024C09C91F12C2B
:1049B000F6012081322F330F230FFB01E20FF11D8F
:1049C00027FDFA95EE16FF0609F057CF282F30E0A5
:1049D000892F880F980FF801E90FF11D97FDFA95BF
:1049E0002E173F0709F049CF44E656E26CE170E02C
:1049F0008EE190E00E94942145CF4B2D4F77B42E4D
:104A000051E0451759F08DEF8B0D833018F442E1DA
:104A1000F42E06C033E1F32E37E103C024E1F22E79
:104A200034E100E02BE249E26BE070E08EE090E0E0
:104A30003E830E94BB1F01E029E247E26CE070E088
:104A40008FE090E00E94BB1FEB2DF0E0EE0FFF1F08
:104A5000E054FE4F408151816F2D70E020E03E8197
:104A6000832F90E00E9467271092D20701E1009304
:104A7000D0070093CF078CE08093D1078AE596E2B8
:104A80000E949D1CEFEFEB0DE53090F4F0E0EE0F8F
:104A9000FF1FEA54FE4F80819181009749F00093F7
:104AA000D0070093CF072EE22093D1070E949D1CD0
:104AB00081E08093D20787E08093560210933708F5
:104AC00050CF009709F057C0892B11F081E009C041
:104AD000121613061CF41092590605C0232B19F068
:104AE00082E080935906FF73F13069F0F23071F083
:104AF000F33079F0F43081F0F53089F0F63091F44C
:104B000096E18DE011C095E08BE00EC09AE088E060
:104B10000BC093E080E108C095E083E005C090E120
:104B200087E102C095E086E02F2F30E0C92ED12C1E
:104B3000E82EF12C5901AA0CBB1CF501E652FE4FE0
:104B40004081518120E0B601C7010E946727F5012D
:104B5000E453FE4F4081518121E0B601C7010E941C
:104B6000672780915602843019F489E080935602B9
:104B700010933808F6CE181619060CF0A5CF83E06E
:104B8000B0CFCF92DF92EF92FF920F931F93CF930C
:104B9000DF936C017A018B01C0E0D0E0CE15DF0518
:104BA00089F0D8016D918D01D601ED91FC910190B4
:104BB000F081E02DC6010995892B11F47E0102C018
:104BC0002196ECCFC701DF91CF911F910F91FF90FC
:104BD000EF90DF90CF900895CF93DF93DC0140E01A
:104BE00050E080E090E0C1E0D0E04617570709F4BC
:104BF0003CC014962D913C91159721153140B9F484
:104C00001596DC93CE93149712962D913C911397A1
:104C1000ED91FC911197E20FF31FE4911696EC933E
:104C200016972F5F3F4F13963C932E93129714962F
:104C3000ED91FC91159716962C91169730E02E2346
:104C40003F23232B49F09E01042E02C0220F331F65
:104C50000A94E2F7822B932BEE0FFF1F1596FC931D
:104C6000EE9314974F5F5F4FC0CFDF91CF910895C0
:104C70000895089580E090E008950E9465353FB75B
:104C8000F89480913A0890913B08A0913C08B0912B
:104C90003D0826B5A89B05C02F3F19F00196A11D20
:104CA000B11D3FBFBA2FA92F982F8827820F911DC2
:104CB000A11DB11DBC01CD0142E0660F771F881F09
:104CC000991F4A95D1F708958F929F92AF92BF9204
:104CD000CF92DF92EF92FF926B017C010E943F2600
:104CE0004B015C01C114D104E104F104F1F00E9414
:104CF0003F26DC01CB0188199909AA09BB09883E26
:104D00009340A105B10570F321E0C21AD108E10872
:104D1000F10888EE880E83E0981EA11CB11CC11416
:104D2000D104E104F10419F7DDCFFF90EF90DF909B
:104D3000CF90BF90AF909F908F9008951F920F9249
:104D40000FB60F9211242F933F938F939F93AF939E
:104D5000BF938091340290913502A0913602B091B8
:104D600037023091390823E0230F2D3720F40196C4
:104D7000A11DB11D05C026E8230F0296A11DB11D7E
:104D8000209339088093340290933502A093360221
:104D9000B093370280913A0890913B08A0913C086B
:104DA000B0913D080196A11DB11D80933A089093E2
:104DB0003B08A0933C08B0933D08BF91AF919F91F1
:104DC0008F913F912F910F900FBE0F901F901895CC
:104DD000EF920F931F933AEFE32E00E010E00E9452
:104DE0000E1D1F910F91EF900895EF920F931F9357
:104DF000CF93DF93FC0196816A3031F485818483FF
:104E00006185960F968332C0262FEF01848161E081
:104E1000690F2A3344F4203354F4213251F02E32F6
:104E2000B1F425E207C021542A3120F010C02651E8
:104E300001C024E23F81062E000C770B082E000CE7
:104E4000990B313051F447ED5CE20E94E8268885E9
:104E50008D5F9C81890F8C8309C03BEFE32E00E0BE
:104E600010E047ED5CE20E940E1DF1CF81E090E082
:104E7000DF91CF911F910F91EF90089583B126B1EB
:104E80009FB130E02095309520743327A90124E0AC
:104E9000559547952A95E1F7292F30E020953095D3
:104EA000207C332756E0359527955A95E1F7242B3A
:104EB00080958077822B089583B7817F83BF83B7E6
:104EC000816083BF889583B78E7F83BF08952F92BB
:104ED0003F924F925F926F927F928F929F92AF928A
:104EE000BF92CF92DF92EF92FF920F931F93CF93D7
:104EF000DF93CDB7DEB72E970FB6F894DEBF0FBEA7
:104F0000CDBF3C016B01022F5A8349831C821B8257
:104F100080E091E09E838D831F8268E070E0CE0187
:104F200001960E94EC2501969A87898768E070E0D7
:104F3000CE0101960E94EC257C0161E070E0CE017B
:104F400001960E94EC25682F89859A85860D971D0C
:104F500097FDECC020E8621671040CF0E7C09701E1
:104F60002F5F3F4FC601820F931F97FDDFC040E4C4
:104F7000C416D1040CF0DAC07601D7FE04C0EE24CA
:104F8000FF24EC18FD0857E0E522FF24A601D7FE18
:104F900002C0495F5F4F2A01E3E055944794EA95C8
:104FA000E1F7D7FE09C081E0481A510888E090E097
:104FB000AC014E195F097A01A90137FF02C0495FB0
:104FC0005F4F1A0173E0359427947A95E1F72770C3
:104FD0003327232B19F05FEF251A350A6887AA2497
:104FE000A394B12C10E0C12CD12C812C912C88E001
:104FF00090E09C012E193F093C872B878214930473
:105000000CF094C021E030E061E070E0CE01019648
:105010002D873E870E94EC252D853E85892B19F42E
:105020002E5F3F4FF1CFB901CE0101960E94EC25D2
:10503000DC01119620E030E02A173B0708F06DC034
:10504000488541111A29AA0CBB1CA11451E0B506D0
:1050500009F060C0C201880D991DAC014F5F5F4F20
:105060004930510508F040C0A601460D571D403893
:105070005105D0F5BC017695762F66277795679513
:10508000660D771D6C0D7D1D8F3F4FEF940709F462
:1050900049C0412F0E2C01C0440F0A94EAF7FB01CE
:1050A000E95AFD4F002319F05081452B03C040956C
:1050B000508145234083E114F104B1F00797A1F03A
:1050C000812F90E00B8402C0959587950A94E2F7B2
:1050D000FB01E952FD4F002319F01081812B03C021
:1050E00080951081812380835FEFC51AD50A498599
:1050F0005A85C416D50654F05FEF851A950AAA247E
:10510000A394B12C10E0C12CD12C04C0AA24A394E8
:10511000B12C10E02F5F3F4F8FCF288531E0232740
:1051200028876CCFE114F10459F6DECF2E960FB626
:10513000F894DEBF0FBECDBFDF91CF911F910F91CD
:10514000FF90EF90DF90CF90BF90AF909F908F90A7
:105150007F906F905F904F903F902F9008956038B0
:105160007105D0F440345105B8F4EBE4FDE280E180
:10517000849FD001A0781124A60F4770E40FF11D81
:105180008491A95ABD4F222319F06C91862B03C03C
:1051900080956C9186238C930895CF93C62F0E949F
:1051A0009D1CCA3020F485ED9CE20E949D1C8C2F32
:1051B000CF910C94D01CCF93DF93EC0181E0840F4E
:1051C000FE01E40FF11D4491DB01129630E032172D
:1051D00029F19C919F779C933417E8F4FE01E80F26
:1051E000F11D949151E0580FFE01E50FF11D54910E
:1051F000BD0162507109FB01508352E0580FFE015E
:10520000E50FF11D8D5F54916F5F7F4FFB01508360
:10521000E92FE068EC933F5F1396D9CFDF91CF91F0
:105220000895CF93DF93C7E5D6E084E18B8382E0D6
:105230008C838D831F820E94B31B18860E94B31B30
:1052400019860E94B31B84E08A870E94B31B85E005
:105250008B870E94B31B81E0809328011092380253
:10526000DF91CF91089527E0829FC0011124FC01B6
:10527000E957F94F8281681718F4861B82830895D5
:10528000128286818F7786830895CF93C82F21E07D
:105290004CE058E260E070E080E090E00E94672718
:1052A00021E0CC23E9F04EE857E264E070E082E4CC
:1052B00090E00E94672720E044EB5EE06BE270E044
:1052C00082E490E00E94E8260E947D2021E047ECE5
:1052D0005BE266E070E080E190E00E94672714C026
:1052E00045EF59E264E070E08BE290E00E946727AE
:1052F00089E08093D0078093CF0788E08093D1071F
:105300008DEB99E20E949D1C8091DB078095909126
:10531000DA07892381FF04C00E94112910925602E6
:10532000CF91089540914202509143022091400252
:105330003091410242175307B4F49091E800957000
:10534000E1F39091E80092FD19C08093F100809103
:1053500042029091430201968F739927892B19F489
:105360008EEF8093E8008091420290914302019673
:10537000909343028093420281E0089580E0089573
:10538000DF92EF92FF920F931F93CF93DF93D82E6C
:105390008A017B01E40EF51EEB01CE15DF0571F0ED
:1053A000D7FE03C0FE01849101C088810E9492292A
:1053B00021968111F2CF8FEF9FEF01C0C801DF91DD
:1053C000CF911F910F91FF90EF90DF900895615062
:1053D00030F02091F100FC0120830196F8CF28984D
:1053E00084E6809347020895CF93DF9300D000D0E6
:1053F000CDB7DEB7789484B5826084BD84B5816012
:1054000084BD85B5826085BD85B5816085BD80918F
:105410006E00816080936E00109281008091810007
:1054200082608093810080918100816080938100FF
:1054300080918000816080938000809191008260E3
:105440008093910080919100816080939100809180
:1054500090008160809390008091C100846080936F
:10546000C1008091C10082608093C1008091C10021
:1054700081608093C1008091C30081608093C300EC
:105480008091C00082608093C0008091C2008160E2
:105490008093C20080917A00846080937A0080912A
:1054A0007A00826080937A0080917A008160809394
:1054B0007A0080917A00806880937A001092480286
:1054C00010924502109246028091D700816080932D
:1054D000D70080EA8093D80089B5806189BD89B5FD
:1054E000826089BD09B400FEFDCF61E070E080E01C
:1054F00090E00E9464268091D8008F7C8061809328
:10550000D8008091E000807F8093E0008091E100EE
:105510008E7E8093E1008DE08093E200559A209A80
:10552000EEEFFFE7859194918B3F9C4D19F481E05C
:105530008093440281EC80937C0085B1816785B9BA
:1055400084B18F7884B984B1876084B9469A3E98D3
:105550005F9A5E988AB1806D8AB981B3806C81BB95
:10556000899880B38D7380BB80E58CBD81E08DBD53
:105570000E94CC1B5E9A0E94CC1B5F985C98E7ED62
:10558000F5E08DE08E0F94919EBD00000DB407FEF6
:10559000FDCF31968E13F7CF5C9A81E8809364003B
:1055A00081E0809365000E943E2784FF11C05C98D3
:1055B00085EA8EBD00000DB407FEFDCF5C9A2898E9
:1055C000809164008062809364000E945C27FDCF1C
:1055D00081E28093DC07809164008E7F8093640079
:1055E00080917A00806480937A0080917A0086FDB1
:1055F000FCCF00917800109179000E943F2620E0B6
:1056000030E0980111270027600F711F821F931F40
:10561000611571058105910511F00E94DE348091BC
:10562000640081608093640080E091E09093840640
:10563000809383060E9411298EE596E0E3E08E0FA9
:10564000382EF4E04F2E512C612C712C2FB7F8948A
:105650008091340290913502A0913602B0913702C8
:105660002FBF4091E1075091E2076091E3077091ED
:10567000E4071091E507112349F02091DD07821B13
:105680008093E6071092E5070C943C338417950746
:10569000A607B70740F4481B423010F40C943C3383
:1056A0000E945C27E9C721E02093E5078093DD078E
:1056B0009093DE07A093DF07B093E0072091DC070B
:1056C000820F911DA11DB11D8093E1079093E20708
:1056D000A093E307B093E4078091D8079091D9078E
:1056E00001969093D9078093D8078091DA07809329
:1056F000DB070E943E278093DA07812FE7E5F2E07F
:1057000081118FEF0024819381938193819303947E
:10571000D1F7E09156028E2F90E08431910508F088
:1057200093C7FC01EA5AFF4F0C945F351092380280
:1057300083E00C940A34E091380279C741E060912B
:105740005806809157060E94FA1F182F0E94A22126
:105750000E945C189091DB0790952091DA079223C4
:1057600094FF37C020915906243050F430E0F901FD
:10577000E559FE4FF080F901E959FE4F008102C062
:1057800000E0F12C80915806402F002E000C550BA4
:10579000480F511D809157066F2D0F2C000C770B71
:1057A000680F711D87E596E00E947F18982E882368
:1057B00009F4B5C0809157068F0D809357068091EC
:1057C0005806800F80935806173611F100E010E05C
:1057D00043C096FF04C0809159068E5F0BC095FFB1
:1057E00004C080915906815005C092FF07C0809186
:1057F00059068F5F83708093590691C090FF8FC0C8
:105800008091560280933F0285E08093560287C0C4
:10581000E12CF12C00E010E067EEB62E70E5D72EFB
:10582000ECE2CE2EE0918506F0918606EE0DFF1D8E
:10583000828187FD0AC0873641F48091570688230C
:1058400021F080915806811121C7F3E0EF0EF11C81
:1058500028E1E216F10431F740E0609158068091AA
:1058600057060E94FA1F863651F480913802833021
:1058700010F482E101C083E180935602E7C684E020
:105880008093560247E8C42E46E0D42E58E8E52E11
:1058900056E0F52EF701858187FF31C086FF2FC0C6
:1058A000F60160812091570630E070E0261B370B2F
:1058B000A0915806F701B081EB2FF0E08A2F90E01D
:1058C0008E1B9F0B09F000C7A90137FF04C04427B6
:1058D0005527421B530B4130510509F0A4C7232B18
:1058E00009F0E2C6292D97FF03C091958195910992
:1058F000019709F4DBC680E0281709F4D9C6F7E060
:10590000CF0ED11C27E0E20EF11C8AE5E81687E0F5
:10591000F80609F0BFCF0115110509F097C60E94DE
:105920006C1892C621E04CE058E260E070E080E044
:1059300090E00E94672721E04EE857E264E070E0C3
:1059400082E490E00E94672721E04FE453E164E0A5
:1059500070E084E090E00E9467270E945C180E943B
:105960007D2023E5E22E21E0F22E3EE5832E36E077
:10597000932EF401EB5F1E2FF40181914F018823D8
:10598000D9F0F701C080D180A280B38000E020E18F
:105990004EE0B501C6010E94BB1FF4013197E081C2
:1059A000F0E0EE0FFF1FE95BFE4F4081518121E0E7
:1059B000B501C6010E946727F4E0EF0EF11C181133
:1059C000DBCFE0913E0224E0E29FF0011124ED5A8A
:1059D000FE4F62817381655F7F4F8081918120E0FE
:1059E00045E453E103960E9467271091DB07109569
:1059F0008091DA0718231092D20703E10093D007B1
:105A00000093CF0783E28093D10780915C060E94C8
:105A1000D01C0093D0070093CF078DE28093D1076D
:105A200080915B060E94D01C81E08093D207809118
:105A30005602853019F0863029F106C615FF06C0DA
:105A400080913E02882311F0815007C012FF08C0E8
:105A500080913E02823020F48F5F80933E02F4C535
:105A600010FF03C080913F02D5C611FFEDC5E09144
:105A70003E02F0E0E95AF94F8781882309F4E4C532
:105A800086E0C8C600913D02013019F082E590E041
:105A900002C08EE590E021E045E453E168E370E068
:105AA0000E9467274BE353E16DE270E081E590E0EF
:105AB0000E94942141E353E16DE270E08DE590E0B6
:105AC0000E94942115FF06C0002321F0015000938D
:105AD0003D02BAC512FF06C0011104C081E08093E7
