:100000000C94F5150C941D160C941D160C941D16CD
:100010000C941D160C941D160C941D160C941D1694
:100020000C941D160C941D160C945D1D0C94CF1D84
:100030000C941D160C941D160C941D160C941D1674
:100040000C941D160C941D160C941D160C941D1664
:100050000C941D160C941D160C941D160C9449241A
:100060000C941D160C941D160C941D160C941D1644
:100070000C941D160C941D160C941D160C941D1634
:100080000C941D160C941D160C941D160C941D1624
:100090000C941D160C941D160C941D160C941D1614
:1000A0000C941D160C941D160C941D16DD2C102D91
:1000B0007D2981298429872A872A332C84294B2D5D
:1000C0004B2D4B2D4B2D4B2D4B2D4B2D19304530A2
:1000D000DE3013316C2D852DC72D002EC72E252F18
:1000E0008E2F4120534C494D450041205241540030
:1000F0004120445241474F4E0041205752414954FC
:1001000048004120535041524B4154004120534B31
:10011000454C45544F4E00414E204F4343554C41B2
:1001200052000D0FE9B3EB6CB67295AB5C25674ED0
:10013000A7BED5A554ED4AA9CEA5D3E9743A5D0D65
:100140000F4995CB965295ABFACA56B294CB2BD6A3
:1001500074253B5795AA4A75755757A5AA529DAB6A
:10016000643A5D0D0F99969DAB5255325555559594
:10017000EB2A75DEF958D3E974253BD7B9CE75AEB5
:10018000739DEB5CEDD2050D0F4995CB55A95EC96A
:10019000AA5755299757ECE974253BD7B9CE75AEC8
:1001A00073954CA7D3E9020D0FC9964E7DEA73CE25
:1001B00029B9DD3AA7A473F3A5D395AC643A9D4E53
:1001C000A7D3E974BA002020445241474F4E532030
:1001D000202020204C41495220202020253A000593
:1001E000041E042503002317003217032537031EBE
:1001F00034011633011A38030838010433030A297D
:10020000010A2003122501182303251F01212403BD
:10021000291301341C01311C013325013332033A07
:100220003603423300412601431A033407034309CE
:100230000305080316090107050116041E01182EFF
:1002400001013601271F011C2801012B01362B015A
:10025000492401250A020106020B0B021011021BA0
:1002600017023815022E06024703024512020D1F1F
:10027000022927021F2E021031021521022718021F
:10028000230C03270C031F01032B01052310042655
:1002900025052B1504011508652501640F34640735
:1002A0002D64251E64161E64071E64341E64431EDE
:1002B000000407000408030202030B010D09020AEF
:1002C0000D050C0920204352595054204F46202040
:1002D00020414E47554953482020162B0003031E4A
:1002E00002132706152301161F020D2A02212906D3
:1002F000262806082805112305262601041F0218B2
:1003000019011515011610010710020315020A172D
:10031000022417052B1506251B06240B02250905AB
:10032000270606250202120A0617070612050518F7
:100330000303070101090B0107051B010223011536
:1003400021012121011127020B21022B1B0218126E
:10035000020B1202031A021A1A02211202290302C4
:10036000120B0205070517170405150529010410CE
:1003700001032315032912030B0B0301050329298C
:10038000030327030D1B021F1501010D056507005F
:1003900064070F64160F64250F6416280B05040804
:1003A00003080A010948414C4C57415953204F4614
:1003B0002054484520444541442020073A00010488
:1003C00010050A34050133050538050829050324FD
:1003D000060D21060826010517060B10050B17054B
:1003E0000412060304060A09050C040503080107A4
:1003F000021302012F020D2A020329020524020121
:1004000024020B21020B19030B15030D1502051015
:10041000030918020102020B0304030B050C080375
:100420000808010701020901020B0B01650700031F
:10043000020803D5F08D14A1C881CFD9F1AF2000F7
:10044000594F552043414E20484541520A412044CE
:10045000495354414E540A59455420434C4F534537
:10046000520A445241474F4E20524F41520A415383
:1004700020594F5520535445500A5448524F554720
:1004800048205448450A444F4F522E2E2E003B37E9
:100490001019795C9DCD56AEB295AD4E75652B5B4E
:1004A0005D555DD555D555ABAAAE5A77D55555573F
:1004B000E5AABA2A5795ED5484B1C71A75288F2F2B
:1004C0005BB9CA56AE3A5597EA4A5D7555B9CA55F1
:1004D000361B5DD8CB6EB7EBF8F3D9CA662B79D54E
:1004E00055E52A57A94E75AAB2B186A67014752E85
:1004F00057555D555DD5555D555D55572E2C85BEBF
:10050000A4723A1CA59554D239A9F05695ABAA2BE2
:1005100075555D555D95AB1A95314655D5559DCAB6
:1005200055755575555715A2945A49A9A4924A2E46
:100530009554D975085C4796764E2A1DFF555D5532
:100540005DD555D9EAAA8A35172A2B5B954BD55527
:1005500075AAAEAA53C598CEA6D35BBBDFDAD9F194
:10056000B95D2AA99C1B4D5575AAAEAA535D559D30
:10057000AA684353CC31662B5775555D5557D555F1
:100580008D3F25ED5E49BBDF6E9DA2B65B5E3B02F3
:10059000ABEAAABAAAAEAAABEAAA8A351512E34D0B
:1005A000AEB295ABEAAABAAAAEAAAB5C5557E52A99
:1005B00057D96C5CD96C369B8D349BAD5CD5557529
:1005C00055575557652BA264272F5BB9AA5C555721
:1005D000E5AA7295EF542E5BB9AAB096044445463D
:1005E000454E43450041545441434B0043484F4F0F
:1005F000534520424F4E5553004C4556454C200024
:1006000016277494F9A8F27165974E49E7E4BAB3D6
:100610005166A3CE2AB94DE7A4924A2AA9A4D2B919
:100620006E75CE492595545249256DBA925BBFB778
:100630007B25EDA5D3FF72A99C934EAAFF745C2B7A
:100640004A3EC6F43ABD4E565249E5B89D9395CE02
:100650006EB3DBF096CE6EB7DBED76BBDD6EB7EB3F
:1006600074580257454C4C20444F4E45210A54487B
:1006700045205249434845530A554E44455220545B
:1006800048450A4D4F554E5441494E0A4152452066
:10069000594F5552530A4E4F572100513760E8BA0F
:1006A0005255D705B767950DC3E974BB521F51DD8D
:1006B00095AC6EAA7BE7B7E96D7ABB0E16CF2AA779
:1006C0009C72CA29E554AD9C72CAD5B752E57D55D6
:1006D00045C474D5552B55D7E5AABA545D4A55ADD6
:1006E000AC3AE5CA56D2553ED82D9FCC5E4ED94A7B
:1006F000EE435456D9506723AB9C74A95C2AF5F598
:10070000BD5A55A752A9BEEF6455EAAFAABB5A55C8
:100710005F95AAAB4E7575AB7AB9BC5675C595EDAC
:10072000AABAAA727555CA662BD529752AF828ABBC
:100730006C2A5BD9AA4E555775A5B2D5555DD9100F
:10074000955536C2EAAA9DCE2A9B55AE94AB5C293C
:10075000579553F2AAAB56EA54D5A95355A75AD583
:1007600095EAAAAEAAABEAAABAAA56B5AACA55AEE3
:10077000D4555D5597EAE4329FCD565775555DD5F2
:100780005575559553EA56EA568DBEEC5239A7A4D5
:1007900092DB5823ABCEA6EA2A5755575557E5AA00
:1007A000BAB2A9A4BAEAEBAA2A55F72AD5A5CAA5CE
:1007B00052B9CA76AA3A5597BAAAEAAA2E5597729A
:1007C000555D95AB5C2A97CA552ED555B9545775CA
:1007D000555D55ABCA77AAABEA529DAAABBA945302
:1007E000CAD655759593D77D55572AD7ABD455EFB3
:1007F000D2A9EE4E27E9B259E5D4655395CDA5723D
:10080000F96C2E555D954BAD2A975A55AE6A5557E2
:100810007555AB5AD57279A9552A95AB5465AB93EA
:100820005DDD5597EAEE4A2EBB77A954EA529DEB5F
:100830005C65ABEBBBAEEFBB2AF75D9DBA54A5AED2
:10084000D4AA725557D555E5AA7295AB4E55AE6AE6
:1008500055B9AA5575A52E5BA94B652B57B9CA5535
:10086000AE7215D7D2A9AA2BD575ABE4052437E80B
:10087000B3D9CAD5AAD4E52A79B9AAD4AA2B9BADF3
:100880006CB6AABAAAAEAAB395CD5672D555A9CB65
:1008900055F272AA94AB6565F3715757D5557555E6
:1008A0005D55ABCA56369FCD87B80A85D97C365B75
:1008B000ABEAAABAAAAEAAAB2A575595ABAAABEA3D
:1008C000AABA4AAD98F6C9E57AB9CEAEB3B9AA5C70
:1008D0007555E52A5795CD67D7CBF5F292B3B5722A
:1008E00055AEAAAEAAABEA2AC6ABCAAAF8AA5A2A39
:1008F000BBAC4E5DA53AB5AC6CAEEAAACAD55555AF
:10090000AEAEAA5C5536D555D59FCB2E2BBB7455B4
:1009100031A5A5AB2A1F6FBE7295BC5C55EAAAAB88
:1009200052577555755C57D5C9DBC96D95B595FCA2
:1009300096C9ABCA77B6AABAAAABD45557A52E5753
:10094000D9CA85BCD966DB9652D6256FE9565A5965
:10095000E5F26AA92A2BE54A69B754E9E8B6F958DD
:10096000C7575AC9E8944E2A32A5930A494A2767BD
:1009700053644A563A32A593B356A4250F74D9D37B
:10098000EDCA75BBD25DD7D5AD4EA7AAD2EDEAAE02
:10099000EEEAAEEEEAAEEEEAAEEEEAAEEE6A575A36
:1009A00013E9D2ADAEBB72D75DABD3DA57B692FBCB
:1009B00074369D4EA7D3E9743A9D4EA7D3E9743A95
:1009C0009D4EA7938A4CE9743A59E9743AA9C80034
:1009D000250F753AF89137BD75CE39E79C73CE393E
:1009E000E79C73CE39E79C73CE39E79C73CE39E729
:1009F0009C73CE39E79C73CE39E79C73CE39E79C64
:100A0000730E302F90A5A4925B2597CEB918B3AA88
:100A1000555C69267B3A9D2EA5AA52559F4EA72D5F
:100A2000A4A49C734AEE647495DC56EE53AB5B3918
:100A3000592D7752DACAB964AB76B52BA54A55A5BC
:100A4000AA92D5AEEA6B573AE7DC4A9E5A49AB9474
:100A5000BC9592D239FC6D955476291569652B5752
:100A6000AB54ED9CABAC943279259DAB5D2A95AB34
:100A70006CB6E2DD2BB5527FB2DDC9ABBD52AB6ABD
:100A8000A5F6AE6C7299EADE4D9545DC76BBDD6E5F
:100A90009554D2AE53A953A752E9ECCE49554E9581
:100AA00053A5EA72B5ACDD252F75E5AAAEAA4EE5D1
:100AB000439C67744377E9AD92CA3A679DAD5595FB
:100AC000ABAA56D5A9CAC594CFEFF79775522A1D80
:100AD000FC67B7F6AB56FD55AB7ED5EA5EF5AA5777
:100AE000BD6A759F7ABB1D302F90A5A4924A2AA992
:100AF0009C732E74A5D3E9743A9D4EA7D3E9743A3A
:100B00000D1929E79C736ED86DBBDD6E9554524963
:100B1000259DC3DF56492595940A1ECD226EBBDD67
:100B20006EB74A2A69D7E9743A9DDD39A9EC3A1DB6
:100B300014E586EED25B2595944A87E7B49252E994
:100B4000E03FBBDD6EB7DBED76BBDD6EB7DBED7690
:100B50003B4445414C203120444D470A0020444D40
:100B6000470A0054414B4520002B2FD09DDD2E9588
:100B70005472BB5452C9CB5DEE7297BB9C92CA6E45
:100B800067D2A5D3E974C9D2E9745AE3D46D93BB93
:100B9000653657A94BF5A7E5ADB6A7DE559D73574A
:100BA0002B2555ABEDB91491ADBEBECADDAEEA2B17
:100BB000A54AD6AE747662A9D2E9743A9DBBDCE54B
:100BC0002EADAD522BB5F56E375B57A77AA54AD53A
:100BD00075F777AA53FD2D95956E22A7574A312DAB
:100BE0005B12F23B9D4EA7D3E9743A5DE752D2F710
:100BF000EEEF6E998B6E555D5557D55575557555FC
:100C000057E52A1B557657AB52B5522E9B5C29AE41
:100C1000A40AC92B1997524A2DE3AAAECA555D55AD
:100C200057D5557595CB46E59454CA29554AD5AE46
:100C3000964A2AA7A492DB102EB3BBEB9592E95CEF
:100C40005D555DD555D5555D555DD555B98AF7A529
:100C50009250122B2FD09DDD2E95545249E59C7356
:100C6000CE39E79C73CE39E79C5412D5B874DB605B
:100C7000B8B4545249A5ED76BBDD6EB7C386BC52FD
:100C80004925955452492595545249A583DE922A07
:100C900024AF6490D05249E59C73CE39A7A492DB6F
:100CA000102ED3E9743A9D4EA7D3E9743A9D4EA70E
:100CB000B34B25A1242044414D414745210A005909
:100CC0004F55204445414C0A00302F754C4AF6AA36
:100CD0003A55C9AE54BF2EE7D2E9743A9D4EA7D318
:100CE0000EBE4B6F9574D2A9729FD3BA5DED3A5781
:100CF000C9DA75AE92B5EB5C956CBB52F2569F5259
:100D0000523A67B7DBED763B3C96DEAAB89297AADB
:100D1000EEEEAAEA4A5D5DD555D5555D95CBAFAEF1
:100D2000AA555557ADAAB2CAA5F2E955EEB2CE59A9
:100D300025153CB55552D9EDD6395BCB5B55FD55E4
:100D40005755575D555D555DD555B94A5D55577534
:100D5000557555B9547CDAE7A5D2C16FE9F476EB45
:100D60009CDFDA29ABAE2A577555E52A9FAD7C3E4C
:100D7000BFEF6429279D5476F82D1D7D74D145174A
:100D80005D3A9D4E47978E16302F75F84AA7B74AA1
:100D90002AA9A4924A2AA9A4924A2AA9243C97DE05
:100DA0002AE99C54761D9E95545249259574CE6E21
:100DB000B7DBED76782CBD55C159E9B4925249059F
:100DC0004F6D9554524925A5D2C15352E9E0B774ED
:100DD0007ABB750E1E4A2BE99C5476F82D9D4EA7C2
:100DE000D3E9743A9D4EA7D3E9743A9D4EA7A30563
:100DF0000704080C0E0F0E0C08080FB8549D726FF4
:100E00004F7D9DCA2904A5D3D103080F5C2E99CB31
:100E1000AA4B3A6573C95C280A4D080FBC54B9AF98
:100E2000AF52AA7E771255A109080F74AE56D22987
:100E300057EAAAAE5C25B7E9D007232770E69C7372
:100E4000DBAD5A56B25AB5BA64E52AA54AA99295BD
:100E5000ADD5BD6A59C9724A6EB7CE39243276AE65
:100E60004FAD5CCAA55CAABE5556C96D7A9B4E6F44
:100E7000D35B65D3F7A5EA944BA9953C752E9D9756
:100E80008ADE29A674AE5CCAA99CCAA93A5547E471
:100E90005CBA929DEB5C25D3B5AB64EDD2EEE4A9D0
:100EA0009CCAA99CCAA5CAD58C6A9D97CA7EEAAA83
:100EB000D5C9CAB5F3EAAAABAE4A49DDAEBEEABAB5
:100EC000DCA5AA5EB5ABDCE5AE5D9D6BABAA525767
:100ED000FD957F77E53A59FDA9ED1245E9ED76BB21
:100EE000DD86F6F476BBDD6E4313232770E69C7334
:100EF000CE39E7D2E974684BA7D369E79C73CE3942
:100F0000E79008E54945EF14A4A7D679A9EC763B0C
:100F10001AD3E9D0964E87C5ED7689A2F476BBDD6B
:100F20006E437B7ABBDD6EB7A1092044414D41473A
:100F3000452100594F552054414B450A002527A013
:100F4000A17476BBDD6EA7CB6E97CA39E59453CEFC
:100F500029E5B6D95C7689C1EC5239E79453CE299C
:100F6000A79C5372E5AEAE4BA9DAD5AE76B5BA57AB
:100F70009D4B2B2A395976F9A9FED47649B754CE20
:100F800029A7DC72A994534E39E79453CE29A7348C
:100F900091D5E94A56B292954CA7D36D4BEF947315
:100FA000CBE5CE2919AD5452DD5239A79C53729B23
:100FB0000E656E9B4C2E97CB9D534E39A79C53725A
:100FC000BB0DFA4AA7D3E9A0252527A0A17476BBBB
:100FD000DD6EA7CB6E97CA3925B7E9D8B34B0C663F
:100FE00097CA39E794DC063F65B7DB25DD5239A7A0
:100FF000E448CB6E974AA7D3E9D09CDD3925A39569
:101000004A2AA9A492CA3925B7E950E6B66129BB94
:10101000545239A7E4761BF4954EA7D3414B0A41AD
:10102000545441434B5321000C11FF01010161C194
:10103000E171391901FFFF000686C1E0E1C18000BE
:1010400000FF010101010101010101010101202055
:101050002020204152540A202020435952494C0A52
:10106000475549434841524400434F44450A534978
:101070004D4F4E0A484F4C4D455300253F2B59C903
:101080004A56B29295AC64252B59C94A56B272970A
:10109000AAEAAE4AD5ABCE75AE94B397BB5C252B0E
:1010A000D929E5AADC95AC64252B59C94A56B292D8
:1010B00095AC70984DADAA53D5A95C3ADD29E5E30E
:1010C0005352EB9667C352361FBEF3CAABB295CFED
:1010D0002A55A92E9B4EE73A95EE5CAFDAD5ABD4F4
:1010E000CA65B339B572A131BDAD64E752A954EFF9
:1010F0002E9DCE66775CD952FEB25B6553A9CE7544
:10110000AE939D224CA7D3B94BF52AD5B94A6EA30D
:10111000742ADBEA56A52E3799EBFEFFAD3D9D54B0
:10112000F64F7D4A524925D5FFBF748ECB39E794DF
:10113000546CCEA952AB5EF52ECFE5755AAA2D910F
:101140006EBBD5443A9D6EBBB6443ADD76ABD34414
:101150003A2D559A48A76F259554447C9E898DC990
:101160007AEFF9F8F8086D9E892D4D48E7BDF7DE56
:1011700013B989B8AA5495AA4A7DB9735DDDB92B14
:1011800059B2EAABACDDFEBFB6DB739DB6A73E9DA0
:10119000B5DBB7CB9255B2DCD575EACB9DFAAAAADE
:1011A0005255B20A03051F0E04713798EDB673E964
:1011B0008A301B6384A9543ABDFD2A752B55CED9BC
:1011C0007564CA39E75CBC4A2AA9A4924A2AA9A430
:1011D000B2DB5DED3AD7B9ED5649E7948C31A99C65
:1011E000B3736E9D732E5E259554524925955452C6
:1011F0004965B7BB4E6DD3E952AA942AA54AA97492
:101200007A9B4AF59FFA7F95FA94B2EBADDA6ED3EA
:10121000E97425D3A954253BB5AE54322A3BAE78A8
:10122000436E9CCBA5724A6ED3B94E77EE757CFCAB
:101230003A9DDD2AC79C558A72B973DB28974AC745
:101240009456D249B98E8F9F2BAD6AE2A48C975FDA
:10125000EDE4D44BA76CA44B34C51C71544BE594FE
:10126000730A4F4A5DDB5BF52A9DDEFE4AC9DB6DE2
:101270006BB7ADDDB6762FF3CBBC52BA92D5AE6468
:10128000A5542D2BBB6BD7AB542A9DEA55AF7A558D
:101290004A9552A59454524925D5A9539FFA5CB753
:1012A000BADCE52E77B94BA7EEED36956A7557E9AE
:1012B000AC74EE569F7AA9A4924AAA522AF5B94E66
:1012C0007DAF4A29A952A9542A954AA5A4924AAAAF
:1012D00052AA57A954AF4AA9524A2AA9A44AA552C8
:1012E000A9542A954AA552A9D4A73E77B94B6ED7DF
:1012F000975BC7C79F5652C9CB5DEE72955DE6B34B
:10130000D94A6E2BB9ADE4B6B2F96CD629994E3BE9
:10131000974A292727CAB6AC5C2DCB662B9BAD6CB0
:10132000CBCAD5B26CB6B22D9D2AE5E425F7D9F823
:101330005EA7535FD7CE65B7EB529F55A72EA74A3E
:10134000B95297AD6CB6CAD5B272F557ADFA2B9BB0
:10135000AD6CCBCAD5B25AF557A953AE56E554D9A0
:101360006C65B395CD56365BD96C3E9BDD66B74B4D
:101370002595E354928E30954AA79395EB74ACD1A2
:10138000C7EB9C5476BD5552492595DCC66BD76991
:10139000E9EC76BB644A27A999AD92CE39E9A45B02
:1013A000C7C7C72B974A2AA796CAB9D9795BDDEA7E
:1013B00056DBF97899964EE9CE2A2727940A4721D9
:1013C000287CA5D25BB5B6DBE425B795AB4A39D707
:1013D000ABCE49259554F2724A4AE59C54576DB7F5
:1013E0004BE59CBA753A9D4E2BE99C5452D9ED764B
:1013F000BBDD6EB7DBA592CA6EB7DBED76BB54CE14
:101400004965B7DBED76BBDD6EB7DBA5924A2AE70F
:101410009494CA6EB7DBED76BBDD6ED3E9743A9D6A
:101420004EA7D3E9746CD995545249E59C2A259569
:10143000549773CEB9CB29AB5C259D734EC94A2A0C
:10144000B2747ABBDD6ED3E1DD6EEF9C9393D9ADC0
:101450004E67974A39A54A2AAB54AA9595CEA9E575
:1014600010D14EAAEF558C767B5ABA5BC764B7771A
:10147000752E26BB3D95924E71D92D533A6DB7A767
:10148000F35B79293B0C044E4F20494E560A534CCE
:101490004F5453210053504143450A4F4343555045
:1014A000494544210008081E1E1E3F7FDF15140811
:1014B00008787878FCFEFBA82806075476A99C9348
:1014C000CAAE733C376A9BDCC62C553A9D4EA7D3F7
:1014D000E9743A9D4EA7D3924AAA743A9D4EA7D377
:1014E000E9743A9D4EA7259554E9743A9D4EA7D3C9
:1014F000E9743A9D4E4BBC7AFE5CAA93DB65A772F9
:1015000061C87BCF9F4B7572BBEC542E0C79EFF901
:1015100073A94E6E979DCA85218F57A5D3E974BADA
:10152000DC95AC64BADC952C77BADC955239AF52B5
:10153000AA2A55F5E972A7CB9D2E7725CB5DC972F6
:10154000A74B5749ADCB5D95AAEB74B9D3E974B9F4
:10155000AB52954C975255A5AAD19CCD56F2D2E9E3
:10156000E8D2E9E8A28B2EA96425D395AC6425D3F3
:10157000954C57325DC97425D38A4CC94A56325DA1
:10158000C94A56325DC94A56325DC94A5672DCAD07
:101590004A2D9D72A55CE522CE2A1B323D8AF29D22
:1015A000DC2E3B158EBCF728CA7772BBEC5438F2A0
:1015B00088932AF7B52BA56A953BC99A5536545A94
:1015C0009D4EA76B97AE64BA929DAB64252B992E66
:1015D0005D5AEB4A56B2929DAB64252B99AE5D25C0
:1015E0002B99AE64E9C2D525F3EB7D3668CAE99C38
:1015F000D339C7E564A5E37232EBB89CCCCEE67470
:10160000CE71392EC775C94A2A5C0147415445201D
:101610004C4F434B530A424548494E4420594F557D
:10162000210020412053574F524400412053484944
:10163000454C440041205343524F4C4C00485020ED
:10164000504F54494F4E00534F4D45204B45595331
:10165000001C1FA0A1EC32DBA94E75AABBAA2FA5C6
:10166000B2CAE16DBBCD479754AE539DEA54F7F72C
:1016700097AB55AD9C72CA29B90D7BD974D6A972A6
:1016800095CA669D5255EF3A9555D286F6F576A9DC
:10169000E4B0171C1FD0955D6E9797BBD4E56E75AF
:1016A000B9CBDDEA9297BBE476BD0E876E26F7EEE6
:1016B000DD5995F22A2E4F94F53A4FA4DFBD7B6F8A
:1016C000AD7378DA3AEB7EA5DE7DC9F2B2F2447AE8
:1016D0004BA47355DA55A9AFDFAD94DBB9B19A4E7F
:1016E0006FD7DBED76BB5D6EB7E9D0081C1FA89401
:1016F000BBD4ADAA52A554AF7A55A54AA73BD7D5BE
:101700005D9DEBCE7575E772DDB9552A955AAF1D13
:101710007E957AC97795AC54552A95AA88FA529540
:10172000AAFC2ABE5E9646A2DAAD64AABEAAEBBBAC
:10173000B2ABAAEC3A59A94F7DAE53BDCEEE9CFA9E
:10174000F47A3DBED6EBEDB272B5AC5C2D2B57CB27
:10175000CAD5B272B5AC5C2D2B57CBCAD552C9E5F0
:101760006C161FD094722A579DAB645757B2AB2B9F
:10177000D9D595EC642EE57CB8722A5B36E5DCB7EA
:10178000527539A7A492EA565249A754A95BBA4F99
:10179000B9722AEFF8A46F59B692954DA7F3E95C98
:1017A000A7D3D9743A5BC9B2655BA22E9DCEA7D3ED
:1017B000E974369D0E6D191FD0944EC7BAAC5CAD5E
:1017C000E4AA5C6543B5F5DB65E75E75B94B2A1B9A
:1017D00004E494D56B27B7E97456B9B3EA7295DC83
:1017E00056F256B5DBA69D2BE542623A9D0E1A02D3
:1017F000281FB0994E2A1F9AB2D9CA39E59CAA95DA
:10180000B4CA39E93A19517053BEB2D9CA5575559F
:101810005D75555DB94AE55291F5576DA36B759DA0
:10182000DA5E6E59D5DBA5D2D126D7E1A873D9757A
:101830007659B9BA5455D77DD5D57D553B77B9DAA8
:1018400039259D734E2A57AB5BC94FAD7AD5EA5601
:10185000A59C734E2A574BA5EE571D440B191FD05C
:1018600018EBAE76BBF4AAE34BE7F3E9FC684BF563
:1018700075527557752957CA7EAEAAD4A5EA2AA50E
:10188000BACEF6BAD2D9F0B5DC56A4976A95FB4F1A
:10189000E62EB74ABF53B952F155723DDE9659E76D
:1018A00096526DA38B289D8C2EBD956EAD647E14D3
:1018B000013D37505EBB522ABD5EAFD7D12795CBD5
:1018C00086BE7C5EE9E8B3CBE5729B2EA56ADA752D
:1018D0003A342695734AC94B5DF5FD5D9D4A757591
:1018E000B5BAF5AE957556F96CFD95ABCAD5AA5645
:1018F000A5DC5EB95A3A75CAF99453EA92CA55768C
:10190000B72CA74AB9CA557FD9CAE694723BF79754
:10191000EE9395EC5C2AD5F59DABAAAE5AA976520A
:1019200072A99CFB645557D55575E5BE5257AEAAB2
:101930005359B5AA53952D75E918ABEAB225D7BF0F
:10194000924E9D5AA52EB922AA72BE4A5979A94B28
:101950002D9593FF6D2B5BB6AAF2DBB972555795A7
:10196000AB725655575557D5559DADAAABEAAA64EB
:10197000485364F96CBEE64AD56E5BB95A564E318F
:10198000E52B9B4B55B5FAADBAD4A54A5DD5557537
:1019900055FBAABAAAEAAA5C39754ADDCBD5A9CA11
:1019A00065B3B96CE5AAAB6A55D95A555755442366
:1019B00029EC67BBAA5CD55575555D55AEEAAAEA18
:1019C000AA65E5AB2A57E5A473F7AB5FFDA94A3AD0
:1019D00075C94FB5BAD4DF4BA77CD555C564B3CA1A
:1019E000A93A55CB6CE5AAEAAAAAABEAAAEAAA5C8C
:1019F000C8CF56E5AABAAABAEAAA552EEFDCE75232
:101A0000D239E966CB5736978A6A972DA7B2E55443
:101A1000B6948B2895CD562E6C45ABE4361D341606
:101A2000FAD3E9A0392A37A0A1743A9D8E329D4E8F
:101A30002F95545249259D73CE49E7A453F2B2CB5A
:101A40006D884E2AA59472DB947297BB9554B7BAF1
:101A50004AA9D64A2BAD7458DBB9DDCE8DF3AD72F1
:101A6000B7B2AB5EAD5AA956AAD5256B7529E55418
:101A7000ADBAB74BE5DC7A3B251F86959AAD2A5562
:101A8000A5AAFAAACA5266ABA2CC2A773B65BBA22A
:101A9000AE8AAF6C57A9AA5455AAAAA8F60A9F7B8A
:101AA000E9A36BF9365B74557555315655F45715E6
:101AB0006B5D45557A573A4DD7B2B1BC566E99DD3C
:101AC0009157D555C55A571563555D558C5595ABEE
:101AD00050244BB961A1F4D6EEDCD6B9BC727625A0
:101AE000F3CAD995CC2FA55232AF9C545B25950CE7
:101AF000CD322F60ACE0A4909C55368C3A57BBCBCE
:101B0000D5CED9B5B2CECEBA734AED5CED2E572BF9
:101B1000A9D2E978D3DB9017CEA5BB64259554B242
:101B20007297927C5BA7DA3AD5D6A9B64E116EB7FA
:101B30007129E7D4F776BD5656D96DD8CD2A1B86C4
:101B4000D24A76AE942AA5BA6C72B7AE6C55AE7214
:101B500095CDA67295AB5C25575D95BA5C25B751BE
:101B6000B9B0975D87FCEC72B95CAE3AB55C2E9764
:101B7000DB70955D2E97CB6D7AEBACC360D03832BD
:101B80003760266595ADA5724E55E59C54AE56CA94
:101B90002918291D2CB595AEDCD5AB564BD5EA5E80
:101BA000B99DCB6EC7E16597CA29A79C72CA29B9AE
:101BB0000D5BC965A74AA96CB9CB9D2E7739952EC7
:101BC000E53AA7944BBAE9AA5255AB6A7575E92B69
:101BD000555D555F15D3D659679D5D56AEBAAAAB14
:101BE00072CA29B274E874FEDD654BFB34914E7BFA
:101BF0009D3CF98E2ABB92D97ED5C9DD2D979D7A61
:101C0000B5561FFC964EA7D3116E977295750A9D17
:101C10005B59CA4A052F66E5AD9DB3DBD8B7CAB993
:101C200099DCD062B6B2D9CA66439B735BE7F641D2
:101C3000523737D09CCD87C6EC76A75CA953B9CA7A
:101C4000C694CD070FE6F359E5946BBB5535822A50
:101C5000A91C9172D2F1E5F359E59C6ABB558E55EA
:101C600039E7AE9D2A752A57D9109B2D756A55D92B
:101C700050573B3793BA9C2A9B52972A5557AE72BE
:101C800055B9CA56572D2B57CAD55555AEAAEB5B39
:101C9000C9B33955AEB24E3AA5D24959212A9BCD86
:101CA000E7E3DF56D24965974A2E9D54D2C9AA234D
:101CB0008AA85475AAABBAAA3A555D55DD55ADAAA6
:101CC00052A552B54C7F4AC94E55A952AAEAAAAAB2
:101CD000EAAAAEEA5457AAABAA4E7FC5249554CAC5
:101CE00029A994726EBBCE86FEAD56444AE9B45221
:101CF000CA274BA54A76AAEA56A9565925D5A9D48A
:101D0000A9AA5BA53A592A5572AD94D269A59E2C11
:101D100005B96D9574AE942AE574A914912BA2535C
:101D20004CAE986E2A77BEAED67D9752A594734A74
:101D30000E3B46379B228B6EB6E8A21BB602281FCD
:101D400070E79CDB6EB7DBAD545239A7E4361DDA81
:101D5000D2E9AD9252E9D09C6E9D4E077BA5955479
:101D60005249259554D2B990356C36E2743A9D4E5D
:101D7000A7A34FA7D3E9743ABDDD6EB7DBED76BB01
:101D8000DD6EB7DBED76B6ED76BBDD6EA305191F14
:101D9000D0944E2AA9A4726E3B16D3E9AD924A3A6A
:101DA000A7B34B159494DE2A27B7524925B7C342EF
:101DB0005B2595E4B4E9743A9D4EA7D34925955423
:101DC000524925954EA7D3E9743ABD25043D37D035
:101DD00095DD6E974AA232BD5552C96DE84E6F959A
:101DE00054721B3A9554D239E79C93CA6E57721BB2
:101DF000083DBBDD4A65B7DBED3AC877E99C73CE99
:101E00003985BBEC522948388B48A974D062CE3949
:101E1000E79C7376BBDD6E97CA39E794DC86EEF4F7
:101E200076ABA473CE39E79C73DBED36FA747AABEC
:101E3000A473CE39E79C73CE39A7E4361DB4052AC6
:101E400037D09BDD2E9554524925955452A5D3E9A0
:101E500058D3E9F0964E6FB74A2AA924129592A159
:101E60003FADA4546C3B19CE766E1BF276CEC155B5
:101E7000E14C8D38990E1A4C2B892FE7E046DCA5F2
:101E80009DB3C3763B177A95740E5BA3339D4EA723
:101E9000D3E97452492595422A322FB0BC54524995
:101EA0002595545249DEB492844B259554524925C8
:101EB0009554524965B74B259554524965479DDC69
:101EC0006EB7DBAD9278B2EB743A9D0E5FE9909BF2
:101ED000735249259554D22962E79C73CE39E7D3D2
:101EE000E9743A7E74A583D6D25B65B74AEA741862
:101EF00092DBED763BA5B2C36E2BA9A4DAA6D3D9AB
:101F0000A57252E12B9D4EA75B6EC36E76A9D018C9
:101F1000DEF8B64A2AA9A4924A8EDD743A9D4EA7ED
:101F2000D3E9743A74A5D3E9743AFA743A9D0ECDA4
:101F30003237E0211D7F3A9D4E872DFC66974A2A55
:101F4000A9A4924A2AECEF9CC3B573CED9E9B26F2B
:101F5000B7DB6DD8CA2E95738A4929B94D074B66F0
:101F6000974A492515B2ECD05798B3DBED76BB0DF7
:101F7000EDE9ED5649259554524925ED76D439655C
:101F8000A34D3B872F25A1BBAC1C655BE794547226
:101F9000CCB9613BE7A4924A2AA9A4924A2AE794C1
:101FA000DCA6ED76BBDD6EB74B25A1243737B0B983
:101FB00054CE39E79C73CE49652757CE39B70D5DAE
:101FC000E9AD73CE4965475776BBDD6ED7E15F4912
:101FD000E7A4C25FD0527AE4659748B3A12BBDB5A0
:101FE000DB2DCC2895734A2AA9A4924A3A27B593A7
:101FF000CA6EB7DBED76BB0E16DD39E79C5372ACCB
:102000003A0729AA6D3A6829BD754E2ABB4E074D7D
:10201000A5B34BE5DC36E84E49259D734E2AA9A4AD
:10202000924A2AE79C73CE39259D73CE39E71CDC92
:10203000041B100058AC5656561056565646565667
:1020400056105656005656105656564656560200CC
:10205000020103030303230320032B030B130B00D1
:102060000B438B030B1308032B1B10565646565677
:102070005610565600565610565656465656561038
:10208000565656AC58002B0308130B038B430B001A
:102090002B132B032B0320032303230323012200F1
:1020A000220502180000001805020018181800097F
:1020B00008400D410D410D410D4009200080C060D8
:1020C000B018007EBF5701FA005EF000DF1F03006A
:1020D0000F003E0300F7E002542004000400050353
:1020E0000920BF7E0018B060C280001FDF00F05ED4
:1020F00000FA0157E0F700033E002F00230305001C
:102100000400040004001720000080C0E0F000FC80
:102110007E7F7F7F7F7F7F7F7F7F7F7F7F7F7FAEA1
:10212000B0B73B83BDBEBE3FBFBFBFBFBFBF80BF59
:10213000BFBFBFBFBFBF06011D387BF70FEFC0DFBA
:10214000DFDFDFDFDF1FDFDFDFDFDFDFDF000800F4
:10215000080008000B070F0F0F0F8F0F800F8F0F56
:102160008F0F8F0F17207F7F7F7F7F7F7F7F7F7F06
:102170007F7F7F7F7EFC00F0E0C0840000BFBFBF98
:10218000BFBFBFBF80BFBFBFBFBFBF3FBEBEBD835E
:102190003BB7B0AEDFDFDFDFDFDFDF1FDFDFDFDF3B
:1021A000DFDFC0EF0FF77B385D01460F8F0F8F0F1A
:1021B0008F0F800F8F0F0F0F0F070B000800080005
:1021C000080009080401F189C9E9F10104090804BA
:1021D00001F1090949F101040F1000F50101F501B0
:1021E00071557101F50101F500002302220322025D
:1021F000AB022203220223403D1056564656565645
:1022000010565600565610565656465656561056A6
:1022100056005656105656564656565610565600A6
:102220005656105656564656565610565600565640
:10223000105656564656562B0308130B038B430B6A
:10224000002B132B032B032003230323032300233F
:102250000323032303A803230323032340030303CC
:1022600003230320032B032B132B000B438B030BA4
:102270001308032B0E3700000080000880C8E070B0
:10228000385C0E00E070B91C0E570301EA0000FD37
:102290000000EF00FA0000FF0000FF0000FF000058
:1022A000EF00FF0000FFF84827FCFCFF0000EF00F4
:1022B000FF0000F70704E80F0FFF000007001F00F2
:1022C00000FF0000FF0000FF000000000000000011
:1022D00000000700003F00000E380D025B3870E080
:1022E000C0802000220022400000FD0000EA01031F
:1022F000570E1CB870E00000FF0000FF0000FF0058
:1023000000FA00EF0000FFFCFC2748F8FF0000FF88
:1023100000EF0000FF0F0FE80407F70000FF00EFD9
:102320000000FF0000FF0000FF00001F0007B0409A
:10233000DF00000700000200020002000F388800E2
:10234000000080000880C8E0F0F8FCFE00C0E0F06B
:10235000F9FCFE00FFFFFF7F7FBFBF00DFEFEF074D
:10236000F7FBFCFDFEFE00FFFFFF00EFEFEFE0EFED
:10237000EF0FEFEFEFE0EFEFEF00F7EFEF1FDFBF53
:10238000007FFFFFFFFFFFFF0003070F003F7FFFFE
:10239000FFFEFE01FDFBFB0000000000000000014D
:1023A0000307001F3F7F000F380DF2FBF8F0E0C07D
:1023B000802000220022002200BFBF7F7FFFFFFF9E
:1023C00000FEFCF8F0E0C000FFFFFF00FEFEFDFC99
:1023D000FBF707EFEFDF00EFEFEFE0EFEFEF0FEFCF
:1023E000EFE0EFEFEF00FFFFFFFFFFFF7F00BFDF3A
:1023F0001FEFEFF700FBFBFD01FEFEFFFF7F3F003D
:102400000F0703B04FDF1F000703010200020002A5
:10241000000214180E000602000000000000000078
:10242000008080808286000E000000000000800096
:102430008030B034B234B234B23400000000100C3A
:102440001C0D0C0D0CAD0C0D0C0D1C0D0C0D40805D
:1024500014180E00E612C808E404740404F404E43A
:1024600008C812E6000E0000FF00BD00F7007F0064
:1024700000FEF68282F6FE00000000001F1017101A
:10248000171017B0101610161016101E40802120BD
:1024900000D606F6E606D606060606D60626160672
:1024A000D606060606D606060606D606E6F606D6BC
:1024B0000000FF00BD8300FF00AEAC00FF0000F88D
:1024C0004C054CF80000FF00ACAE00FF0083BD00DF
:1024D000FF0000FF00F77B00FF00460200FF000046
:1024E0004F08E8084F0000FF00820600FF007BF75E
:1024F00000FF000007060606060706060606070692
:10250000060606578606860687068606A647060638
:10251000060607003D3810001000000000200022D1
:1025200000220022002200020002040200020080B9
:10253000008800800080008800080008000800086B
:10254000000800880088000000800088008800885B
:1025500010080011001100110001200020002000CF
:1025600000002000200002000200001000100010F7
:1025700000100000000020002004200400040014CB
:1025800000140000000020002000000020002000B7
:10259000040000000400000010000400000000001F
:1025A0000000000001000000000004000400000022
:1025B0000000000000000000000000080000000013
:1025C0000000000000000000000010000400800077
:1025D000804000400000800080000040004000007B
:1025E000800000400000000000000000000000002B
:1025F000000000400000800000400040000080001B
:10260000800000400040800080001502048A040021
:1026100045200500140814001402100011001100D8
:1026200011001100110011005500110011001120BE
:10263000010001001100100214001408140005200C
:102640004500048A0402150020012000200020001B
:102650002000000000000200020002000200020050
:1026600002000200025522002200220022012A104C
:102670008200020002000000000020002000200074
:102680002001200000000000000000020002000203
:1026900000020002402204020002000200020002C6
:1026A000000201000000000000000000000001081E
:1026B000108000000000000000000000000000008A
:1026C000000A000C11FF0101FDFD0D0DFDFD0101D2
:1026D000FFFF00008FCFE0E0CF8F0000FF0101017E
:1026E000010101010101010101FF0101FDFDCDCD4C
:1026F000CD0D0101FFFF00008FCFECECCC8C000072
:10270000FF010101010101010101010101FF0101BD
:10271000FDFDCDCDCDCD0101FFFF00008CCCECEC5B
:10272000CF8F0000FF010101010101010101010141
:1027300001FF0101FDFD81C1FDFD0101FFFF000061
:102740008FCFE7E3CF8F0000FF01010101010101FD
:102750000101010101594F5520464F554E440008D3
:10276000080AF403808003F40A101002050A050227
:1027700001080000080102050A0502AA550A000026
:1027800000000000000000000A55AA3F20007F7FE3
:102790007F7F7F7F7F7F7F7F7F7F7F7F007F7F7FC8
:1027A0007F7F7F7F7F7F7F7F7F7F7F7F007F7F7FB8
:1027B0007F7F7F7F7F7F7F7F7F7F7F7F007F7F7FA8
:1027C0007F7F7F7F7F7F7F7F7F7F7F0000BFBFBF57
:1027D000BFBFBFBF80BFBFBFBFBFBF00BFBFBFBF07
:1027E000BFBFBF80BFBFBFBFBFBFBF3FBFBFBFBFB8
:1027F000BFBFBFBF80BFBFBFBFBFBF00BFBFBFBFE7
:10280000BFBFBF80BFBFBFBFBFBF0000DFDFDFDF15
:10281000DFDFDF1FDFDFDFDFDFDF00DFDFDFDFDF67
:10282000DFDF1FDFDFDFDFDFDFDFC0DFDFDFDFDF97
:10283000DFDFDF1FDFDFDFDFDFDF00DFDFDFDFDF47
:10284000DFDF1FDFDFDFDFDFDF00000F0F0F0F0F26
:102850000F0F000F0F0F0F0F0F000F0F0F0F0F0FA6
:102860000F000F0F0F0F0F0F0F5F8F0F8F0F8F0FB7
:102870008F0FA04F0F0F0F0F0F000F0F0F0F0F0F26
:102880000F000F0F0F0F0F0F00392789CE55729BC6
:102890004EA7D3E9743A9D4EA7D3E9743A9D4EA74B
:1028A000D3E9747A5BC9CE11E9743A9D4EA7D3E996
:1028B000743A9D4EA7D3E9743A9DB62A95EB64F518
:1028C000AF5254F09C87CFF8E0390F9FF1C1731ECF
:1028D0003E63739DACEC3A9D4EA7D3E9743A9D4E8E
:1028E000A7D3E9743A9D4EA7D3E9ECB272DD56A79F
:1028F000D3E9743A9D4EA7D3E9743A9D4EA7D3E924
:10290000743A9D4EA7DB0E0A58502020000A444618
:102910002020000A415020200048502020000404BC
:10292000090606090404060909060403090412013C
:102930000002EF0201404123368000010102030141
:1029400041726475696E6F204C4C4300417264752E
:10295000626F7900FF81ED05F595D505DD85B1A59F
:10296000ED017F7F405E525A4A6A026E425E5455C4
:10297000457F7F55057D415D15545751DD05FD01AE
:102980007F7F415D5750555D017F405F505E427FC4
:10299000FF01DD5155155754D515F585ED21FF7F04
:1029A000405654545054145654565256407FFF09C2
:1029B000ED21ADA5B7A0BFA52DA5AD81FF7F405FDF
:1029C000505B407E026A4B58535E407F7F01FD4161
:1029D0006D496F21ADA58FA5BD81FF7F415D515D23
:1029E000447515555456525A407F7F455551DD4523
:1029F000751175057515FD017F7F415D505B416D5A
:102A0000016D415F407B417FFF01D755DD01FF81B3
:102A1000BD25ED813DA1FF7F405F427A426E086B8C
:102A200042486F404A7FFF01EF89B9A1A181A1A16E
:102A3000B989EF01FF7F405E425A4A7803784A5ACB
:102A4000425E407FFF81FD05EDA9ABA0BF81ED0592
:102A5000FD01FF7F405A525A527E0276525A425B23
:102A6000487F7F41DD455D511754D595B5A5AD81B2
:102A7000FF7F405F415B497B425A5278525E407F04
:102A8000FF41557505D57D04DF01F515DD417F7FDB
:102A9000445F55505B407F415C47505F407FFF0182
:102AA000FD05DD555504F711515515457F7F4076DD
:102AB000445D417F04774451555C417F7F417D05F2
:102AC000DD51555555D5555575057F7F405F515D95
:102AD000405F515D4555515F407F7F21BD85B18588
:102AE000FD0077C51555DD417F7F415F405E525641
:102AF000505545575477407F00027D7F00023D3F8F
:102B00000808B0B0AC944B27D0CF0808CFD0274BE3
:102B100094ACB0B008080D0D3529D2E40BF30808C9
:102B2000F30BE4D229350D0D20000102040810201A
:102B3000408003071F051F1F151B1F11111F110EBA
:102B40001F15111F05011F111D1F041F001F00105D
:102B5000101F1F041B1F10101F061F1F011F1F1116
:102B60001F1F05071F311F1F051B17151D011F0103
:102B70001F101F0F100F1F0C1F1B041B071C071912
:102B800015131F111F001F001D151711151F070416
:102B90001F17151D1F151D01011F1F151F17151FBD
:102BA000001700002000080B0002020201000904C7
:102BB00000000102020000052400100105240101AB
:102BC0000104240206052406000107058103100004
:102BD0004009040100020A0000000705020240004B
:102BE0000007058302400000203211241FBECFEFF2
:102BF000DAE0DEBFCDBF12E0A0E0B1E0E8EEF6E63D
:102C000002C005900D92A430B107D9F728E0A4E0E6
:102C1000B2E001C01D92AE30B207E1F715E1C5EF99
:102C2000D5E104C02197FE010E946733C43FD1075C
:102C3000C9F70E94EC270C9472330C9400002F9279
:102C40003F924F925F926F927F928F929F92AF923C
:102C5000BF92CF92DF92EF92FF920F931F93CF9389
:102C6000DF931F92CDB7DEB700912A0610E0035024
:102C70001109412C80912A0690E003968017910754
:102C80000CF446C020902906312C22E0221A31088B
:102C900085E0489E70011124570126E0A20EB11C68
:102CA00087E0E80EF11C512C8091290690E00296F5
:102CB000821593054CF137FC22C0809139062FE034
:102CC000829FC001112428163906CCF417FD17C0C5
:102CD00080913A062FE0829FC0011124081719073E
:102CE00074F484E0581272C0411070C008C03636C7
:102CF00009F4DCC008F0D0C0343608F0D0C05394DA
:102D00008FEF281A380AD0CF43940F5F1F4FB2CFEE
:102D100080912B06843050F490E0FC01EB52FE4F82
:102D20000081FC01EF52FE4F808102C080E000E094
:102D3000E82EF12CB7016A5F7F4F10E00E591F4F4C
:102D4000603471052CF420E042E0C8010E940325A4
:102D5000B701695F7F4F603471052CF420E042E0D9
:102D6000C8010E94032586E48093A2078093A107EF
:102D700088E08093A30760912C0689E199E20E9484
:102D80009D2660912E0683E199E20E949D26609126
:102D90002D068DE099E20E949D2660912F0687E026
:102DA00099E20F90DF91CF911F910F91FF90EF90DB
:102DB000DF90CF90BF90AF909F908F907F906F905B
:102DC0005F904F903F902F900C949D2640E0602F95
:102DD000822D0E94F522382F813009F490CF80E0B7
:102DE00090E0FC01E75AF94F60814181268127FF7D
:102DF00010C070E06215730561F450E04017510790
:102E000041F425E0529EC001112420E044E259E241
:102E10001DC00796823D910521F780E090E0FC01FE
:102E2000ED5BF84F60814181228127FF15C070E082
:102E30006215730589F450E04017510769F425E0E5
:102E4000529EC001112420E04EE159E2B5018E5995
:102E50009F4F0E94932453CF03968A359105F9F62C
:102E600085E0589E60011124360122E6620E711C35
:102E7000460186E6880E911C6814790409F437CF60
:102E800021E044E0B501C30139830E94FF1F2FEF09
:102E9000621A720A3981F0CF373609F030CF20E05C
:102EA00042E0B701C6018D599F4F06C020E042E0C5
:102EB000B701C6018C599F4F0E94FF1F20CF2F9250
:102EC0003F924F925F926F927F928F929F92AF92BA
:102ED000BF92CF92DF92EF92FF920F931F93CF9307
:102EE000DF93CDB7DEB728970FB6F894DEBF0FBEDD
:102EF000CDBF009129060F8310912A061887809173
:102F00002B06813041F000F1823009F443C0833058
:102F100009F45CC082C0EE24EA94512C01E0712CCB
:102F2000D12C3FEF3A836624639472E0472E11E080
:102F300031E0398330E099249A94E2E03E2EF3E0C8
:102F4000AF2EA2E02A2E3DC00885802F90E0BB2442
:102F5000B394833091050CF4B12C882483940297A8
:102F60000CF4812CE12C5524539400E077247A94BE
:102F70005EEFD52E1FEF1A8366246394412C3EEF3B
:102F800039833DEF6EEF962E33243394A12C222407
:102F90002A9454C0E12C55245A9400E07724739469
:102FA00022E0D22E11E01A8366246A94412C32E08A
:102FB000398333E042E0942E33243A94A12C222426
:102FC000239488248394BB24B39438C00F81802F2A
:102FD00090E0BB24B394833091050CF4B12C882489
:102FE000839402970CF4812CEE24E394512C0FEF80
:102FF000712CD12C11E01A8366246A94AEEF4A2E0C
:103000001FEF3FEF398330E099249394BEEF3B2EBE
:103010008DEFA82E9EEF292E11C0E12C512C00E03F
:10302000712CD12C1A82612C412C10E0198230E0D5
:10303000912C312CA12C212C812CB12C3E830E946F
:10304000152721E049E858E264E070E082E490E06E
:103050000E94462544E155E264E070E084E090E09F
:103060000E9493213E81BB2009F44CC06885630F08
:1030700040E08F818A0D0E94F522882309F442C026
:103080008456843070F490E0FC01EF55FE4F30819F
:10309000FC01E356FE4FF080FC01E756FE4FC08076
:1030A00003C0C12CF12C30E0F4E0AF2EB12C4A2D3E
:1030B00041704B831C824B815C81415E5F4F21E0FC
:1030C000B50187EA97E03E830E947F265FEFA51A4D
:1030D000B50A3E8161E4A616B10449F7131694F4CB
:1030E000E32FEE0FFF0BEB55FE4F408151816C2D0E
:1030F000CC0C770B6C5F7F4F8F2DFF0C990B0396D9
:103100000E949321811002C0D12C5CC06885690D9A
:1031100040E08F81820D0E94F522882341F049E62C
:1031200050E26BE170E084E090E00E9493216981BD
:103130003885630F40E08F81830D0E94F52288233C
:1031400041F041E350E26BE170E086E290E00E94E2
:10315000932168856D0D40E08F81840D0E94F522DA
:10316000882391F28456843008F0CAC1282F30E0B9
:10317000F901EB56FE4FD080F901EF56FE4FC080AB
:10318000F901E357FE4FB08048EF51E26BE170E088
:1031900084E090E00E9493211D1494F4ED2DEE0F35
:1031A000FF0BEB55FE4F408151816B2DBB0C770B14
:1031B0006C5F7F4F8C2DCC0C990B03960E94932152
:1031C000DD24D3946A813885630F40E08F81810FBD
:1031D0000E94F522813039F444E651E262E170E068
:1031E00084E090E00AC0843611F0873641F440EE66
:1031F00050E263E170E082E190E00E9493216885F3
:10320000610F40E08F81860D0E94F522813029F404
:1032100046E051E262E170E008C0843611F0873682
:1032200041F44AEB50E263E170E08AE290E00E94F0
:10323000932140E06885670D8F81800F0E94F52201
:10324000FF24F394811102C0F12C40C0853699F01F
:1032500028F4813041F0843651F015C0863679F07B
:10326000873629F010C02EE030E011E00FC02EE0CC
:103270003FE012E00BC025E136E113E007C025E195
:1032800036E114E003C020E030E01FEF4BE857E2E6
:1032900062E170E083E090E02D833E830E94932101
:1032A0002D813E811F3F91F0E12FEE0FFF0BEB557B
:1032B000FE4F40815181622F220F770B6C5F7F4F51
:1032C000832F330F990B03960E94932168856E0D0F
:1032D00040E08F81870D0E94F522813019F447EA82
:1032E00053E206C0843611F0873641F448ED52E2CD
:1032F00064E070E083E090E00E9493216885600FB5
:1033000040E08F81850D0E94F522813039F44CE335
:1033100053E264E070E083E390E00AC0843611F089
:10332000873641F444E752E264E070E084E390E0E1
:103330000E94932180912B06F11058C020E030E0CC
:10334000E82FF0E0DF01AB57BE4F0F81602F70E038
:10335000AF0147575E4F4A015885052F10E0A9017C
:10336000475A594FFA01E080C180968197FF19C0F2
:103370009C91F12CF4015081550F5B01A50EB11CFD
:1033800057FDBA94EA14FB0461F44C2D50E0990FF8
:103390007801E90EF11C97FDFA944E155F0509F4CA
:1033A000B3C0295F3F4F223D3105C9F6D1101EC081
:1033B00040E050E090E0DC01AB57BE4F0F81602F42
:1033C00070E09C0127573E4F69013885032F10E0BC
:1033D0009A01275A394FF901E0808181968197FD42
:1033E0009AC0495F5F4F423D510591F7AFE5B6E0A6
:1033F000E5E48E2EE7E09E2EF12C0F81202F30E0A9
:103400001885412F50E0FD01369760813196F0819B
:10341000EC91E7FF24C08091290690E08C01061B07
:103420001109B80180912A0690E08F1B910951F48F
:1034300017FF04C000271127061B170B01301105C9
:1034400071F4FEC0012B59F48C0197FF04C00027D2
:103450001127081B190B0130110509F4F5C08091E3
:103460002802843011F0873049F5F4013297008149
:103470003196E080F401B080B7FE20C080912B0629
:1034800090E0BC016B577E4FFB01708110E08757C5
:103490009E4FFC018081F901E80FF11D87FDFA952F
:1034A0000E171F0759F48E2D90E08A01070F111D8A
:1034B00077FD1A958017910709F454C0F394179675
:1034C00013E0810E911C6EE1F6129DCF28960FB687
:1034D000F894DEBF0FBECDBFDF91CF911F910F914A
:1034E000FF90EF90DF90CF90BF90AF909F908F9024
:1034F0007F906F905F904F903F902F900C941F168D
:10350000B12CC12CD12C40CE49E657E269E170E0E4
:103510008BE190E024C09C91F12CF6012081322FA8
:10352000330F230FFB01E20FF11D27FDFA95EE1675
:10353000FF0609F056CF282F30E0892F880F980F0B
:10354000F801E90FF11D97FDFA952E173F0709F0D5
:1035500048CF4FE557E26CE170E08EE190E00E94C9
:10356000932144CF4B2D4F77B42E51E0451761F096
:103570008DEF8B0D833018F462E1D62E07C043E146
:10358000D42E57E1E52E04C034E1D32E24E1E22EFF
:103590000EE010E020E04BE26BE070E0C8010E941A
:1035A000FF1F0F5F1F4F07331105A1F70FE010E05A
:1035B00021E049E26CE070E0C8010E94FF1F0F5F4C
:1035C0001F4F06331105A1F7EB2DF0E0EE0FFF1FA3
:1035D000E35AFE4F408151816D2D70E020E08E2D29
:1035E00090E00E9446251092A40711E11093A207D3
:1035F0001093A1078CE08093A30785E597E20E94D2
:103600008422EFEFEB0DE53090F4F0E0EE0FFF1FBA
:10361000ED5AFE4F80819181009749F01093A207E7
:103620001093A1072EE22093A3070E94842281E039
:103630008093A40787E080932802F092100246CF7F
:103640006115710509F056C0672B11F081E009C0C2
:10365000181619061CF410922B0605C0892B19F0B8
:1036600082E080932B06EF73E13069F0E23071F075
:10367000E33079F0E43081F0E53089F0E63091F420
:1036800086E10DE011C085E00BE00EC08AE008E0A5
:103690000BC083E000E108C085E003E005C080E1E5
:1036A00007E102C085E006E02E2F30E0C82ED12CC5
:1036B00010E05901AA0CBB1CF501E958FE4F4081EE
:1036C000518120E0B601C8010E944625F501E75965
:1036D000FE4F4081518121E0B601C8010E9446257C
:1036E00080912802843019F489E080932802F092B6
:1036F0001102ECCE161617060CF0A6CF83E0B1CF60
:1037000020912B0643EC56E26BE270E082E490E0FD
:103710000C949324EDE9F7E080E5858384838CE2C3
:1037200086838BE396E00E94A52281EC96E20E94BC
:10373000842287E496E00C94A522FC0180911A0271
:10374000811103C08FEF9FEF08959FB7F89482E037
:103750008093E9002091F20030E01216130614F471
:1037600021E030E02115310559F0289884E6809356
:1037700019028091F10080838091F200882319F072
:103780009FBFC90108958BE68093E800F9CF2FB75A
:10379000F89483E08093E9009091E800892F80728B
:1037A00095FF04C09091F20080E4891B2FBF08951B
:1037B000CF93DF931F92CDB7DEB76983DC01ED9124
:1037C000FC910280F381E02D41E050E0BE016F5F8B
:1037D0007F4F09950F90DF91CF91089583E08093FB
:1037E000E9008091F200882319F08AE38093E800D1
:1037F00008950E94C71B90E00895CF93DF931F9216
:10380000CDB7DEB7FC018485958597FD05C02FEF08
:103810003FEF358724870BC0CE0101960E949D1B88
:10382000019719F4898190E002C08FEF9FEF0F900C
:10383000DF91CF9108950F931F93CF93DF931F9242
:10384000CDB7DEB78C01FC018485958597FF0EC04E
:10385000CE0101960E949D1B019719F4298130E049
:1038600002C02FEF3FEFF80135872487F8018485E8
:1038700095850F90DF91CF911F910F910895FC01D5
:103880008485958597FD0BC09FB7F89482E080935F
:10389000E9008091F2009FBF90E0019608959FB7E4
:1038A000F89482E08093E9008091F2009FBF90E05D
:1038B00008958F929F92AF92BF92CF92DF92EF9234
:1038C000FF920F931F93CF93DF935C016B017A01FB
:1038D00080910C01882309F45BC080911A0288232F
:1038E00009F456C08091180280FF05C08091E00065
:1038F00082608093E000E70110E00AEF83E0882E09
:103900009AE3992E2097D9F10E94C71B81110AC012
:10391000015009F43DC061E070E080E090E00E9459
:103920000F24F0CF282F30E0C217D3070CF48C2FD0
:103930004FB7F8948092E9009091E80095FF1DC080
:10394000282F30E0C21BD30BF601982F915020F0A6
:1039500081918093F100FACFC20ED31E112319F08A
:103960009092E80009C08091E80085FD06C0909221
:10397000E80011E0209709F010E04FBFC3CF11110C
:10398000C3CF5D9884E680931B021E141F0444F08D
:1039900081E090E0F5019383828380E090E001C0B4
:1039A000C701DF91CF911F910F91FF90EF90DF90B2
:1039B000CF90BF90AF909F908F900895EF92FF921D
:1039C0000F931F93CF93DF937C01EB018A0140E0BB
:1039D000602F8C2F0E94F522882361F0E114F104FE
:1039E00009F44DC040E0602F8C2F0E94F5228636EE
:1039F00009F045C08091530690915406FC0132961F
:103A0000AC01465E5F4FDF0112972C9111968C91AD
:103A1000908197FF0CC09F779456923040F430E02D
:103A20002C173D0721F490E08017910741F1339660
:103A3000E417F50741F780E090E0FC01E75AF94F01
:103A400040812181368137FF08C050E04C175D0767
:103A500021F430E02017310791F00796823D91055F
:103A600061F7E114F10469F0F701808190E08C17AF
:103A70009D0739F4818190E08017910711F480E06F
:103A800001C081E0DF91CF911F910F91FF90EF90E6
:103A900008958091200281110DC082E080931C0264
:103AA00084E080931D0210921F0210921E0281E09A
:103AB000809320028CE192E008951F920F920FB63E
:103AC0000F9211248F939F938091E1009091E100D8
:103AD000937F9093E10083FF0FC01092E90091E083
:103AE0009093EB001092EC0092E39093ED00109213
:103AF0001A0298E09093F00082FF20C093E0909328
:103B0000E9009091F200992319F09AE39093E8006C
:103B100090911B02992339F090911B029150909340
:103B20001B02992389F190911902992339F0909100
:103B30001902915090931902992341F184FF10C00A
:103B40008091E2008E7E81608093E2008091E100AE
:103B50008F7E8093E100809118028E7E806111C07B
:103B600080FF16C08091E2008E7E80618093E2002B
:103B70008091E1008E7E8093E100809118028E7E1C
:103B800081608093180204C05D9ACDCF289AD6CF69
:103B90009F918F910F900FBE0F901F9018951F92BD
:103BA0000F920FB60F921124CF92DF92EF92FF92F5
:103BB0000F931F932F933F934F935F936F937F9335
:103BC0008F939F93AF93BF93EF93FF93CF93DF9325
:103BD000CDB7DEB76C97DEBFCDBF1092E900809104
:103BE000E80083FFEDC168E0CE0145960E94DF2723
:103BF00082EF8093E8008D8987FF05C09091E800EF
:103C000090FFFCCF03C09EEF9093E800982F907632
:103C100009F0C6C09E892F89188D91110CC080387B
:103C200029F4809117028093F10002C01092F100F4
:103C30001092F10048C1422F50E0512B913051F4C5
:103C4000811141C14130510509F03DC180911702F8
:103C50008D7F0BC0933061F4811135C14130510526
:103C600009F031C1809117028260809317022BC145
:103C7000953041F48091E80080FFFCCF20682093CC
:103C8000E30021C1963009F05FC0EB8CFC8C1092F0
:103C9000E9001092150210921402123091F5109260
:103CA0001302109212020E94AD2799E0BE016F5FCD
:103CB0007F4FDB01E92F1D92EA95E9F799831A837B
:103CC00091E09E8390EA98879AEF99872091140259
:103CD00030911502275F3F4F3C832B838D831092D9
:103CE000E9001092150210921402F0921302E09271
:103CF000120249E050E080E00E9486270E94AD2732
:103D0000E2C0F0921302E09212020E94491DDC010F
:103D10001296ED90FC901397E114F10409F4C0C0E1
:103D2000D701ED91FC910480F581E02DBE016B5E21
:103D30007F4FC7010995009719F00CF0C4C0C7C0A8
:103D4000F701E084F184E8CF973009F4C0C09830DF
:103D500021F481E08093F100B6C0993009F0B3C03E
:103D6000837009F0B4C0EAEDF1E081E021E036E3D0
:103D70009081992361F08093E9002093EB00919169
:103D80009093EC003093ED008F5F873089F78EE7DA
:103D90008093EA001092EA008F8980931A0293C000
:103DA0008B8D9C8D1092E9001092150210921402D6
:103DB0009093130280931202898D811156C08E89CF
:103DC0009D89913A59F4813209F081C047E050E071
:103DD00065E071E080E00E94862775C0913209F0AD
:103DE00076C0833289F4888D90E0982F88272F89B8
:103DF000822BA0E0B0E08093010190930201A09398
:103E00000301B09304015FC0803269F48091E8003F
:103E100082FFFCCF67E085E091E00E94DF278BEF17
:103E20008093E80006C0823209F04DC08F898093EC
:103E30000C0180911602882319F0EEEFFAE002C01F
:103E4000E0E0F8E08091050190910601A091070162
:103E5000B0910801803B9440A105B10509F07BC0F9
:103E600080910C0180FF93C076C00E94491DDC0147
:103E700012960D911C9113970115110541F1D8016E
:103E8000ED91FC910190F081E02DBE016B5E7F4FC2
:103E9000C8010995811117C0F80100851185ECCF83
:103EA000113009F44EC0133091F48F89882309F43E
:103EB00045C0823081F440E867E08CE499E20E94DA
:103EC0005632882321F08EEF8093E80079C081E29A
:103ED0008093EB0075C0813029F440E86BE080E40A
:103EE00099E2EDCF833099F70E94491DDC011296CB
:103EF000ED90FC9013978E010F5F1F4F6801E11446
:103F0000F10479F0D701ED91FC910680F781E02D65
:103F1000B801C7010995080F111DF701E084F1846C
:103F2000EECFD8011C92F60101900020E9F73197FD
:103F3000BF016C197D0940E0C601C1CF6AE279E298
:103F400002C06EE279E26115710509F2FB0144914C
:103F500050E080E840CF0FB6F894A89580916000BB
:103F6000886180936000109260000FBEA895EE3FBC
:103F70002AE0F20739F08091FE0A9091FF0A9183BE
:103F80008083A1CF1092FF0A1092FE0A9CCFEE3FD1
:103F90008AE0F80731F0808191819093FF0A809345
:103FA000FE0A87E797E7918380839BE088E10FB65D
:103FB000F894A895809360000FBE9093600083CF23
:103FC0006C960FB6F894DEBF0FBECDBFDF91CF91D8
:103FD000FF91EF91BF91AF919F918F917F916F91E1
:103FE0005F914F913F912F911F910F91FF90EF9013
:103FF000DF90CF900F900FBE0F901F901895DF921B
:10400000EF92FF920F931F93CF93DF937C01D22EF9
:104010008B01040F111DEB0177FF0EC0C0E0D0E053
:104020000BC0C417D5077CF42D2DAE01B70187EA6C
:1040300097E00E947F262196A801013411058CF398
:1040400040E450E0EECFDF91CF911F910F91FF90B0
:10405000EF90DF9008952F923F924F925F926F9270
:104060007F928F929F92AF92BF92CF92DF92EF9208
:10407000FF920F931F93CF93DF9300D000D000D017
:10408000CDB7DEB75A010D834115510509F432C190
:10409000FA01F49031965491F2E0AF0EB11CAF2DBD
:1040A000B0E0222311F1E52FE695E695E6950E2F77
:1040B00010E0E1E0F0E0352F377011F4E0E0F0E0DF
:1040C000E00FF11FAE9F8001AF9F100DBE9F100D3E
:1040D00011243D81333011F4000F111F209FF00196
:1040E000219FF00D1124AE0EBF1E4D814F3F11F4E4
:1040F00022E02D836C01CA0EDB1E1C141D040CF083
:10410000F9C0803891050CF0F5C09B01250F311DD9
:10411000121613060CF0EEC0603471050CF0EAC004
:10412000A114B10409F4E6C09B0177FF04C0222763
:104130003327261B370B122F17709B0177FF02C006
:10414000295F3F4F43E0359527954A95E1F7F22FD8
:1041500077FF07C0112329F0FFEFF20F28E0211BA2
:10416000122F97FF05C022273327281B390B02C0C7
:1041700020E030E040E8C416D10424F040E8642E8A
:10418000681A01C06F2C621A6F2F0F2E000C770B6C
:10419000FF3F1CF4462F409501C040E0E1E0052FB1
:1041A000077009F4E0E05695569556959E2E950EAB
:1041B000690D711D693071051CF0E8E09E2E9F1A93
:1041C000042F0F0F50E80503800D911D1124820F5D
:1041D000931F61E070E0012E02C0660F771F0A9402
:1041E000E2F75D81533011F0E1E001C0E2E04F9D64
:1041F000200D311D1124E29F202D112430E0750186
:10420000E20EF31ECE2ED12CA9014C0D5D1D4150A6
:1042100051094A0D5B1DBB24BA94B69E9001B79E0E
:10422000300D1124290140945094F90DFE83A619F4
:10423000B109EA9FA02D1124B0E0E69DA00DB11DAB
:1042400011242E81021709F455C09C01275D3D4FB2
:104250004A015701712C761409F444C0F5013490D9
:10426000369EF001379EF00D1124FA83E983E09524
:10427000F095FC83EB83FD81F23019F45C824B8274
:1042800011C0ED81EB3F19F41A8219820BC0F401C1
:104290003490369EF001379EF00D1124E095F09594
:1042A000FC83EB8307FD09C0F9013080EB81E3213A
:1042B000F9813E2E3F2AF9013082112359F007304F
:1042C0004CF4F901E058FF4F20803C8023203A80D5
:1042D000322830828C0C9D1CAC0CBD1C73942F5F5B
:1042E0003F4FB9CF0F5FEA0EFB1E4A0F5B1F80588E
:1042F0009F4FA7CF26960FB6F894DEBF0FBECDBF57
:10430000DF91CF911F910F91FF90EF90DF90CF90B1
:10431000BF90AF909F908F907F906F905F904F90E5
:104320003F902F9008950F9302E020E00E942B20F1
:104330000F9108958091300681110AC08091310655
:1043400080933006809132068093310610923206B7
:1043500080913106811106C080913206809331062A
:1043600010923206089565E070E080E090E00C94D1
:104370000F240F931F93CF93DF93EC014BE050E09A
:10438000BC018BE396E00E94EF32BE01655F7F4F78
:104390004BE050E087E496E00E94EF32FE01769613
:1043A000E491E0932906FE017796E491E0932A06D2
:1043B000FE017896E491E0932B06FE017996E49154
:1043C000E0933906FE017A96E491E0933A06FE0105
:1043D0007B967491AFE5B6E04CE160E02C912F77CD
:1043E000671710F080E001C080E8282B2C9327FF8E
:1043F0005CC0FE01E40FF11D9491207C292B81E02B
:10440000840FFE01E80FF11D84918D010650110902
:10441000F801808382E0840FFE01E80FF11D4D5FFB
:1044200084910F5F1F4FF8018083992389F09130A9
:10443000A1F09230B9F09330D1F080E09430E1F007
:104440009530F1F0963001F536E053E095E01FC06D
:1044500081E034E15AE09FE01AC080E03AE055E0A4
:104460009AE015C081E038E055E098E010C081E0A6
:104470003CE056E09CE00BC032E35CE099E107C011
:1044800033E052E094E003C030E050E090E0FD0102
:104490003497908331969083319650833196308350
:1044A0002F7B811180E4282B2C936F5F17966E3140
:1044B00009F094CF2EE163E477E0CE010E94AB26B1
:1044C00028E0482F6BE277E0CE010E94AB26D09324
:1044D0005606C09355062BE237E0309354062093DE
:1044E000530690E0A0E0B0E0809335069093360646
:1044F000A0933706B093380684E080932802DF91BA
:10450000CF911F910F9108950F931F93CF93DF9336
:104510008C01C0E0D0E0F801EC0FFD1F6491662330
:1045200071F0E0919D07F0919E070190F081E02DE0
:104530008DE997E00995892B11F02196ECCFCE01FA
:10454000DF91CF911F910F910895009769F0FC01C1
:1045500001900020E9F73197AF01481B590BBC01CE
:104560008DE997E00C94732380E090E00895CF925A
:10457000DF92EF92FF920F931F93CF93DF93CDB70C
:10458000DEB7A1970FB6F894DEBF0FBECDBF282FC0
:1045900030E040E050E019A28E010F5D1F4F8AE02D
:1045A000C82ED12CE12CF12CCA01B901A70196012A
:1045B0000E942A33605DF80162938F012115310555
:1045C0004105510589F7CF010E94A522A1960FB69A
:1045D000F894DEBF0FBECDBFDF91CF911F910F9139
:1045E000FF90EF90DF90CF900895582F862F209165
:1045F000530630915406F9013296265E3F4FDF0193
:1046000012977C9111966C919081411102C097FF95
:1046100007C0751305C0681303C0892F8F770895ED
:104620003396E217F30759F7552309F459C0882345
:1046300009F456C040913906E52FF0E0AFE09FE065
:10464000499F9001112421503109E217F30709F421
:1046500047C020913A06E82FF0E09FE0299F9001A3
:10466000112421503109E217F30709F439C06A2FE8
:104670000E945B33B82F292F852F0E945B33392F7F
:10468000E0913506F0913606E80FF11DB49FE00D7C
:10469000F11D11248091550690915606E80FF91FDF
:1046A0008491E22FE695E695E6954EE1849FC00160
:1046B00011248C5A964D4FE0E49FF0011124E30F32
:1046C000F11DE80FF91F84912770E1E0F0E001C0CF
:1046D000EE0F2A95EAF7E82381E021F480E00895BF
:1046E00081E008950895CF92DF92EF92FF920F93A9
:1046F0001F93CF93DF936C017A018B01C0E0D0E070
:10470000CE15DF0589F0D8016D918D01D601ED91AF
:10471000FC910190F081E02DC6010995892B11F4DF
:104720007E0102C02196ECCFC701DF91CF911F918E
:104730000F91FF90EF90DF90CF9008951F93CF934C
:10474000DF93DC0120E030E040E050E011E0C1E028
:10475000D0E02617370791F114968C9114978111A8
:1047600015C014961C93149712968D919C911397D3
:10477000ED91FC911197E80FF91FE4911596EC93D8
:104780001597019613969C938E93129714969C916D
:10479000149715968C911597892349F0FE01022EE6
:1047A00002C0EE0FFF1F0A94E2F74E2B5F2B990F0A
:1047B00014969C9314972F5F3F4FCBCFCA01DF9184
:1047C000CF911F9108950895089580E090E0089595
:1047D0000E946D333FB7F89480910A0890910B08BE
:1047E000A0910C08B0910D0826B5A89B05C02F3FDD
:1047F00019F00196A11DB11D3FBFBA2FA92F982F07
:104800008827820F911DA11DB11DBC01CD0142E081
:10481000660F771F881F991F4A95D1F708958F92C9
:104820009F92AF92BF92CF92DF92EF92FF926B0175
:104830007C010E94EA234B015C01C114D104E10414
:10484000F104F1F00E94EA23DC01CB0188199909F7
:10485000AA09BB09883E9340A105B10570F321E088
:10486000C21AD108E108F10888EE880E83E0981E8C
:10487000A11CB11CC114D104E104F10419F7DDCF6E
:10488000FF90EF90DF90CF90BF90AF909F908F9070
:1048900008951F920F920FB60F9211242F933F93FA
:1048A0008F939F93AF93BF938091040290910502E1
:1048B000A0910602B09107023091090823E0230F6E
:1048C0002D3720F40196A11DB11D05C026E8230F48
:1048D0000296A11DB11D20930908809304029093B4
:1048E0000502A0930602B093070280910A089091F6
:1048F0000B08A0910C08B0910D080196A11DB11DE7
:1049000080930A0890930B08A0930C08B0930D08AD
:10491000BF91AF919F918F913F912F910F900FBEBB
:104920000F901F9018950F930AEF0E942B200F9164
:1049300008950F93CF93DF93FC0196816A3031F491
:10494000858184836185960F96832FC0262FEF0182
:10495000848161E0690F2A3344F4203354F4213216
:1049600051F02E32B1F425E207C021542A3120F053
:1049700010C0265101C024E23F81062E000C770BA7
:10498000082E000C990B313051F442E35BE20E9497
:10499000932488858D5F9C81890F8C8306C00BEFE3
:1049A00042E35BE20E942B20F4CF81E090E0DF91B4
:1049B000CF910F9108958FB12CB193B130E0209534
:1049C000309520743327A90123E0559547952A9502
:1049D000E1F7292F30E02095309520713327359568
:1049E000279535952795242B8095807F822B0895D8
:1049F00083B7817F83BF83B7816083BF889583B787
:104A00008E7F83BF0895FC01840F911D181619062F
:104A1000E4F5E038F105CCF5F7FF02C0E0E0F0E0A6
:104A20008138910514F080E890E0382F3E1BAB01EF
:104A300077FF02C0495F5F4F83E0559547958A95A0
:104A4000E1F75695542F442757954795E40FF51FE6
:104A5000E75DFD4F6770772781E090E001C0880F28
:104A60006A95EAF7482F222349F0213071F431503A
:104A700020F08081842B8193FACF08958095315066
:104A800020F0908198239193FACF08952F923F922E
:104A90004F925F926F927F928F929F92AF92BF924E
:104AA000CF92DF92EF92FF920F931F93CF93DF93FA
:104AB000CDB7DEB72C970FB6F894DEBF0FBECDBFD3
:104AC0004C016B01022F5A8349831C821B821D8279
:104AD0001E8268E070E0CE0101960E949E2301963E
:104AE00098878F8368E070E0CE0101960E949E2334
:104AF0007C0161E070E0CE0101960E949E23782E39
:104B00008F819885880D991D97FDE0C020E8821659
:104B100091040CF0DBC097012F5F3F4FC601820F5D
:104B2000931F97FDD3C040E4C416D1040CF0CEC04F
:104B30007601D7FE04C0EE24FF24EC18FD0857E0F0
:104B4000E522FF24A601D7FE02C0495F5F4F2A017C
:104B500063E0559447946A95E1F7D7FE09C081E078
:104B6000481A510888E090E0AC014E195F097A01BB
:104B7000190137FF03C057E0250E311C53E035946F
:104B800027945A95E1F727703327232B19F08FEFDD
:104B9000281A380A6624639410E0C12CD12CA12C69
:104BA000B12C88E090E09C012E193F093A872987B3
:104BB000A214B3040CF08AC021E030E061E070E0A0
:104BC000CE0101962B873C870E949E232B853C8536
:104BD000892B19F42E5F3F4FF1CFB901CE01019619
:104BE0000E949E23DC01119620E030E02A173B074B
:104BF00008F065C071101629660C09F05DC0B2019D
:104C00006A0D7B1DCB010196099708F041C0C601D2
:104C1000880D991D80389105D8F5CB019695982F70
:104C2000882797958795880D991D8C0D9D1D6F3F41
:104C30004FEF740709F446C0412F0E2C01C0440FFA
:104C40000A94EAF7FC01E75DFD4F002319F050815B
:104C5000452B03C04095508145234083E114F10466
:104C6000B9F067307105A1F0412F50E0098402C00E
:104C7000559547950A94E2F7FC01E755FD4F00234F
:104C800019F01081412B03C04095108141234083CE
:104C90005FEFC51AD50A4F815885C416D5064CF06A
:104CA0005FEFA51AB50A6624639410E0C12CD12CDD
:104CB00003C06624639410E02F5F3F4F97CF81E0DD
:104CC000782676CFE114F10479F6E2CF2C960FB670
:104CD000F894DEBF0FBECDBFDF91CF911F910F9132
:104CE000FF90EF90DF90CF90BF90AF909F908F900C
:104CF0007F906F905F904F903F902F900895603815
:104D00007105D0F440345105B8F4EAE2FBE280E1E9
:104D1000849FD001A0781124A60F4770E40FF11DE5
:104D20008491A75DBD4F222319F06C91862B03C09F
:104D300080956C9186238C930895CF93C62F0E9403
:104D40008422CA3020F488E29BE20E9484228C2FC5
:104D5000CF910C94B722CF93DF93EC0181E0840FC5
:104D6000FE01E40FF11D4491DB01129630E0321791
:104D700029F19C919F779C933417E8F4FE01E80F8A
:104D8000F11D949151E0580FFE01E50FF11D549172
:104D9000BD0162507109FB01508352E0580FFE01C2
:104DA000E50FF11D8D5F54916F5F7F4FFB015083C5
:104DB000E92FE068EC933F5F1396D9CFDF91CF9155
:104DC0000895CF93DF93C9E2D6E084E18B8382E03C
:104DD0008C838D831F820E949A2118860E949A21BB
:104DE00019860E949A2184E08A870E949A2185E090
:104DF0008B870E949A2181E0809300011092080223
:104E0000DF91CF91089527E0829FC0011124FC011A
:104E1000E75AF94F8281681718F4861B8283089538
:104E2000128286818F7786830895CF93DF934EE138
:104E30005BE260E070E080E090E00E94932144E15A
:104E40005BE260E070E088E790E00E9493214AE036
:104E50005BE268E370E080E090E00E94932140E034
:104E60005BE268E370E088E790E00E949321C0E095
:104E7000D0E0FE01E450F54D6491603438F470E008
:104E800021E040E788E090E00E940325FE01E85021
:104E9000F54D849121E040E368E070E090E00E94ED
:104EA000FF1F2196C430D10521F7DF91CF910895DE
:104EB0004091140250911502209112023091130278
:104EC00042175307B4F49091E8009570E1F3909184
:104ED000E80092FD19C08093F10080911402909136
:104EE000150201968F739927892B19F48EEF809301
:104EF000E80080911402909115020196909315029A
:104F00008093140281E0089580E00895DF92EF928B
:104F1000FF920F931F93CF93DF93D82E8A017B01CB
:104F2000E40EF51EEB01CE15DF0571F0D7FE03C0D0
:104F3000FE01849101C088810E9458272196811129
:104F4000F2CF8FEF9FEF01C0C801DF91CF911F918A
:104F50000F91FF90EF90DF9008950F931F93CF93E1
:104F6000DF931F92CDB7DEB782E0898342E450E041
:104F700066EA7BE280E80E9486270E94491DDC01E8
:104F800012960D911C9113970115110569F0D80126
:104F9000ED91FC910280F381E02DBE016F5F7F4FA8
:104FA000C801099597FF07C089810F90DF91CF91C4
:104FB0001F910F910895F80100851185E5CF61508B
:104FC00030F02091F100FC0120830196F8CF289861
:104FD00084E6809319020895CF93DF9300D000D028
:104FE00000D0CDB7DEB7789484B5826084BD84B537
:104FF000816084BD85B5826085BD85B5816085BDD4
:1050000080916E00816080936E001092810080918B
:105010008100826080938100809181008160809313
:105020008100809180008160809380008091910058
:1050300082608093910080919100816080939100C3
:10504000809190008160809390008091C100846085
:105050008093C1008091C10082608093C1008091E3
:10506000C10081608093C1008091C3008160809302
:10507000C3008091C00082608093C0008091C20014
:1050800081608093C20080917A00846080937A006E
:1050900080917A00826080937A0080917A008160AA
:1050A00080937A0080917A00806880937A001092D1
:1050B0001A0210921702109218028091D700816094
:1050C0008093D70080EA8093D80089B5806189BD3C
:1050D00089B5826089BD09B400FEFDCF61E070E052
:1050E00080E090E00E940F248091D8008F7C806146
:1050F0008093D8008091E000807F8093E0008091D1
:10510000E1008E7E8093E1008DE08093E200559A6D
:10511000209AEEEFFFE7859194918B3F9C4D19F417
:1051200081E08093160281EC80937C0085B1806FD2
:1051300085B9249884B1866E84B95E9A5F988AB1E5
:10514000806D8AB9769A6E9881B3806F81BB899899
:1051500080B38D7080BB80E58CBD81E08DBD0E94E9
:10516000B3215F9A0E94B3215E985C98E3E3F4E078
:105170008DE08E0F94919EBD00000DB407FEFDCF13
:1051800031968E13F7CF5C9A81E88093640081E0BA
:10519000809365000E94DB2487FF13C05C9885EA3A
:1051A0008EBD00000DB407FEFDCF5C9A2E982F989F
:1051B0002D98809164008062809364000E94F8249E
:1051C000FDCF81E28093AE07809164008E7F809353
:1051D000640080917A00806480937A0080917A00E4
:1051E00086FDFCCF00917800109179000E94EA239F
:1051F00020E030E0980111270027600F711F821F07
:10520000931F611571058105910511F00E94E63229
:10521000809164008160809364000E94E12680E3B5
:1052200096E08D5F8D83E4E04E2E512C612C712C25
:105230002FB7F8948091040290910502A091060284
:10524000B09107022FBF4091B3075091B40760910E
:10525000B5077091B6072091B707222349F0209136
:10526000AF07821B8093B8071092B7070C944631A2
:1052700084179507A607B70748F4481B423010F477
:105280000C9446310E94F8240C94463121E020937E
:10529000B7078093AF079093B007A093B107B0937F
:1052A000B2072091AE07820F911DA11DB11D809301
:1052B000B3079093B407A093B507B093B607809156
:1052C000AA079091AB0701969093AB078093AA072A
:1052D0008091AC078093AD070E94DB248093AC07DC
:1052E000E09128028E2F90E08431910508F0B3C739
:1052F000FC01EA5AFF4F0C9467331092080283E0D6
:10530000B7C1E091080285C741E060912A0680910B
:1053100029060E94F522F82E0E945F170E94801B2A
:105320009091AD0790952091AC07922397FF0AC00A
:1053300090912B069130C9F0B0F0923079F0933013
:1053400079F016C094FF45C090912B06913041F042
:1053500028F0923041F0933041F00AC011E009C0CA
:1053600010E00FEF07C01FEF04C010E001E002C023
:1053700010E000E080912A06412F012E000C550B11
:10538000480F511D80912906602F002E000C770BCD
:10539000680F711D89E296E00E94DE1C882309F4E3
:1053A000B3C080912906080F0093290680912A0630
:1053B000180F10932A06E7E6FE1240C0E12CF12CEC
:1053C00000E010E057EEB52E60E5D62E7CE2C72E49
:1053D00022C095FF04C080912B06815005C096FF26
:1053E00007C080912B068F5F837080932B068CC043
:1053F00092FF8AC08091280280930F0285E08093FB
:10540000280282C0873689F093E0E90EF11CE8E1BA
:10541000EE16F104A9F0E0915306F0915406EE0D5A
:10542000FF1D828187FDF0CFEDCF80912906882373
:1054300059F380912A06811133C7E6CF00E010E0CE
:1054400040E060912A06809129060E94F522863666
:1054500051F480910802833010F482E101C083E1AD
:1054600080932802FAC684E08093280239E5C32E8F
:1054700036E0D32E4AE5E42E46E0F42EF70185818E
:1054800087FF32C086FF30C0F60160818091290617
:1054900090E070E0861B970BA0912A06F701B0817F
:1054A000EB2FF0E02A2F30E02E1B3F0B09F016C740
:1054B000AC0197FF04C044275527481B590B4130C6
:1054C000510509F0B8C7892B09F0F8C681E037FF0C
:1054D00003C03195219531092130310509F4F0C619
:1054E00090E0891709F4EEC6F7E0CF0ED11C27E053
:1054F000E20EF11C8CE2E81687E0F80609F0BECF58
:105500000115110509F0A9C60E948A1BA4C60E94B4
:10551000152721E049E858E264E070E082E490E079
:105520000E94462521E043EC54E164E070E084E011
:1055300090E00E9446250E94801B0E941F160BE2ED
:1055400011E020E3222E26E0322EF101EB5FEE8304
:10555000F10181911F01882331F1F801C080D180D0
:10556000A280B3804601FEE08F0E911C7601E81404
:10557000F90451F020E040E1B501C7010E94FF1F8E
:105580002FEFE21AF20AF3CFF1013197E081F0E058
:10559000EE0FFF1FE15EFE4F4081518121E0B5011A
:1055A000C6010E9446250C5F1F4F8E818211D0CF0D
:1055B000E0910E0294E0E99FF0011124E55DFE4FB9
:1055C00062817381655F7F4F8081918120E049EB2B
:1055D00054E103960E9446251091AD0710958091E5
:1055E000AC0718231092A40703E10093A2070093CD
:1055F000A10783E28093A30780912E060E94B72221
:105600000093A2070093A1078DE28093A3078091E6
:105610002D060E94B72281E08093A4078091280282
:10562000853019F0863039F116C615FF06C0809115
:105630000E02882311F0815007C016FF08C0809128
:105640000E02823020F48F5F80930E0204C612FF98
:1056500003C080910F020CC013FFFDC5E0910E0244
:10566000F0E0E75DF94F8781882309F4F4C586E00F
:1056700080932802F0C500910D02013019F082E5F7
:1056800090E002C08EE590E021E049EB54E168E350
:1056900070E00E9446254FEA54E16DE270E081E53A
:1056A00090E00E94932145EA54E16DE270E08DE5BF
:1056B00090E00E94932115FF06C0002321F00150C5
:1056C00000930D02C8C516FF06C0011104C081E099
:1056D00080930D02C0C512FDA6C613FFBCC5011103
:1056E0007EC0E0910E02AE2FB0E0A75DB94F1796D5
:1056F0008C91813021F0823009F45CC070C00DE2E1
:10570000E02E07E0F02E0E2E000CFF0B8F01005D47
:10571000194F85E0D82EF7013297808190E02091D3
:105720002906821B91093196408150E020912A067A
:10573000421B5109F701208127FF32C02F776CE906
:10574000620F322F623010F0273651F597FF03C0F9
:1057500091958195910902971CF5CA0157FF03C0E5
:105760009195819591090297DCF4243611F4F701A3
:105770003083F7018081982F9F77953619F48078D0
:1057800086668083F70180818F77873609F480836E
:10579000F80110820E949A2110920D02D0922802E4
:1057A000F3E0EF0EF11C25E4E21627E0F20609F023
:1057B000B2CF15C080912C06895F833308F082E355
:1057C00080932C060E2E000CFF0BE75DF94F17821D
:1057D0000E949A2110920D0285E080932802809108
:1057E0000D02813009F037C53091290620912A0633
:1057F000A5E4B7E010E080E0AD0142505109FA01A4
:105800005081BD0161507109FB0140819C919F77DE
:1058100029F0531304C0421302C0F6C5182F8F5F3E
:1058200013968E3149F7E12FF0E080910E02AF011F
:10583000440F551FE40FF51FED5BF84FA82FB0E0A4
:10584000A75DB94F17969C9190689283308321830E
:10585000E82F880FFF0BE75DF94F17820E949A210E
:1058600010920D02E0C50E945F1710910C021130DA
:1058700019F088E490E002C084E590E021E049EB73
:1058800054E168E370E00E9446254FEA54E16DE27E
:1058900070E087E490E00E94932145EA54E16DE2D4
:1058A00070E083E590E00E94932121E040E16BE20B
:1058B00070E082E490E00E94FF1F8091AD07809528
:1058C0009091AC07892385FF06C0112321F0115068
:1058D00010930C0207C086FF05C0111103C091E0B0
:1058E00090930C0282FF07C09091280290930F02C0
:1058F00095E09093280283FFAEC480910C02811141
:1059000057C08091100290E0AC01440F551FFA017E
:10591000E80FF91FED5BF84F22812F7730913006A9
:10592000332351F030913106332341F03091320668
:10593000311106C0E2E005C0E0E003C0E1E001C0D3
:10594000EFEF3CEF320F323078F4243009F06DC5C0
:1059500030912D063F5F30932D06840F951FFC017B
:10596000ED5BF84F228317C0EF3FB9F00E2E000C0D
:10597000FF0BE75DF94F27830E949A21E091100207
:10598000F0E0CF01880F991FE80FF91FED5BF84F8A
:1059900082818F77828384E06BCE8FE58093A2072C
:1059A0008093A1078CE28093A30787E894E136C532
:1059B000813009F050C488E05BCE0E94152721E0B9
:1059C00049EA51E164E070E088E090E00E944625F9
:1059D00080910B0220E044EA51E166E370E081111E
:1059E00003C089E190E002C08FE390E00E9493241D
:1059F0008091AD0780959091AC07892385FD109229
:105A00000B0286FF03C091E090930B0283FF23C437
:105A100080910B02811102C082E02ACE81E028CE63
:105A20000E94152720E04AE162E070E08AE290E0FF
:105A30000E94032520E04AE16DE370E08AE290E0F5
:105A40000E94032521E04BE750E160E070E08AE22C
:105A500090E00E94462588E08093A2078093A107EA
:105A600018E11093A30789E690E10E9484228AE559
:105A70008093A2078093A1071093A3078EE490E17F
:105A80000E9484228091AD0780959091AC07892374
:105A900082FDF8C2E0C30E945F1720E048E250E1B7
:105AA0006BE270E082E490E00E94932480E58093B2
:105AB000A2078093A1078CE28093A307E0912802BC
:105AC0008E2F90E0FC013997E730F10508F059C2BC
:105AD000E659FF4F0C946733E091110227E0E29FF3
